{
	"data": {
		"bytecode": {
			"linkReferences": {},
			"object": "608060405234801561001057600080fd5b5061409d806100206000396000f3fe608060405234801561001057600080fd5b50600436106102955760003560e01c80637b3c71d311610167578063d33219b4116100ce578063e23a9a5211610087578063e23a9a5214610686578063e48083fe14610602578063e9c714f214610743578063f851a4401461074b578063fc3a320e1461075e578063fe0d94c11461077157600080fd5b8063d33219b41461060a578063d8bff4401461061d578063da35c66414610630578063da95691a14610639578063ddf0b0091461064c578063deaaa7cc1461065f57600080fd5b8063b112626311610120578063b1126263146105cd578063b58131b0146105d6578063b71d1a0c146105de578063bb677582146105f1578063bf7a2963146105fa578063c82fbd081461060257600080fd5b80637b3c71d3146105795780637bdbe4d01461058c57806383cce0e11461059457806396300b7d1461059d57806397d048e5146105b0578063a64e024a146105c357600080fd5b80632230e1551161020b5780633bccf4fd116101c45780633bccf4fd146104fa5780633e4f49e61461050d57806340e58ee51461052d57806356781388146105405780635c60da1b146105535780636f3eff281461056657600080fd5b80632230e1551461048057806324bc1a641461048857806326782247146104905780632b4656c8146104bb578063328dd982146104ce5780633932abb1146104f157600080fd5b806317977c611161025d57806317977c61146104015780631d28dec7146104215780631dfb1b5a146104345780631e7b5d3a1461044757806320606b7014610450578063215809ca1461047757600080fd5b8063013cf08b1461029a57806302a251a31461039557806306fdde03146103ac5780630ea2d98c146103e357806314a67ea4146103f8575b600080fd5b6103206102a83660046133d2565b600b602081905260009182526040909120805460018201546002830154600384015460048501546009860154600a87015497870154600c880154600d890154600e9099015497996001600160a01b039097169895979496939592949192909160ff80821691610100810482169162010000909104168d565b604080519d8e526001600160a01b03909c1660208e01529a8c019990995260608b019790975260808a019590955260a089019390935260c088019190915260e08701526101008601526101208501521515610140840152151561016083015215156101808201526101a0015b60405180910390f35b61039e60055481565b60405190815260200161038c565b6103d66040518060400160405280600b81526020016a4f78576f726b732044414f60a81b81525081565b60405161038c9190613447565b6103f66103f13660046133d2565b610784565b005b61039e60065481565b61039e61040f366004613476565b600c6020526000908152604090205481565b6103f661042f3660046133d2565b6108b7565b6103f66104423660046133d2565b610b62565b61039e6103e881565b61039e7f8cad95687ba82c2ce50e74f7b754645e5117c3a5bec8151c0726d5857980a86681565b61039e61168081565b61039e60c881565b61039e610c83565b6001546104a3906001600160a01b031681565b6040516001600160a01b03909116815260200161038c565b6103f66104c9366004613491565b610d15565b6104e16104dc3660046133d2565b61110c565b60405161038c94939291906135c2565b61039e60045481565b6103f661050836600461362b565b61139d565b61052061051b3660046133d2565b61160b565b60405161038c919061368f565b6103f661053b3660046133d2565b6117d3565b6103f661054e3660046136b7565b611adf565b6002546104a3906001600160a01b031681565b6103f66105743660046133d2565b611b4a565b6103f66105873660046136e3565b611c24565b61039e600a81565b61039e60075481565b6103f66105ab366004613476565b611c74565b6103f66105be3660046133d2565b611d43565b61039e62013b0081565b61039e619d8081565b61039e611e23565b6103f66105ec366004613476565b611e7e565b61039e6107d081565b6103f6611f43565b61039e600181565b6009546104a3906001600160a01b031681565b6003546104a3906001600160a01b031681565b61039e60085481565b61039e610647366004613a38565b611fb9565b6103f661065a3660046133d2565b612654565b61039e7f150214d74d59b7d1e90c73fc22ef3d991dd0a76b046543d4d80ab92d2a50328f81565b610713610694366004613b0a565b6040805160608101825260008082526020820181905291810191909152506000918252600b602090815260408084206001600160a01b03939093168452600f9092018152918190208151606081018352905460ff8082161515835261010082041693820193909352620100009092046001600160601b03169082015290565b6040805182511515815260208084015160ff1690820152918101516001600160601b03169082015260600161038c565b6103f6612982565b6000546104a3906001600160a01b031681565b600a546104a3906001600160a01b031681565b6103f661077f3660046133d2565b612aaa565b6000546001600160a01b031633146107f45760405162461bcd60e51b815260206004820152602860248201527f4f78576f726b7344414f3a3a5f736574566f74696e67506572696f643a2061646044820152676d696e206f6e6c7960c01b60648201526084015b60405180910390fd5b6116808110158015610809575062013b008111155b6108715760405162461bcd60e51b815260206004820152603360248201527f4f78576f726b7344414f3a3a5f736574566f74696e67506572696f643a20696e6044820152721d985b1a59081d9bdd1a5b99c81c195c9a5bd9606a1b60648201526084016107eb565b600580549082905560408051828152602081018490527f7e3f7f0708a84de9203036abaa450dccc85ad5ff52f78c170f3edb55cf5e882891015b60405180910390a15050565b6003546001600160a01b031661091b5760405162461bcd60e51b815260206004820152602360248201527f4f78576f726b7344414f3a3a7665746f3a207665746f20706f776572206275726044820152621b995960ea1b60648201526084016107eb565b6003546001600160a01b031633146109755760405162461bcd60e51b815260206004820152601d60248201527f4f78576f726b7344414f3a3a7665746f3a206f6e6c79207665746f657200000060448201526064016107eb565b60076109808261160b565b600881111561099157610991613679565b14156109f75760405162461bcd60e51b815260206004820152602f60248201527f4f78576f726b7344414f3a3a7665746f3a2063616e6e6f74207665746f20657860448201526e1958dd5d1959081c1c9bdc1bdcd85b608a1b60648201526084016107eb565b6000818152600b60205260408120600e8101805461ff001916610100179055905b6005820154811015610b31576009546005830180546001600160a01b039092169163591fcdfe919084908110610a5057610a50613b2d565b6000918252602090912001546006850180546001600160a01b039092169185908110610a7e57610a7e613b2d565b9060005260206000200154856007018581548110610a9e57610a9e613b2d565b90600052602060002001866008018681548110610abd57610abd613b2d565b9060005260206000200187600401546040518663ffffffff1660e01b8152600401610aec959493929190613c19565b600060405180830381600087803b158015610b0657600080fd5b505af1158015610b1a573d6000803e3d6000fd5b505050508080610b2990613c7b565b915050610a18565b506040518281527fde0cea2a3a0097cc3d981d40c375407760e85bc9c5e69aea449ac3885f8615c6906020016108ab565b6000546001600160a01b03163314610bcc5760405162461bcd60e51b815260206004820152602760248201527f4f78576f726b7344414f3a3a5f736574566f74696e6744656c61793a2061646d604482015266696e206f6e6c7960c81b60648201526084016107eb565b60018110158015610bdf5750619d808111155b610c455760405162461bcd60e51b815260206004820152603160248201527f4f78576f726b7344414f3a3a5f736574566f74696e6744656c61793a20696e76604482015270616c696420766f74696e672064656c617960781b60648201526084016107eb565b600480549082905560408051828152602081018490527fc565b045403dc03c2eea82b81a0465edad9e2e7fc4d97e11421c209da93d7a9391016108ab565b6000610d10600754600a60009054906101000a90046001600160a01b03166001600160a01b03166318160ddd6040518163ffffffff1660e01b8152600401602060405180830381865afa158015610cde573d6000803e3d6000fd5b505050506040513d601f19601f82011682018060405250810190610d029190613c96565b6001600160601b0316612cc6565b905090565b6009546001600160a01b031615610d875760405162461bcd60e51b815260206004820152603060248201527f4f78576f726b7344414f3a3a696e697469616c697a653a2063616e206f6e6c7960448201526f20696e697469616c697a65206f6e636560801b60648201526084016107eb565b6000546001600160a01b03163314610dec5760405162461bcd60e51b815260206004820152602260248201527f4f78576f726b7344414f3a3a696e697469616c697a653a2061646d696e206f6e6044820152616c7960f01b60648201526084016107eb565b6001600160a01b038716610e495760405162461bcd60e51b8152602060048201526030602482015260008051602061404883398151915260448201526f74696d656c6f636b206164647265737360801b60648201526084016107eb565b6001600160a01b038616610ea55760405162461bcd60e51b815260206004820152602f602482015260008051602061404883398151915260448201526e4f78576f726b73206164647265737360881b60648201526084016107eb565b6116808410158015610eba575062013b008411155b610f0a5760405162461bcd60e51b815260206004820152602d602482015260008051602061404883398151915260448201526c1d9bdd1a5b99c81c195c9a5bd9609a1b60648201526084016107eb565b60018310158015610f1d5750619d808311155b610f6c5760405162461bcd60e51b815260206004820152602c602482015260008051602061404883398151915260448201526b766f74696e672064656c617960a01b60648201526084016107eb565b60018210158015610f7f57506103e88211155b610f9b5760405162461bcd60e51b81526004016107eb90613cbf565b60c88110158015610fae57506107d08111155b610fca5760405162461bcd60e51b81526004016107eb90613cbf565b60055460408051918252602082018690527f7e3f7f0708a84de9203036abaa450dccc85ad5ff52f78c170f3edb55cf5e8828910160405180910390a160045460408051918252602082018590527fc565b045403dc03c2eea82b81a0465edad9e2e7fc4d97e11421c209da93d7a93910160405180910390a160065460408051918252602082018490527ffc216faa269bf440fb06aa490693f409461bde9cdcb949c7b9f2cb79589e7a58910160405180910390a160075460408051918252602082018390527fd73ab1b53ca7a080713bcecd1a0acb2066a6a6c3d2fd6d78b67ae5005e652d9b910160405180910390a1600980546001600160a01b03199081166001600160a01b03998a1617909155600a8054821697891697909717909655600380549096169490961693909317909355600555600491909155600655600755565b6060806060806000600b60008781526020019081526020016000209050806005018160060182600701836008018380548060200260200160405190810160405280929190818152602001828054801561118e57602002820191906000526020600020905b81546001600160a01b03168152600190910190602001808311611170575b50505050509350828054806020026020016040519081016040528092919081815260200182805480156111e057602002820191906000526020600020905b8154815260200190600101908083116111cc575b5050505050925081805480602002602001604051908101604052809291908181526020016000905b828210156112b457838290600052602060002001805461122790613b43565b80601f016020809104026020016040519081016040528092919081815260200182805461125390613b43565b80156112a05780601f10611275576101008083540402835291602001916112a0565b820191906000526020600020905b81548152906001019060200180831161128357829003601f168201915b505050505081526020019060010190611208565b50505050915080805480602002602001604051908101604052809291908181526020016000905b828210156113875783829060005260206000200180546112fa90613b43565b80601f016020809104026020016040519081016040528092919081815260200182805461132690613b43565b80156113735780601f1061134857610100808354040283529160200191611373565b820191906000526020600020905b81548152906001019060200180831161135657829003601f168201915b5050505050815260200190600101906112db565b5050505090509450945094509450509193509193565b604080518082018252600b81526a4f78576f726b732044414f60a81b60209182015281517f8cad95687ba82c2ce50e74f7b754645e5117c3a5bec8151c0726d5857980a866818301527fb2ba3d96e7d2b3d3ee22b58fd685f1818f218ecb4bc89ae7dbacffb24cc2781e81840152466060820152306080808301919091528351808303909101815260a0820184528051908301207f150214d74d59b7d1e90c73fc22ef3d991dd0a76b046543d4d80ab92d2a50328f60c083015260e0820189905260ff8816610100808401919091528451808403909101815261012083019094528351939092019290922061190160f01b6101408401526101428301829052610162830181905290916000906101820160408051601f198184030181528282528051602091820120600080855291840180845281905260ff8a169284019290925260608301889052608083018790529092509060019060a0016020604051602081039080840390855afa158015611518573d6000803e3d6000fd5b5050604051601f1901519150506001600160a01b0381166115905760405162461bcd60e51b815260206004820152602c60248201527f4f78576f726b7344414f3a3a63617374566f746542795369673a20696e76616c60448201526b6964207369676e617475726560a01b60648201526084016107eb565b806001600160a01b03167fb8e138887d0aa13bab447e82de9d5c1777041ecd21ca36ba824ff1e6c07ddda48a8a6115c8858e8e612ce6565b6040805193845260ff90921660208401526001600160601b03169082015260806060820181905260009082015260a00160405180910390a2505050505050505050565b600081600854101561166e5760405162461bcd60e51b815260206004820152602660248201527f4f78576f726b7344414f3a3a73746174653a20696e76616c69642070726f706f6044820152651cd85b081a5960d21b60648201526084016107eb565b6000828152600b60205260409020600e810154610100900460ff16156116975750600892915050565b600e81015460ff16156116ad5750600292915050565b806009015443116116c15750600092915050565b80600a015443116116d55750600192915050565b80600c015481600b01541115806116f35750806003015481600b0154105b156117015750600392915050565b60048101546117135750600492915050565b600e81015462010000900460ff161561172f5750600792915050565b600960009054906101000a90046001600160a01b03166001600160a01b031663c1a287e26040518163ffffffff1660e01b8152600401602060405180830381865afa158015611782573d6000803e3d6000fd5b505050506040513d601f19601f820116820180604052508101906117a69190613cff565b81600401546117b59190613d18565b42106117c45750600692915050565b50600592915050565b50919050565b60076117de8261160b565b60088111156117ef576117ef613679565b14156118595760405162461bcd60e51b815260206004820152603360248201527f4f78576f726b7344414f3a3a63616e63656c3a2063616e6e6f742063616e63656044820152721b08195e1958dd5d1959081c1c9bdc1bdcd85b606a1b60648201526084016107eb565b6000818152600b6020526040902060018101546001600160a01b031633148061192257506002810154600a546001808401546001600160a01b039283169263782d6fe1929116906118aa9043613d30565b6040516001600160e01b031960e085901b1681526001600160a01b0390921660048301526024820152604401602060405180830381865afa1580156118f3573d6000803e3d6000fd5b505050506040513d601f19601f820116820180604052508101906119179190613c96565b6001600160601b0316105b6119835760405162461bcd60e51b815260206004820152602c60248201527f4f78576f726b7344414f3a3a63616e63656c3a2070726f706f7365722061626f60448201526b1d99481d1a1c995cda1bdb1960a21b60648201526084016107eb565b600e8101805460ff1916600117905560005b6005820154811015611aae576009546005830180546001600160a01b039092169163591fcdfe9190849081106119cd576119cd613b2d565b6000918252602090912001546006850180546001600160a01b0390921691859081106119fb576119fb613b2d565b9060005260206000200154856007018581548110611a1b57611a1b613b2d565b90600052602060002001866008018681548110611a3a57611a3a613b2d565b9060005260206000200187600401546040518663ffffffff1660e01b8152600401611a69959493929190613c19565b600060405180830381600087803b158015611a8357600080fd5b505af1158015611a97573d6000803e3d6000fd5b505050508080611aa690613c7b565b915050611995565b506040518281527f789cf55be980739dad1d0699b93b58e806b51c9d96619bfa8fe0a28abaa7b30c906020016108ab565b337fb8e138887d0aa13bab447e82de9d5c1777041ecd21ca36ba824ff1e6c07ddda48383611b0e848383612ce6565b6040805193845260ff90921660208401526001600160601b03169082015260806060820181905260009082015260a00160405180910390a25050565b6000546001600160a01b03163314611bb75760405162461bcd60e51b815260206004820152602a60248201527f4f78576f726b7344414f3a3a5f73657451756f72756d566f7465734250533a2060448201526961646d696e206f6e6c7960b01b60648201526084016107eb565b60c88110158015611bca57506107d08111155b611be65760405162461bcd60e51b81526004016107eb90613d47565b600780549082905560408051828152602081018490527fd73ab1b53ca7a080713bcecd1a0acb2066a6a6c3d2fd6d78b67ae5005e652d9b91016108ab565b337fb8e138887d0aa13bab447e82de9d5c1777041ecd21ca36ba824ff1e6c07ddda48585611c53848383612ce6565b8686604051611c66959493929190613da4565b60405180910390a250505050565b6003546001600160a01b03163314611cda5760405162461bcd60e51b815260206004820152602360248201527f4f78576f726b7344414f3a3a5f7365745665746f65723a207665746f6572206f6044820152626e6c7960e81b60648201526084016107eb565b600354604080516001600160a01b03928316815291831660208301527fc5644f3588a066b15dcf6b636b74aadca57cfaccf608d9de7d8786364b7a8d02910160405180910390a1600380546001600160a01b0319166001600160a01b0392909216919091179055565b6000546001600160a01b03163314611db65760405162461bcd60e51b815260206004820152603060248201527f4f78576f726b7344414f3a3a5f73657450726f706f73616c5468726573686f6c60448201526f644250533a2061646d696e206f6e6c7960801b60648201526084016107eb565b60018110158015611dc957506103e88111155b611de55760405162461bcd60e51b81526004016107eb90613d47565b600680549082905560408051828152602081018490527ffc216faa269bf440fb06aa490693f409461bde9cdcb949c7b9f2cb79589e7a5891016108ab565b6000610d10600654600a60009054906101000a90046001600160a01b03166001600160a01b03166318160ddd6040518163ffffffff1660e01b8152600401602060405180830381865afa158015610cde573d6000803e3d6000fd5b6000546001600160a01b03163314611ee95760405162461bcd60e51b815260206004820152602860248201527f4f78576f726b7344414f3a3a5f73657450656e64696e6741646d696e3a2061646044820152676d696e206f6e6c7960c01b60648201526084016107eb565b600180546001600160a01b038381166001600160a01b031983168117909355604080519190921680825260208201939093527fca4f2f25d0898edd99413412fb94012f9e54ec8142f9b093e7720646a95b16a991016108ab565b6003546001600160a01b03163314611fad5760405162461bcd60e51b815260206004820152602760248201527f4f78576f726b7344414f3a3a5f6275726e5665746f506f7765723a207665746f6044820152666572206f6e6c7960c81b60648201526084016107eb565b611fb76000611c74565b565b6000611fed6040518060a0016040528060008152602001600081526020016000815260200160008152602001600081525090565b600a60009054906101000a90046001600160a01b03166001600160a01b03166318160ddd6040518163ffffffff1660e01b8152600401602060405180830381865afa158015612040573d6000803e3d6000fd5b505050506040513d601f19601f820116820180604052508101906120649190613c96565b6001600160601b031680825260065461207c91612cc6565b60208201819052600a546001600160a01b031663782d6fe1336120a0600143613d30565b6040516001600160e01b031960e085901b1681526001600160a01b0390921660048301526024820152604401602060405180830381865afa1580156120e9573d6000803e3d6000fd5b505050506040513d601f19601f8201168201806040525081019061210d9190613c96565b6001600160601b0316116121895760405162461bcd60e51b815260206004820152603c60248201527f4f78576f726b7344414f3a3a70726f706f73653a2070726f706f73657220766f60448201527f7465732062656c6f772070726f706f73616c207468726573686f6c640000000060648201526084016107eb565b8551875114801561219b575084518751145b80156121a8575083518751145b6122245760405162461bcd60e51b815260206004820152604160248201527f4f78576f726b7344414f3a3a70726f706f73653a2070726f706f73616c20667560448201527f6e6374696f6e20696e666f726d6174696f6e206172697479206d69736d6174636064820152600d60fb1b608482015260a4016107eb565b86516122845760405162461bcd60e51b815260206004820152602960248201527f4f78576f726b7344414f3a3a70726f706f73653a206d7573742070726f7669646044820152686520616374696f6e7360b81b60648201526084016107eb565b600a875111156122e45760405162461bcd60e51b815260206004820152602560248201527f4f78576f726b7344414f3a3a70726f706f73653a20746f6f206d616e7920616360448201526474696f6e7360d81b60648201526084016107eb565b336000908152600c6020526040908190205490820181905215612461576000612310826040015161160b565b9050600181600881111561232657612326613679565b14156123b85760405162461bcd60e51b815260206004820152605560248201527f4f78576f726b7344414f3a3a70726f706f73653a206f6e65206c69766520707260448201527f6f706f73616c207065722070726f706f7365722c20666f756e6420616e20616c6064820152741c9958591e481858dd1a5d99481c1c9bdc1bdcd85b605a1b608482015260a4016107eb565b60008160088111156123cc576123cc613679565b141561245f5760405162461bcd60e51b815260206004820152605660248201527f4f78576f726b7344414f3a3a70726f706f73653a206f6e65206c69766520707260448201527f6f706f73616c207065722070726f706f7365722c20666f756e6420616e20616c6064820152751c9958591e481c195b991a5b99c81c1c9bdc1bdcd85b60521b608482015260a4016107eb565b505b60045461246e9043613d18565b6060820181905260055461248191613d18565b60808201526008805490600061249683613c7b565b90915550506008546000818152600b602090815260409091209182556001820180546001600160a01b03191633179055820151600282015560075482516124dd9190612cc6565b60038201556000600482015587516124fe90600583019060208b0190613181565b50865161251490600683019060208a01906131e6565b50855161252a9060078301906020890190613221565b508451612540906008830190602088019061327a565b506060820151600982019081556080830151600a83019081556000600b8401819055600c808501829055600d8501829055600e8501805462ffffff19169055845460018601546001600160a01b031683526020919091526040918290208190559254915490517f7d84a6263ae0d98d3329bd7b46bb4e8d6f98cd35a7adb45c274c8b7fd5ebd5e0936125e193909233928e928e928e928e9291908e90613df4565b60405180910390a17f6af0134faa0f9290c1d686d55012aca80302d31d5c856e4bc7954f7613dc7f878160000154338a8a8a8a876009015488600a015489600201548a600301548e6040516126409b9a99989796959493929190613e8c565b60405180910390a154979650505050505050565b600461265f8261160b565b600881111561267057612670613679565b146126ed5760405162461bcd60e51b815260206004820152604160248201527f4f78576f726b7344414f3a3a71756575653a2070726f706f73616c2063616e2060448201527f6f6e6c79206265207175657565642069662069742069732073756363656564656064820152601960fa1b608482015260a4016107eb565b6000818152600b602090815260408083206009548251630d48571f60e31b815292519194936001600160a01b0390911692636a42b8f892600480830193928290030181865afa158015612744573d6000803e3d6000fd5b505050506040513d601f19601f820116820180604052508101906127689190613cff565b6127729042613d18565b905060005b600583015481101561293c5761292a83600501828154811061279b5761279b613b2d565b6000918252602090912001546006850180546001600160a01b0390921691849081106127c9576127c9613b2d565b90600052602060002001548560070184815481106127e9576127e9613b2d565b9060005260206000200180546127fe90613b43565b80601f016020809104026020016040519081016040528092919081815260200182805461282a90613b43565b80156128775780601f1061284c57610100808354040283529160200191612877565b820191906000526020600020905b81548152906001019060200180831161285a57829003601f168201915b505050505086600801858154811061289157612891613b2d565b9060005260206000200180546128a690613b43565b80601f01602080910402602001604051908101604052809291908181526020018280546128d290613b43565b801561291f5780601f106128f45761010080835404028352916020019161291f565b820191906000526020600020905b81548152906001019060200180831161290257829003601f168201915b505050505086612fcd565b8061293481613c7b565b915050612777565b506004820181905560408051848152602081018390527f9a2e42fd6722813d69113e7d0079d3d940171428df7373df9c7f7617cfda2892910160405180910390a1505050565b6001546001600160a01b03163314801561299b57503315155b6129fc5760405162461bcd60e51b815260206004820152602c60248201527f4f78576f726b7344414f3a3a5f61636365707441646d696e3a2070656e64696e60448201526b672061646d696e206f6e6c7960a01b60648201526084016107eb565b60008054600180546001600160a01b038082166001600160a01b031980861682179096559490911690915560408051919092168082526020820184905292917ff9ffabca9c8276e99321725bcb43fb076a6c66a54b7f21c4e8146d8519b417dc910160405180910390a1600154604080516001600160a01b03808516825290921660208301527fca4f2f25d0898edd99413412fb94012f9e54ec8142f9b093e7720646a95b16a991016108ab565b6005612ab58261160b565b6008811115612ac657612ac6613679565b14612b445760405162461bcd60e51b815260206004820152604260248201527f4f78576f726b7344414f3a3a657865637574653a2070726f706f73616c20636160448201527f6e206f6e6c792062652065786563757465642069662069742069732071756575606482015261195960f21b608482015260a4016107eb565b6000818152600b60205260408120600e8101805462ff0000191662010000179055905b6005820154811015612c95576009546005830180546001600160a01b0390921691630825f38f919084908110612b9f57612b9f613b2d565b6000918252602090912001546006850180546001600160a01b039092169185908110612bcd57612bcd613b2d565b9060005260206000200154856007018581548110612bed57612bed613b2d565b90600052602060002001866008018681548110612c0c57612c0c613b2d565b9060005260206000200187600401546040518663ffffffff1660e01b8152600401612c3b959493929190613c19565b6000604051808303816000875af1158015612c5a573d6000803e3d6000fd5b505050506040513d6000823e601f3d908101601f19168201604052612c829190810190613f34565b5080612c8d81613c7b565b915050612b67565b506040518281527f712ae1383f79ac853f8d882153778e0260ef8f03b504e2866e0593e04d2b291f906020016108ab565b6000612710612cd58484613fab565b612cdf9190613fca565b9392505050565b60006001612cf38461160b565b6008811115612d0457612d04613679565b14612d685760405162461bcd60e51b815260206004820152602e60248201527f4f78576f726b7344414f3a3a63617374566f7465496e7465726e616c3a20766f60448201526d1d1a5b99c81a5cc818db1bdcd95960921b60648201526084016107eb565b60028260ff161115612dd45760405162461bcd60e51b815260206004820152602f60248201527f4f78576f726b7344414f3a3a63617374566f7465496e7465726e616c3a20696e60448201526e76616c696420766f7465207479706560881b60648201526084016107eb565b6000838152600b602090815260408083206001600160a01b0388168452600f8101909252909120805460ff1615612e675760405162461bcd60e51b815260206004820152603160248201527f4f78576f726b7344414f3a3a63617374566f7465496e7465726e616c3a20766f6044820152701d195c88185b1c9958591e481d9bdd1959607a1b60648201526084016107eb565b600a5460045460098401546000926001600160a01b03169163782d6fe1918a91612e9091613d30565b6040516001600160e01b031960e085901b1681526001600160a01b0390921660048301526024820152604401602060405180830381865afa158015612ed9573d6000803e3d6000fd5b505050506040513d601f19601f82011682018060405250810190612efd9190613c96565b905060ff8516612f2a57806001600160601b031683600c0154612f209190613d18565b600c840155612f84565b8460ff1660011415612f5957806001600160601b031683600b0154612f4f9190613d18565b600b840155612f84565b8460ff1660021415612f8457806001600160601b031683600d0154612f7e9190613d18565b600d8401555b81546001600160601b03821662010000026dffffffffffffffffffffffff00001960ff88166101000261ffff199093169290921760011791909116179091559150509392505050565b6009546040516001600160a01b039091169063f2b0653790612ffb9088908890889088908890602001613fec565b604051602081830303815290604052805190602001206040518263ffffffff1660e01b815260040161302f91815260200190565b602060405180830381865afa15801561304c573d6000803e3d6000fd5b505050506040513d601f19601f820116820180604052508101906130709190614025565b156130fe5760405162461bcd60e51b815260206004820152605260248201527f4f78576f726b7344414f3a3a71756575654f72526576657274496e7465726e6160448201527f6c3a206964656e746963616c2070726f706f73616c20616374696f6e20616c7260648201527165616479207175657565642061742065746160701b608482015260a4016107eb565b600954604051633a66f90160e01b81526001600160a01b0390911690633a66f901906131369088908890889088908890600401613fec565b6020604051808303816000875af1158015613155573d6000803e3d6000fd5b505050506040513d601f19601f820116820180604052508101906131799190613cff565b505050505050565b8280548282559060005260206000209081019282156131d6579160200282015b828111156131d657825182546001600160a01b0319166001600160a01b039091161782556020909201916001909101906131a1565b506131e29291506132d3565b5090565b8280548282559060005260206000209081019282156131d6579160200282015b828111156131d6578251825591602001919060010190613206565b82805482825590600052602060002090810192821561326e579160200282015b8281111561326e578251805161325e9184916020909101906132e8565b5091602001919060010190613241565b506131e292915061335b565b8280548282559060005260206000209081019282156132c7579160200282015b828111156132c757825180516132b79184916020909101906132e8565b509160200191906001019061329a565b506131e2929150613378565b5b808211156131e257600081556001016132d4565b8280546132f490613b43565b90600052602060002090601f01602090048101928261331657600085556131d6565b82601f1061332f57805160ff19168380011785556131d6565b828001600101855582156131d657918201828111156131d6578251825591602001919060010190613206565b808211156131e257600061336f8282613395565b5060010161335b565b808211156131e257600061338c8282613395565b50600101613378565b5080546133a190613b43565b6000825580601f106133b1575050565b601f0160209004906000526020600020908101906133cf91906132d3565b50565b6000602082840312156133e457600080fd5b5035919050565b60005b838110156134065781810151838201526020016133ee565b83811115613415576000848401525b50505050565b600081518084526134338160208601602086016133eb565b601f01601f19169290920160200192915050565b602081526000612cdf602083018461341b565b80356001600160a01b038116811461347157600080fd5b919050565b60006020828403121561348857600080fd5b612cdf8261345a565b600080600080600080600060e0888a0312156134ac57600080fd5b6134b58861345a565b96506134c36020890161345a565b95506134d16040890161345a565b969995985095966060810135965060808101359560a0820135955060c0909101359350915050565b600081518084526020808501945080840160005b838110156135325781516001600160a01b03168752958201959082019060010161350d565b509495945050505050565b600081518084526020808501945080840160005b8381101561353257815187529582019590820190600101613551565b600081518084526020808501808196508360051b8101915082860160005b858110156135b55782840389526135a384835161341b565b9885019893509084019060010161358b565b5091979650505050505050565b6080815260006135d560808301876134f9565b82810360208401526135e7818761353d565b905082810360408401526135fb818661356d565b9050828103606084015261360f818561356d565b979650505050505050565b803560ff8116811461347157600080fd5b600080600080600060a0868803121561364357600080fd5b853594506136536020870161361a565b93506136616040870161361a565b94979396509394606081013594506080013592915050565b634e487b7160e01b600052602160045260246000fd5b60208101600983106136b157634e487b7160e01b600052602160045260246000fd5b91905290565b600080604083850312156136ca57600080fd5b823591506136da6020840161361a565b90509250929050565b600080600080606085870312156136f957600080fd5b843593506137096020860161361a565b9250604085013567ffffffffffffffff8082111561372657600080fd5b818701915087601f83011261373a57600080fd5b81358181111561374957600080fd5b88602082850101111561375b57600080fd5b95989497505060200194505050565b634e487b7160e01b600052604160045260246000fd5b604051601f8201601f1916810167ffffffffffffffff811182821017156137a9576137a961376a565b604052919050565b600067ffffffffffffffff8211156137cb576137cb61376a565b5060051b60200190565b600082601f8301126137e657600080fd5b813560206137fb6137f6836137b1565b613780565b82815260059290921b8401810191818101908684111561381a57600080fd5b8286015b8481101561383c5761382f8161345a565b835291830191830161381e565b509695505050505050565b600082601f83011261385857600080fd5b813560206138686137f6836137b1565b82815260059290921b8401810191818101908684111561388757600080fd5b8286015b8481101561383c578035835291830191830161388b565b600067ffffffffffffffff8211156138bc576138bc61376a565b50601f01601f191660200190565b60006138d86137f6846138a2565b90508281528383830111156138ec57600080fd5b828260208301376000602084830101529392505050565b600082601f83011261391457600080fd5b612cdf838335602085016138ca565b600082601f83011261393457600080fd5b813560206139446137f6836137b1565b82815260059290921b8401810191818101908684111561396357600080fd5b8286015b8481101561383c57803567ffffffffffffffff8111156139875760008081fd5b6139958986838b0101613903565b845250918301918301613967565b600082601f8301126139b457600080fd5b813560206139c46137f6836137b1565b82815260059290921b840181019181810190868411156139e357600080fd5b8286015b8481101561383c57803567ffffffffffffffff811115613a075760008081fd5b8701603f81018913613a195760008081fd5b613a2a8986830135604084016138ca565b8452509183019183016139e7565b600080600080600060a08688031215613a5057600080fd5b853567ffffffffffffffff80821115613a6857600080fd5b613a7489838a016137d5565b96506020880135915080821115613a8a57600080fd5b613a9689838a01613847565b95506040880135915080821115613aac57600080fd5b613ab889838a01613923565b94506060880135915080821115613ace57600080fd5b613ada89838a016139a3565b93506080880135915080821115613af057600080fd5b50613afd88828901613903565b9150509295509295909350565b60008060408385031215613b1d57600080fd5b823591506136da6020840161345a565b634e487b7160e01b600052603260045260246000fd5b600181811c90821680613b5757607f821691505b602082108114156117cd57634e487b7160e01b600052602260045260246000fd5b8054600090600181811c9080831680613b9257607f831692505b6020808410821415613bb457634e487b7160e01b600052602260045260246000fd5b838852818015613bcb5760018114613bdf57613c0d565b60ff19861689830152604089019650613c0d565b876000528160002060005b86811015613c055781548b8201850152908501908301613bea565b8a0183019750505b50505050505092915050565b60018060a01b038616815284602082015260a060408201526000613c4060a0830186613b78565b8281036060840152613c528186613b78565b9150508260808301529695505050505050565b634e487b7160e01b600052601160045260246000fd5b6000600019821415613c8f57613c8f613c65565b5060010190565b600060208284031215613ca857600080fd5b81516001600160601b0381168114612cdf57600080fd5b60208082526032908201526000805160206140488339815191526040820152711c1c9bdc1bdcd85b081d1a1c995cda1bdb1960721b606082015260800190565b600060208284031215613d1157600080fd5b5051919050565b60008219821115613d2b57613d2b613c65565b500190565b600082821015613d4257613d42613c65565b500390565b6020808252603d908201527f4f78576f726b7344414f3a3a5f73657450726f706f73616c5468726573686f6c60408201527f643a20696e76616c69642070726f706f73616c207468726573686f6c64000000606082015260800190565b85815260ff851660208201526001600160601b038416604082015260806060820152816080820152818360a0830137600081830160a090810191909152601f909201601f19160101949350505050565b8981526001600160a01b038916602082015261012060408201819052600090613e1f8382018b6134f9565b90508281036060840152613e33818a61353d565b90508281036080840152613e47818961356d565b905082810360a0840152613e5b818861356d565b90508560c08401528460e0840152828103610100840152613e7c818561341b565b9c9b505050505050505050505050565b8b81526001600160a01b038b16602082015261016060408201819052600090613eb78382018d6134f9565b90508281036060840152613ecb818c61353d565b90508281036080840152613edf818b61356d565b905082810360a0840152613ef3818a61356d565b90508760c08401528660e08401528561010084015284610120840152828103610140840152613f22818561341b565b9e9d5050505050505050505050505050565b600060208284031215613f4657600080fd5b815167ffffffffffffffff811115613f5d57600080fd5b8201601f81018413613f6e57600080fd5b8051613f7c6137f6826138a2565b818152856020838501011115613f9157600080fd5b613fa28260208301602086016133eb565b95945050505050565b6000816000190483118215151615613fc557613fc5613c65565b500290565b600082613fe757634e487b7160e01b600052601260045260246000fd5b500490565b60018060a01b038616815284602082015260a06040820152600061401360a083018661341b565b8281036060840152613c52818661341b565b60006020828403121561403757600080fd5b81518015158114612cdf57600080fdfe4f78576f726b7344414f3a3a696e697469616c697a653a20696e76616c696420a264697066735822122049e6d26207b3999d035ea685a38154e2e372500e3f55334e30e705e42c5ac4ff64736f6c634300080b0033",
			"opcodes": "PUSH1 0x80 PUSH1 0x40 MSTORE CALLVALUE DUP1 ISZERO PUSH2 0x10 JUMPI PUSH1 0x0 DUP1 REVERT JUMPDEST POP PUSH2 0x409D DUP1 PUSH2 0x20 PUSH1 0x0 CODECOPY PUSH1 0x0 RETURN INVALID PUSH1 0x80 PUSH1 0x40 MSTORE CALLVALUE DUP1 ISZERO PUSH2 0x10 JUMPI PUSH1 0x0 DUP1 REVERT JUMPDEST POP PUSH1 0x4 CALLDATASIZE LT PUSH2 0x295 JUMPI PUSH1 0x0 CALLDATALOAD PUSH1 0xE0 SHR DUP1 PUSH4 0x7B3C71D3 GT PUSH2 0x167 JUMPI DUP1 PUSH4 0xD33219B4 GT PUSH2 0xCE JUMPI DUP1 PUSH4 0xE23A9A52 GT PUSH2 0x87 JUMPI DUP1 PUSH4 0xE23A9A52 EQ PUSH2 0x686 JUMPI DUP1 PUSH4 0xE48083FE EQ PUSH2 0x602 JUMPI DUP1 PUSH4 0xE9C714F2 EQ PUSH2 0x743 JUMPI DUP1 PUSH4 0xF851A440 EQ PUSH2 0x74B JUMPI DUP1 PUSH4 0xFC3A320E EQ PUSH2 0x75E JUMPI DUP1 PUSH4 0xFE0D94C1 EQ PUSH2 0x771 JUMPI PUSH1 0x0 DUP1 REVERT JUMPDEST DUP1 PUSH4 0xD33219B4 EQ PUSH2 0x60A JUMPI DUP1 PUSH4 0xD8BFF440 EQ PUSH2 0x61D JUMPI DUP1 PUSH4 0xDA35C664 EQ PUSH2 0x630 JUMPI DUP1 PUSH4 0xDA95691A EQ PUSH2 0x639 JUMPI DUP1 PUSH4 0xDDF0B009 EQ PUSH2 0x64C JUMPI DUP1 PUSH4 0xDEAAA7CC EQ PUSH2 0x65F JUMPI PUSH1 0x0 DUP1 REVERT JUMPDEST DUP1 PUSH4 0xB1126263 GT PUSH2 0x120 JUMPI DUP1 PUSH4 0xB1126263 EQ PUSH2 0x5CD JUMPI DUP1 PUSH4 0xB58131B0 EQ PUSH2 0x5D6 JUMPI DUP1 PUSH4 0xB71D1A0C EQ PUSH2 0x5DE JUMPI DUP1 PUSH4 0xBB677582 EQ PUSH2 0x5F1 JUMPI DUP1 PUSH4 0xBF7A2963 EQ PUSH2 0x5FA JUMPI DUP1 PUSH4 0xC82FBD08 EQ PUSH2 0x602 JUMPI PUSH1 0x0 DUP1 REVERT JUMPDEST DUP1 PUSH4 0x7B3C71D3 EQ PUSH2 0x579 JUMPI DUP1 PUSH4 0x7BDBE4D0 EQ PUSH2 0x58C JUMPI DUP1 PUSH4 0x83CCE0E1 EQ PUSH2 0x594 JUMPI DUP1 PUSH4 0x96300B7D EQ PUSH2 0x59D JUMPI DUP1 PUSH4 0x97D048E5 EQ PUSH2 0x5B0 JUMPI DUP1 PUSH4 0xA64E024A EQ PUSH2 0x5C3 JUMPI PUSH1 0x0 DUP1 REVERT JUMPDEST DUP1 PUSH4 0x2230E155 GT PUSH2 0x20B JUMPI DUP1 PUSH4 0x3BCCF4FD GT PUSH2 0x1C4 JUMPI DUP1 PUSH4 0x3BCCF4FD EQ PUSH2 0x4FA JUMPI DUP1 PUSH4 0x3E4F49E6 EQ PUSH2 0x50D JUMPI DUP1 PUSH4 0x40E58EE5 EQ PUSH2 0x52D JUMPI DUP1 PUSH4 0x56781388 EQ PUSH2 0x540 JUMPI DUP1 PUSH4 0x5C60DA1B EQ PUSH2 0x553 JUMPI DUP1 PUSH4 0x6F3EFF28 EQ PUSH2 0x566 JUMPI PUSH1 0x0 DUP1 REVERT JUMPDEST DUP1 PUSH4 0x2230E155 EQ PUSH2 0x480 JUMPI DUP1 PUSH4 0x24BC1A64 EQ PUSH2 0x488 JUMPI DUP1 PUSH4 0x26782247 EQ PUSH2 0x490 JUMPI DUP1 PUSH4 0x2B4656C8 EQ PUSH2 0x4BB JUMPI DUP1 PUSH4 0x328DD982 EQ PUSH2 0x4CE JUMPI DUP1 PUSH4 0x3932ABB1 EQ PUSH2 0x4F1 JUMPI PUSH1 0x0 DUP1 REVERT JUMPDEST DUP1 PUSH4 0x17977C61 GT PUSH2 0x25D JUMPI DUP1 PUSH4 0x17977C61 EQ PUSH2 0x401 JUMPI DUP1 PUSH4 0x1D28DEC7 EQ PUSH2 0x421 JUMPI DUP1 PUSH4 0x1DFB1B5A EQ PUSH2 0x434 JUMPI DUP1 PUSH4 0x1E7B5D3A EQ PUSH2 0x447 JUMPI DUP1 PUSH4 0x20606B70 EQ PUSH2 0x450 JUMPI DUP1 PUSH4 0x215809CA EQ PUSH2 0x477 JUMPI PUSH1 0x0 DUP1 REVERT JUMPDEST DUP1 PUSH4 0x13CF08B EQ PUSH2 0x29A JUMPI DUP1 PUSH4 0x2A251A3 EQ PUSH2 0x395 JUMPI DUP1 PUSH4 0x6FDDE03 EQ PUSH2 0x3AC JUMPI DUP1 PUSH4 0xEA2D98C EQ PUSH2 0x3E3 JUMPI DUP1 PUSH4 0x14A67EA4 EQ PUSH2 0x3F8 JUMPI JUMPDEST PUSH1 0x0 DUP1 REVERT JUMPDEST PUSH2 0x320 PUSH2 0x2A8 CALLDATASIZE PUSH1 0x4 PUSH2 0x33D2 JUMP JUMPDEST PUSH1 0xB PUSH1 0x20 DUP2 SWAP1 MSTORE PUSH1 0x0 SWAP2 DUP3 MSTORE PUSH1 0x40 SWAP1 SWAP2 KECCAK256 DUP1 SLOAD PUSH1 0x1 DUP3 ADD SLOAD PUSH1 0x2 DUP4 ADD SLOAD PUSH1 0x3 DUP5 ADD SLOAD PUSH1 0x4 DUP6 ADD SLOAD PUSH1 0x9 DUP7 ADD SLOAD PUSH1 0xA DUP8 ADD SLOAD SWAP8 DUP8 ADD SLOAD PUSH1 0xC DUP9 ADD SLOAD PUSH1 0xD DUP10 ADD SLOAD PUSH1 0xE SWAP1 SWAP10 ADD SLOAD SWAP8 SWAP10 PUSH1 0x1 PUSH1 0x1 PUSH1 0xA0 SHL SUB SWAP1 SWAP8 AND SWAP9 SWAP6 SWAP8 SWAP5 SWAP7 SWAP4 SWAP6 SWAP3 SWAP5 SWAP2 SWAP3 SWAP1 SWAP2 PUSH1 0xFF DUP1 DUP3 AND SWAP2 PUSH2 0x100 DUP2 DIV DUP3 AND SWAP2 PUSH3 0x10000 SWAP1 SWAP2 DIV AND DUP14 JUMP JUMPDEST PUSH1 0x40 DUP1 MLOAD SWAP14 DUP15 MSTORE PUSH1 0x1 PUSH1 0x1 PUSH1 0xA0 SHL SUB SWAP1 SWAP13 AND PUSH1 0x20 DUP15 ADD MSTORE SWAP11 DUP13 ADD SWAP10 SWAP1 SWAP10 MSTORE PUSH1 0x60 DUP12 ADD SWAP8 SWAP1 SWAP8 MSTORE PUSH1 0x80 DUP11 ADD SWAP6 SWAP1 SWAP6 MSTORE PUSH1 0xA0 DUP10 ADD SWAP4 SWAP1 SWAP4 MSTORE PUSH1 0xC0 DUP9 ADD SWAP2 SWAP1 SWAP2 MSTORE PUSH1 0xE0 DUP8 ADD MSTORE PUSH2 0x100 DUP7 ADD MSTORE PUSH2 0x120 DUP6 ADD MSTORE ISZERO ISZERO PUSH2 0x140 DUP5 ADD MSTORE ISZERO ISZERO PUSH2 0x160 DUP4 ADD MSTORE ISZERO ISZERO PUSH2 0x180 DUP3 ADD MSTORE PUSH2 0x1A0 ADD JUMPDEST PUSH1 0x40 MLOAD DUP1 SWAP2 SUB SWAP1 RETURN JUMPDEST PUSH2 0x39E PUSH1 0x5 SLOAD DUP2 JUMP JUMPDEST PUSH1 0x40 MLOAD SWAP1 DUP2 MSTORE PUSH1 0x20 ADD PUSH2 0x38C JUMP JUMPDEST PUSH2 0x3D6 PUSH1 0x40 MLOAD DUP1 PUSH1 0x40 ADD PUSH1 0x40 MSTORE DUP1 PUSH1 0xB DUP2 MSTORE PUSH1 0x20 ADD PUSH11 0x4F78576F726B732044414F PUSH1 0xA8 SHL DUP2 MSTORE POP DUP2 JUMP JUMPDEST PUSH1 0x40 MLOAD PUSH2 0x38C SWAP2 SWAP1 PUSH2 0x3447 JUMP JUMPDEST PUSH2 0x3F6 PUSH2 0x3F1 CALLDATASIZE PUSH1 0x4 PUSH2 0x33D2 JUMP JUMPDEST PUSH2 0x784 JUMP JUMPDEST STOP JUMPDEST PUSH2 0x39E PUSH1 0x6 SLOAD DUP2 JUMP JUMPDEST PUSH2 0x39E PUSH2 0x40F CALLDATASIZE PUSH1 0x4 PUSH2 0x3476 JUMP JUMPDEST PUSH1 0xC PUSH1 0x20 MSTORE PUSH1 0x0 SWAP1 DUP2 MSTORE PUSH1 0x40 SWAP1 KECCAK256 SLOAD DUP2 JUMP JUMPDEST PUSH2 0x3F6 PUSH2 0x42F CALLDATASIZE PUSH1 0x4 PUSH2 0x33D2 JUMP JUMPDEST PUSH2 0x8B7 JUMP JUMPDEST PUSH2 0x3F6 PUSH2 0x442 CALLDATASIZE PUSH1 0x4 PUSH2 0x33D2 JUMP JUMPDEST PUSH2 0xB62 JUMP JUMPDEST PUSH2 0x39E PUSH2 0x3E8 DUP2 JUMP JUMPDEST PUSH2 0x39E PUSH32 0x8CAD95687BA82C2CE50E74F7B754645E5117C3A5BEC8151C0726D5857980A866 DUP2 JUMP JUMPDEST PUSH2 0x39E PUSH2 0x1680 DUP2 JUMP JUMPDEST PUSH2 0x39E PUSH1 0xC8 DUP2 JUMP JUMPDEST PUSH2 0x39E PUSH2 0xC83 JUMP JUMPDEST PUSH1 0x1 SLOAD PUSH2 0x4A3 SWAP1 PUSH1 0x1 PUSH1 0x1 PUSH1 0xA0 SHL SUB AND DUP2 JUMP JUMPDEST PUSH1 0x40 MLOAD PUSH1 0x1 PUSH1 0x1 PUSH1 0xA0 SHL SUB SWAP1 SWAP2 AND DUP2 MSTORE PUSH1 0x20 ADD PUSH2 0x38C JUMP JUMPDEST PUSH2 0x3F6 PUSH2 0x4C9 CALLDATASIZE PUSH1 0x4 PUSH2 0x3491 JUMP JUMPDEST PUSH2 0xD15 JUMP JUMPDEST PUSH2 0x4E1 PUSH2 0x4DC CALLDATASIZE PUSH1 0x4 PUSH2 0x33D2 JUMP JUMPDEST PUSH2 0x110C JUMP JUMPDEST PUSH1 0x40 MLOAD PUSH2 0x38C SWAP5 SWAP4 SWAP3 SWAP2 SWAP1 PUSH2 0x35C2 JUMP JUMPDEST PUSH2 0x39E PUSH1 0x4 SLOAD DUP2 JUMP JUMPDEST PUSH2 0x3F6 PUSH2 0x508 CALLDATASIZE PUSH1 0x4 PUSH2 0x362B JUMP JUMPDEST PUSH2 0x139D JUMP JUMPDEST PUSH2 0x520 PUSH2 0x51B CALLDATASIZE PUSH1 0x4 PUSH2 0x33D2 JUMP JUMPDEST PUSH2 0x160B JUMP JUMPDEST PUSH1 0x40 MLOAD PUSH2 0x38C SWAP2 SWAP1 PUSH2 0x368F JUMP JUMPDEST PUSH2 0x3F6 PUSH2 0x53B CALLDATASIZE PUSH1 0x4 PUSH2 0x33D2 JUMP JUMPDEST PUSH2 0x17D3 JUMP JUMPDEST PUSH2 0x3F6 PUSH2 0x54E CALLDATASIZE PUSH1 0x4 PUSH2 0x36B7 JUMP JUMPDEST PUSH2 0x1ADF JUMP JUMPDEST PUSH1 0x2 SLOAD PUSH2 0x4A3 SWAP1 PUSH1 0x1 PUSH1 0x1 PUSH1 0xA0 SHL SUB AND DUP2 JUMP JUMPDEST PUSH2 0x3F6 PUSH2 0x574 CALLDATASIZE PUSH1 0x4 PUSH2 0x33D2 JUMP JUMPDEST PUSH2 0x1B4A JUMP JUMPDEST PUSH2 0x3F6 PUSH2 0x587 CALLDATASIZE PUSH1 0x4 PUSH2 0x36E3 JUMP JUMPDEST PUSH2 0x1C24 JUMP JUMPDEST PUSH2 0x39E PUSH1 0xA DUP2 JUMP JUMPDEST PUSH2 0x39E PUSH1 0x7 SLOAD DUP2 JUMP JUMPDEST PUSH2 0x3F6 PUSH2 0x5AB CALLDATASIZE PUSH1 0x4 PUSH2 0x3476 JUMP JUMPDEST PUSH2 0x1C74 JUMP JUMPDEST PUSH2 0x3F6 PUSH2 0x5BE CALLDATASIZE PUSH1 0x4 PUSH2 0x33D2 JUMP JUMPDEST PUSH2 0x1D43 JUMP JUMPDEST PUSH2 0x39E PUSH3 0x13B00 DUP2 JUMP JUMPDEST PUSH2 0x39E PUSH2 0x9D80 DUP2 JUMP JUMPDEST PUSH2 0x39E PUSH2 0x1E23 JUMP JUMPDEST PUSH2 0x3F6 PUSH2 0x5EC CALLDATASIZE PUSH1 0x4 PUSH2 0x3476 JUMP JUMPDEST PUSH2 0x1E7E JUMP JUMPDEST PUSH2 0x39E PUSH2 0x7D0 DUP2 JUMP JUMPDEST PUSH2 0x3F6 PUSH2 0x1F43 JUMP JUMPDEST PUSH2 0x39E PUSH1 0x1 DUP2 JUMP JUMPDEST PUSH1 0x9 SLOAD PUSH2 0x4A3 SWAP1 PUSH1 0x1 PUSH1 0x1 PUSH1 0xA0 SHL SUB AND DUP2 JUMP JUMPDEST PUSH1 0x3 SLOAD PUSH2 0x4A3 SWAP1 PUSH1 0x1 PUSH1 0x1 PUSH1 0xA0 SHL SUB AND DUP2 JUMP JUMPDEST PUSH2 0x39E PUSH1 0x8 SLOAD DUP2 JUMP JUMPDEST PUSH2 0x39E PUSH2 0x647 CALLDATASIZE PUSH1 0x4 PUSH2 0x3A38 JUMP JUMPDEST PUSH2 0x1FB9 JUMP JUMPDEST PUSH2 0x3F6 PUSH2 0x65A CALLDATASIZE PUSH1 0x4 PUSH2 0x33D2 JUMP JUMPDEST PUSH2 0x2654 JUMP JUMPDEST PUSH2 0x39E PUSH32 0x150214D74D59B7D1E90C73FC22EF3D991DD0A76B046543D4D80AB92D2A50328F DUP2 JUMP JUMPDEST PUSH2 0x713 PUSH2 0x694 CALLDATASIZE PUSH1 0x4 PUSH2 0x3B0A JUMP JUMPDEST PUSH1 0x40 DUP1 MLOAD PUSH1 0x60 DUP2 ADD DUP3 MSTORE PUSH1 0x0 DUP1 DUP3 MSTORE PUSH1 0x20 DUP3 ADD DUP2 SWAP1 MSTORE SWAP2 DUP2 ADD SWAP2 SWAP1 SWAP2 MSTORE POP PUSH1 0x0 SWAP2 DUP3 MSTORE PUSH1 0xB PUSH1 0x20 SWAP1 DUP2 MSTORE PUSH1 0x40 DUP1 DUP5 KECCAK256 PUSH1 0x1 PUSH1 0x1 PUSH1 0xA0 SHL SUB SWAP4 SWAP1 SWAP4 AND DUP5 MSTORE PUSH1 0xF SWAP1 SWAP3 ADD DUP2 MSTORE SWAP2 DUP2 SWAP1 KECCAK256 DUP2 MLOAD PUSH1 0x60 DUP2 ADD DUP4 MSTORE SWAP1 SLOAD PUSH1 0xFF DUP1 DUP3 AND ISZERO ISZERO DUP4 MSTORE PUSH2 0x100 DUP3 DIV AND SWAP4 DUP3 ADD SWAP4 SWAP1 SWAP4 MSTORE PUSH3 0x10000 SWAP1 SWAP3 DIV PUSH1 0x1 PUSH1 0x1 PUSH1 0x60 SHL SUB AND SWAP1 DUP3 ADD MSTORE SWAP1 JUMP JUMPDEST PUSH1 0x40 DUP1 MLOAD DUP3 MLOAD ISZERO ISZERO DUP2 MSTORE PUSH1 0x20 DUP1 DUP5 ADD MLOAD PUSH1 0xFF AND SWAP1 DUP3 ADD MSTORE SWAP2 DUP2 ADD MLOAD PUSH1 0x1 PUSH1 0x1 PUSH1 0x60 SHL SUB AND SWAP1 DUP3 ADD MSTORE PUSH1 0x60 ADD PUSH2 0x38C JUMP JUMPDEST PUSH2 0x3F6 PUSH2 0x2982 JUMP JUMPDEST PUSH1 0x0 SLOAD PUSH2 0x4A3 SWAP1 PUSH1 0x1 PUSH1 0x1 PUSH1 0xA0 SHL SUB AND DUP2 JUMP JUMPDEST PUSH1 0xA SLOAD PUSH2 0x4A3 SWAP1 PUSH1 0x1 PUSH1 0x1 PUSH1 0xA0 SHL SUB AND DUP2 JUMP JUMPDEST PUSH2 0x3F6 PUSH2 0x77F CALLDATASIZE PUSH1 0x4 PUSH2 0x33D2 JUMP JUMPDEST PUSH2 0x2AAA JUMP JUMPDEST PUSH1 0x0 SLOAD PUSH1 0x1 PUSH1 0x1 PUSH1 0xA0 SHL SUB AND CALLER EQ PUSH2 0x7F4 JUMPI PUSH1 0x40 MLOAD PUSH3 0x461BCD PUSH1 0xE5 SHL DUP2 MSTORE PUSH1 0x20 PUSH1 0x4 DUP3 ADD MSTORE PUSH1 0x28 PUSH1 0x24 DUP3 ADD MSTORE PUSH32 0x4F78576F726B7344414F3A3A5F736574566F74696E67506572696F643A206164 PUSH1 0x44 DUP3 ADD MSTORE PUSH8 0x6D696E206F6E6C79 PUSH1 0xC0 SHL PUSH1 0x64 DUP3 ADD MSTORE PUSH1 0x84 ADD JUMPDEST PUSH1 0x40 MLOAD DUP1 SWAP2 SUB SWAP1 REVERT JUMPDEST PUSH2 0x1680 DUP2 LT ISZERO DUP1 ISZERO PUSH2 0x809 JUMPI POP PUSH3 0x13B00 DUP2 GT ISZERO JUMPDEST PUSH2 0x871 JUMPI PUSH1 0x40 MLOAD PUSH3 0x461BCD PUSH1 0xE5 SHL DUP2 MSTORE PUSH1 0x20 PUSH1 0x4 DUP3 ADD MSTORE PUSH1 0x33 PUSH1 0x24 DUP3 ADD MSTORE PUSH32 0x4F78576F726B7344414F3A3A5F736574566F74696E67506572696F643A20696E PUSH1 0x44 DUP3 ADD MSTORE PUSH19 0x1D985B1A59081D9BDD1A5B99C81C195C9A5BD9 PUSH1 0x6A SHL PUSH1 0x64 DUP3 ADD MSTORE PUSH1 0x84 ADD PUSH2 0x7EB JUMP JUMPDEST PUSH1 0x5 DUP1 SLOAD SWAP1 DUP3 SWAP1 SSTORE PUSH1 0x40 DUP1 MLOAD DUP3 DUP2 MSTORE PUSH1 0x20 DUP2 ADD DUP5 SWAP1 MSTORE PUSH32 0x7E3F7F0708A84DE9203036ABAA450DCCC85AD5FF52F78C170F3EDB55CF5E8828 SWAP2 ADD JUMPDEST PUSH1 0x40 MLOAD DUP1 SWAP2 SUB SWAP1 LOG1 POP POP JUMP JUMPDEST PUSH1 0x3 SLOAD PUSH1 0x1 PUSH1 0x1 PUSH1 0xA0 SHL SUB AND PUSH2 0x91B JUMPI PUSH1 0x40 MLOAD PUSH3 0x461BCD PUSH1 0xE5 SHL DUP2 MSTORE PUSH1 0x20 PUSH1 0x4 DUP3 ADD MSTORE PUSH1 0x23 PUSH1 0x24 DUP3 ADD MSTORE PUSH32 0x4F78576F726B7344414F3A3A7665746F3A207665746F20706F77657220627572 PUSH1 0x44 DUP3 ADD MSTORE PUSH3 0x1B9959 PUSH1 0xEA SHL PUSH1 0x64 DUP3 ADD MSTORE PUSH1 0x84 ADD PUSH2 0x7EB JUMP JUMPDEST PUSH1 0x3 SLOAD PUSH1 0x1 PUSH1 0x1 PUSH1 0xA0 SHL SUB AND CALLER EQ PUSH2 0x975 JUMPI PUSH1 0x40 MLOAD PUSH3 0x461BCD PUSH1 0xE5 SHL DUP2 MSTORE PUSH1 0x20 PUSH1 0x4 DUP3 ADD MSTORE PUSH1 0x1D PUSH1 0x24 DUP3 ADD MSTORE PUSH32 0x4F78576F726B7344414F3A3A7665746F3A206F6E6C79207665746F6572000000 PUSH1 0x44 DUP3 ADD MSTORE PUSH1 0x64 ADD PUSH2 0x7EB JUMP JUMPDEST PUSH1 0x7 PUSH2 0x980 DUP3 PUSH2 0x160B JUMP JUMPDEST PUSH1 0x8 DUP2 GT ISZERO PUSH2 0x991 JUMPI PUSH2 0x991 PUSH2 0x3679 JUMP JUMPDEST EQ ISZERO PUSH2 0x9F7 JUMPI PUSH1 0x40 MLOAD PUSH3 0x461BCD PUSH1 0xE5 SHL DUP2 MSTORE PUSH1 0x20 PUSH1 0x4 DUP3 ADD MSTORE PUSH1 0x2F PUSH1 0x24 DUP3 ADD MSTORE PUSH32 0x4F78576F726B7344414F3A3A7665746F3A2063616E6E6F74207665746F206578 PUSH1 0x44 DUP3 ADD MSTORE PUSH15 0x1958DD5D1959081C1C9BDC1BDCD85B PUSH1 0x8A SHL PUSH1 0x64 DUP3 ADD MSTORE PUSH1 0x84 ADD PUSH2 0x7EB JUMP JUMPDEST PUSH1 0x0 DUP2 DUP2 MSTORE PUSH1 0xB PUSH1 0x20 MSTORE PUSH1 0x40 DUP2 KECCAK256 PUSH1 0xE DUP2 ADD DUP1 SLOAD PUSH2 0xFF00 NOT AND PUSH2 0x100 OR SWAP1 SSTORE SWAP1 JUMPDEST PUSH1 0x5 DUP3 ADD SLOAD DUP2 LT ISZERO PUSH2 0xB31 JUMPI PUSH1 0x9 SLOAD PUSH1 0x5 DUP4 ADD DUP1 SLOAD PUSH1 0x1 PUSH1 0x1 PUSH1 0xA0 SHL SUB SWAP1 SWAP3 AND SWAP2 PUSH4 0x591FCDFE SWAP2 SWAP1 DUP5 SWAP1 DUP2 LT PUSH2 0xA50 JUMPI PUSH2 0xA50 PUSH2 0x3B2D JUMP JUMPDEST PUSH1 0x0 SWAP2 DUP3 MSTORE PUSH1 0x20 SWAP1 SWAP2 KECCAK256 ADD SLOAD PUSH1 0x6 DUP6 ADD DUP1 SLOAD PUSH1 0x1 PUSH1 0x1 PUSH1 0xA0 SHL SUB SWAP1 SWAP3 AND SWAP2 DUP6 SWAP1 DUP2 LT PUSH2 0xA7E JUMPI PUSH2 0xA7E PUSH2 0x3B2D JUMP JUMPDEST SWAP1 PUSH1 0x0 MSTORE PUSH1 0x20 PUSH1 0x0 KECCAK256 ADD SLOAD DUP6 PUSH1 0x7 ADD DUP6 DUP2 SLOAD DUP2 LT PUSH2 0xA9E JUMPI PUSH2 0xA9E PUSH2 0x3B2D JUMP JUMPDEST SWAP1 PUSH1 0x0 MSTORE PUSH1 0x20 PUSH1 0x0 KECCAK256 ADD DUP7 PUSH1 0x8 ADD DUP7 DUP2 SLOAD DUP2 LT PUSH2 0xABD JUMPI PUSH2 0xABD PUSH2 0x3B2D JUMP JUMPDEST SWAP1 PUSH1 0x0 MSTORE PUSH1 0x20 PUSH1 0x0 KECCAK256 ADD DUP8 PUSH1 0x4 ADD SLOAD PUSH1 0x40 MLOAD DUP7 PUSH4 0xFFFFFFFF AND PUSH1 0xE0 SHL DUP2 MSTORE PUSH1 0x4 ADD PUSH2 0xAEC SWAP6 SWAP5 SWAP4 SWAP3 SWAP2 SWAP1 PUSH2 0x3C19 JUMP JUMPDEST PUSH1 0x0 PUSH1 0x40 MLOAD DUP1 DUP4 SUB DUP2 PUSH1 0x0 DUP8 DUP1 EXTCODESIZE ISZERO DUP1 ISZERO PUSH2 0xB06 JUMPI PUSH1 0x0 DUP1 REVERT JUMPDEST POP GAS CALL ISZERO DUP1 ISZERO PUSH2 0xB1A JUMPI RETURNDATASIZE PUSH1 0x0 DUP1 RETURNDATACOPY RETURNDATASIZE PUSH1 0x0 REVERT JUMPDEST POP POP POP POP DUP1 DUP1 PUSH2 0xB29 SWAP1 PUSH2 0x3C7B JUMP JUMPDEST SWAP2 POP POP PUSH2 0xA18 JUMP JUMPDEST POP PUSH1 0x40 MLOAD DUP3 DUP2 MSTORE PUSH32 0xDE0CEA2A3A0097CC3D981D40C375407760E85BC9C5E69AEA449AC3885F8615C6 SWAP1 PUSH1 0x20 ADD PUSH2 0x8AB JUMP JUMPDEST PUSH1 0x0 SLOAD PUSH1 0x1 PUSH1 0x1 PUSH1 0xA0 SHL SUB AND CALLER EQ PUSH2 0xBCC JUMPI PUSH1 0x40 MLOAD PUSH3 0x461BCD PUSH1 0xE5 SHL DUP2 MSTORE PUSH1 0x20 PUSH1 0x4 DUP3 ADD MSTORE PUSH1 0x27 PUSH1 0x24 DUP3 ADD MSTORE PUSH32 0x4F78576F726B7344414F3A3A5F736574566F74696E6744656C61793A2061646D PUSH1 0x44 DUP3 ADD MSTORE PUSH7 0x696E206F6E6C79 PUSH1 0xC8 SHL PUSH1 0x64 DUP3 ADD MSTORE PUSH1 0x84 ADD PUSH2 0x7EB JUMP JUMPDEST PUSH1 0x1 DUP2 LT ISZERO DUP1 ISZERO PUSH2 0xBDF JUMPI POP PUSH2 0x9D80 DUP2 GT ISZERO JUMPDEST PUSH2 0xC45 JUMPI PUSH1 0x40 MLOAD PUSH3 0x461BCD PUSH1 0xE5 SHL DUP2 MSTORE PUSH1 0x20 PUSH1 0x4 DUP3 ADD MSTORE PUSH1 0x31 PUSH1 0x24 DUP3 ADD MSTORE PUSH32 0x4F78576F726B7344414F3A3A5F736574566F74696E6744656C61793A20696E76 PUSH1 0x44 DUP3 ADD MSTORE PUSH17 0x616C696420766F74696E672064656C6179 PUSH1 0x78 SHL PUSH1 0x64 DUP3 ADD MSTORE PUSH1 0x84 ADD PUSH2 0x7EB JUMP JUMPDEST PUSH1 0x4 DUP1 SLOAD SWAP1 DUP3 SWAP1 SSTORE PUSH1 0x40 DUP1 MLOAD DUP3 DUP2 MSTORE PUSH1 0x20 DUP2 ADD DUP5 SWAP1 MSTORE PUSH32 0xC565B045403DC03C2EEA82B81A0465EDAD9E2E7FC4D97E11421C209DA93D7A93 SWAP2 ADD PUSH2 0x8AB JUMP JUMPDEST PUSH1 0x0 PUSH2 0xD10 PUSH1 0x7 SLOAD PUSH1 0xA PUSH1 0x0 SWAP1 SLOAD SWAP1 PUSH2 0x100 EXP SWAP1 DIV PUSH1 0x1 PUSH1 0x1 PUSH1 0xA0 SHL SUB AND PUSH1 0x1 PUSH1 0x1 PUSH1 0xA0 SHL SUB AND PUSH4 0x18160DDD PUSH1 0x40 MLOAD DUP2 PUSH4 0xFFFFFFFF AND PUSH1 0xE0 SHL DUP2 MSTORE PUSH1 0x4 ADD PUSH1 0x20 PUSH1 0x40 MLOAD DUP1 DUP4 SUB DUP2 DUP7 GAS STATICCALL ISZERO DUP1 ISZERO PUSH2 0xCDE JUMPI RETURNDATASIZE PUSH1 0x0 DUP1 RETURNDATACOPY RETURNDATASIZE PUSH1 0x0 REVERT JUMPDEST POP POP POP POP PUSH1 0x40 MLOAD RETURNDATASIZE PUSH1 0x1F NOT PUSH1 0x1F DUP3 ADD AND DUP3 ADD DUP1 PUSH1 0x40 MSTORE POP DUP2 ADD SWAP1 PUSH2 0xD02 SWAP2 SWAP1 PUSH2 0x3C96 JUMP JUMPDEST PUSH1 0x1 PUSH1 0x1 PUSH1 0x60 SHL SUB AND PUSH2 0x2CC6 JUMP JUMPDEST SWAP1 POP SWAP1 JUMP JUMPDEST PUSH1 0x9 SLOAD PUSH1 0x1 PUSH1 0x1 PUSH1 0xA0 SHL SUB AND ISZERO PUSH2 0xD87 JUMPI PUSH1 0x40 MLOAD PUSH3 0x461BCD PUSH1 0xE5 SHL DUP2 MSTORE PUSH1 0x20 PUSH1 0x4 DUP3 ADD MSTORE PUSH1 0x30 PUSH1 0x24 DUP3 ADD MSTORE PUSH32 0x4F78576F726B7344414F3A3A696E697469616C697A653A2063616E206F6E6C79 PUSH1 0x44 DUP3 ADD MSTORE PUSH16 0x20696E697469616C697A65206F6E6365 PUSH1 0x80 SHL PUSH1 0x64 DUP3 ADD MSTORE PUSH1 0x84 ADD PUSH2 0x7EB JUMP JUMPDEST PUSH1 0x0 SLOAD PUSH1 0x1 PUSH1 0x1 PUSH1 0xA0 SHL SUB AND CALLER EQ PUSH2 0xDEC JUMPI PUSH1 0x40 MLOAD PUSH3 0x461BCD PUSH1 0xE5 SHL DUP2 MSTORE PUSH1 0x20 PUSH1 0x4 DUP3 ADD MSTORE PUSH1 0x22 PUSH1 0x24 DUP3 ADD MSTORE PUSH32 0x4F78576F726B7344414F3A3A696E697469616C697A653A2061646D696E206F6E PUSH1 0x44 DUP3 ADD MSTORE PUSH2 0x6C79 PUSH1 0xF0 SHL PUSH1 0x64 DUP3 ADD MSTORE PUSH1 0x84 ADD PUSH2 0x7EB JUMP JUMPDEST PUSH1 0x1 PUSH1 0x1 PUSH1 0xA0 SHL SUB DUP8 AND PUSH2 0xE49 JUMPI PUSH1 0x40 MLOAD PUSH3 0x461BCD PUSH1 0xE5 SHL DUP2 MSTORE PUSH1 0x20 PUSH1 0x4 DUP3 ADD MSTORE PUSH1 0x30 PUSH1 0x24 DUP3 ADD MSTORE PUSH1 0x0 DUP1 MLOAD PUSH1 0x20 PUSH2 0x4048 DUP4 CODECOPY DUP2 MLOAD SWAP2 MSTORE PUSH1 0x44 DUP3 ADD MSTORE PUSH16 0x74696D656C6F636B2061646472657373 PUSH1 0x80 SHL PUSH1 0x64 DUP3 ADD MSTORE PUSH1 0x84 ADD PUSH2 0x7EB JUMP JUMPDEST PUSH1 0x1 PUSH1 0x1 PUSH1 0xA0 SHL SUB DUP7 AND PUSH2 0xEA5 JUMPI PUSH1 0x40 MLOAD PUSH3 0x461BCD PUSH1 0xE5 SHL DUP2 MSTORE PUSH1 0x20 PUSH1 0x4 DUP3 ADD MSTORE PUSH1 0x2F PUSH1 0x24 DUP3 ADD MSTORE PUSH1 0x0 DUP1 MLOAD PUSH1 0x20 PUSH2 0x4048 DUP4 CODECOPY DUP2 MLOAD SWAP2 MSTORE PUSH1 0x44 DUP3 ADD MSTORE PUSH15 0x4F78576F726B732061646472657373 PUSH1 0x88 SHL PUSH1 0x64 DUP3 ADD MSTORE PUSH1 0x84 ADD PUSH2 0x7EB JUMP JUMPDEST PUSH2 0x1680 DUP5 LT ISZERO DUP1 ISZERO PUSH2 0xEBA JUMPI POP PUSH3 0x13B00 DUP5 GT ISZERO JUMPDEST PUSH2 0xF0A JUMPI PUSH1 0x40 MLOAD PUSH3 0x461BCD PUSH1 0xE5 SHL DUP2 MSTORE PUSH1 0x20 PUSH1 0x4 DUP3 ADD MSTORE PUSH1 0x2D PUSH1 0x24 DUP3 ADD MSTORE PUSH1 0x0 DUP1 MLOAD PUSH1 0x20 PUSH2 0x4048 DUP4 CODECOPY DUP2 MLOAD SWAP2 MSTORE PUSH1 0x44 DUP3 ADD MSTORE PUSH13 0x1D9BDD1A5B99C81C195C9A5BD9 PUSH1 0x9A SHL PUSH1 0x64 DUP3 ADD MSTORE PUSH1 0x84 ADD PUSH2 0x7EB JUMP JUMPDEST PUSH1 0x1 DUP4 LT ISZERO DUP1 ISZERO PUSH2 0xF1D JUMPI POP PUSH2 0x9D80 DUP4 GT ISZERO JUMPDEST PUSH2 0xF6C JUMPI PUSH1 0x40 MLOAD PUSH3 0x461BCD PUSH1 0xE5 SHL DUP2 MSTORE PUSH1 0x20 PUSH1 0x4 DUP3 ADD MSTORE PUSH1 0x2C PUSH1 0x24 DUP3 ADD MSTORE PUSH1 0x0 DUP1 MLOAD PUSH1 0x20 PUSH2 0x4048 DUP4 CODECOPY DUP2 MLOAD SWAP2 MSTORE PUSH1 0x44 DUP3 ADD MSTORE PUSH12 0x766F74696E672064656C6179 PUSH1 0xA0 SHL PUSH1 0x64 DUP3 ADD MSTORE PUSH1 0x84 ADD PUSH2 0x7EB JUMP JUMPDEST PUSH1 0x1 DUP3 LT ISZERO DUP1 ISZERO PUSH2 0xF7F JUMPI POP PUSH2 0x3E8 DUP3 GT ISZERO JUMPDEST PUSH2 0xF9B JUMPI PUSH1 0x40 MLOAD PUSH3 0x461BCD PUSH1 0xE5 SHL DUP2 MSTORE PUSH1 0x4 ADD PUSH2 0x7EB SWAP1 PUSH2 0x3CBF JUMP JUMPDEST PUSH1 0xC8 DUP2 LT ISZERO DUP1 ISZERO PUSH2 0xFAE JUMPI POP PUSH2 0x7D0 DUP2 GT ISZERO JUMPDEST PUSH2 0xFCA JUMPI PUSH1 0x40 MLOAD PUSH3 0x461BCD PUSH1 0xE5 SHL DUP2 MSTORE PUSH1 0x4 ADD PUSH2 0x7EB SWAP1 PUSH2 0x3CBF JUMP JUMPDEST PUSH1 0x5 SLOAD PUSH1 0x40 DUP1 MLOAD SWAP2 DUP3 MSTORE PUSH1 0x20 DUP3 ADD DUP7 SWAP1 MSTORE PUSH32 0x7E3F7F0708A84DE9203036ABAA450DCCC85AD5FF52F78C170F3EDB55CF5E8828 SWAP2 ADD PUSH1 0x40 MLOAD DUP1 SWAP2 SUB SWAP1 LOG1 PUSH1 0x4 SLOAD PUSH1 0x40 DUP1 MLOAD SWAP2 DUP3 MSTORE PUSH1 0x20 DUP3 ADD DUP6 SWAP1 MSTORE PUSH32 0xC565B045403DC03C2EEA82B81A0465EDAD9E2E7FC4D97E11421C209DA93D7A93 SWAP2 ADD PUSH1 0x40 MLOAD DUP1 SWAP2 SUB SWAP1 LOG1 PUSH1 0x6 SLOAD PUSH1 0x40 DUP1 MLOAD SWAP2 DUP3 MSTORE PUSH1 0x20 DUP3 ADD DUP5 SWAP1 MSTORE PUSH32 0xFC216FAA269BF440FB06AA490693F409461BDE9CDCB949C7B9F2CB79589E7A58 SWAP2 ADD PUSH1 0x40 MLOAD DUP1 SWAP2 SUB SWAP1 LOG1 PUSH1 0x7 SLOAD PUSH1 0x40 DUP1 MLOAD SWAP2 DUP3 MSTORE PUSH1 0x20 DUP3 ADD DUP4 SWAP1 MSTORE PUSH32 0xD73AB1B53CA7A080713BCECD1A0ACB2066A6A6C3D2FD6D78B67AE5005E652D9B SWAP2 ADD PUSH1 0x40 MLOAD DUP1 SWAP2 SUB SWAP1 LOG1 PUSH1 0x9 DUP1 SLOAD PUSH1 0x1 PUSH1 0x1 PUSH1 0xA0 SHL SUB NOT SWAP1 DUP2 AND PUSH1 0x1 PUSH1 0x1 PUSH1 0xA0 SHL SUB SWAP10 DUP11 AND OR SWAP1 SWAP2 SSTORE PUSH1 0xA DUP1 SLOAD DUP3 AND SWAP8 DUP10 AND SWAP8 SWAP1 SWAP8 OR SWAP1 SWAP7 SSTORE PUSH1 0x3 DUP1 SLOAD SWAP1 SWAP7 AND SWAP5 SWAP1 SWAP7 AND SWAP4 SWAP1 SWAP4 OR SWAP1 SWAP4 SSTORE PUSH1 0x5 SSTORE PUSH1 0x4 SWAP2 SWAP1 SWAP2 SSTORE PUSH1 0x6 SSTORE PUSH1 0x7 SSTORE JUMP JUMPDEST PUSH1 0x60 DUP1 PUSH1 0x60 DUP1 PUSH1 0x0 PUSH1 0xB PUSH1 0x0 DUP8 DUP2 MSTORE PUSH1 0x20 ADD SWAP1 DUP2 MSTORE PUSH1 0x20 ADD PUSH1 0x0 KECCAK256 SWAP1 POP DUP1 PUSH1 0x5 ADD DUP2 PUSH1 0x6 ADD DUP3 PUSH1 0x7 ADD DUP4 PUSH1 0x8 ADD DUP4 DUP1 SLOAD DUP1 PUSH1 0x20 MUL PUSH1 0x20 ADD PUSH1 0x40 MLOAD SWAP1 DUP2 ADD PUSH1 0x40 MSTORE DUP1 SWAP3 SWAP2 SWAP1 DUP2 DUP2 MSTORE PUSH1 0x20 ADD DUP3 DUP1 SLOAD DUP1 ISZERO PUSH2 0x118E JUMPI PUSH1 0x20 MUL DUP3 ADD SWAP2 SWAP1 PUSH1 0x0 MSTORE PUSH1 0x20 PUSH1 0x0 KECCAK256 SWAP1 JUMPDEST DUP2 SLOAD PUSH1 0x1 PUSH1 0x1 PUSH1 0xA0 SHL SUB AND DUP2 MSTORE PUSH1 0x1 SWAP1 SWAP2 ADD SWAP1 PUSH1 0x20 ADD DUP1 DUP4 GT PUSH2 0x1170 JUMPI JUMPDEST POP POP POP POP POP SWAP4 POP DUP3 DUP1 SLOAD DUP1 PUSH1 0x20 MUL PUSH1 0x20 ADD PUSH1 0x40 MLOAD SWAP1 DUP2 ADD PUSH1 0x40 MSTORE DUP1 SWAP3 SWAP2 SWAP1 DUP2 DUP2 MSTORE PUSH1 0x20 ADD DUP3 DUP1 SLOAD DUP1 ISZERO PUSH2 0x11E0 JUMPI PUSH1 0x20 MUL DUP3 ADD SWAP2 SWAP1 PUSH1 0x0 MSTORE PUSH1 0x20 PUSH1 0x0 KECCAK256 SWAP1 JUMPDEST DUP2 SLOAD DUP2 MSTORE PUSH1 0x20 ADD SWAP1 PUSH1 0x1 ADD SWAP1 DUP1 DUP4 GT PUSH2 0x11CC JUMPI JUMPDEST POP POP POP POP POP SWAP3 POP DUP2 DUP1 SLOAD DUP1 PUSH1 0x20 MUL PUSH1 0x20 ADD PUSH1 0x40 MLOAD SWAP1 DUP2 ADD PUSH1 0x40 MSTORE DUP1 SWAP3 SWAP2 SWAP1 DUP2 DUP2 MSTORE PUSH1 0x20 ADD PUSH1 0x0 SWAP1 JUMPDEST DUP3 DUP3 LT ISZERO PUSH2 0x12B4 JUMPI DUP4 DUP3 SWAP1 PUSH1 0x0 MSTORE PUSH1 0x20 PUSH1 0x0 KECCAK256 ADD DUP1 SLOAD PUSH2 0x1227 SWAP1 PUSH2 0x3B43 JUMP JUMPDEST DUP1 PUSH1 0x1F ADD PUSH1 0x20 DUP1 SWAP2 DIV MUL PUSH1 0x20 ADD PUSH1 0x40 MLOAD SWAP1 DUP2 ADD PUSH1 0x40 MSTORE DUP1 SWAP3 SWAP2 SWAP1 DUP2 DUP2 MSTORE PUSH1 0x20 ADD DUP3 DUP1 SLOAD PUSH2 0x1253 SWAP1 PUSH2 0x3B43 JUMP JUMPDEST DUP1 ISZERO PUSH2 0x12A0 JUMPI DUP1 PUSH1 0x1F LT PUSH2 0x1275 JUMPI PUSH2 0x100 DUP1 DUP4 SLOAD DIV MUL DUP4 MSTORE SWAP2 PUSH1 0x20 ADD SWAP2 PUSH2 0x12A0 JUMP JUMPDEST DUP3 ADD SWAP2 SWAP1 PUSH1 0x0 MSTORE PUSH1 0x20 PUSH1 0x0 KECCAK256 SWAP1 JUMPDEST DUP2 SLOAD DUP2 MSTORE SWAP1 PUSH1 0x1 ADD SWAP1 PUSH1 0x20 ADD DUP1 DUP4 GT PUSH2 0x1283 JUMPI DUP3 SWAP1 SUB PUSH1 0x1F AND DUP3 ADD SWAP2 JUMPDEST POP POP POP POP POP DUP2 MSTORE PUSH1 0x20 ADD SWAP1 PUSH1 0x1 ADD SWAP1 PUSH2 0x1208 JUMP JUMPDEST POP POP POP POP SWAP2 POP DUP1 DUP1 SLOAD DUP1 PUSH1 0x20 MUL PUSH1 0x20 ADD PUSH1 0x40 MLOAD SWAP1 DUP2 ADD PUSH1 0x40 MSTORE DUP1 SWAP3 SWAP2 SWAP1 DUP2 DUP2 MSTORE PUSH1 0x20 ADD PUSH1 0x0 SWAP1 JUMPDEST DUP3 DUP3 LT ISZERO PUSH2 0x1387 JUMPI DUP4 DUP3 SWAP1 PUSH1 0x0 MSTORE PUSH1 0x20 PUSH1 0x0 KECCAK256 ADD DUP1 SLOAD PUSH2 0x12FA SWAP1 PUSH2 0x3B43 JUMP JUMPDEST DUP1 PUSH1 0x1F ADD PUSH1 0x20 DUP1 SWAP2 DIV MUL PUSH1 0x20 ADD PUSH1 0x40 MLOAD SWAP1 DUP2 ADD PUSH1 0x40 MSTORE DUP1 SWAP3 SWAP2 SWAP1 DUP2 DUP2 MSTORE PUSH1 0x20 ADD DUP3 DUP1 SLOAD PUSH2 0x1326 SWAP1 PUSH2 0x3B43 JUMP JUMPDEST DUP1 ISZERO PUSH2 0x1373 JUMPI DUP1 PUSH1 0x1F LT PUSH2 0x1348 JUMPI PUSH2 0x100 DUP1 DUP4 SLOAD DIV MUL DUP4 MSTORE SWAP2 PUSH1 0x20 ADD SWAP2 PUSH2 0x1373 JUMP JUMPDEST DUP3 ADD SWAP2 SWAP1 PUSH1 0x0 MSTORE PUSH1 0x20 PUSH1 0x0 KECCAK256 SWAP1 JUMPDEST DUP2 SLOAD DUP2 MSTORE SWAP1 PUSH1 0x1 ADD SWAP1 PUSH1 0x20 ADD DUP1 DUP4 GT PUSH2 0x1356 JUMPI DUP3 SWAP1 SUB PUSH1 0x1F AND DUP3 ADD SWAP2 JUMPDEST POP POP POP POP POP DUP2 MSTORE PUSH1 0x20 ADD SWAP1 PUSH1 0x1 ADD SWAP1 PUSH2 0x12DB JUMP JUMPDEST POP POP POP POP SWAP1 POP SWAP5 POP SWAP5 POP SWAP5 POP SWAP5 POP POP SWAP2 SWAP4 POP SWAP2 SWAP4 JUMP JUMPDEST PUSH1 0x40 DUP1 MLOAD DUP1 DUP3 ADD DUP3 MSTORE PUSH1 0xB DUP2 MSTORE PUSH11 0x4F78576F726B732044414F PUSH1 0xA8 SHL PUSH1 0x20 SWAP2 DUP3 ADD MSTORE DUP2 MLOAD PUSH32 0x8CAD95687BA82C2CE50E74F7B754645E5117C3A5BEC8151C0726D5857980A866 DUP2 DUP4 ADD MSTORE PUSH32 0xB2BA3D96E7D2B3D3EE22B58FD685F1818F218ECB4BC89AE7DBACFFB24CC2781E DUP2 DUP5 ADD MSTORE CHAINID PUSH1 0x60 DUP3 ADD MSTORE ADDRESS PUSH1 0x80 DUP1 DUP4 ADD SWAP2 SWAP1 SWAP2 MSTORE DUP4 MLOAD DUP1 DUP4 SUB SWAP1 SWAP2 ADD DUP2 MSTORE PUSH1 0xA0 DUP3 ADD DUP5 MSTORE DUP1 MLOAD SWAP1 DUP4 ADD KECCAK256 PUSH32 0x150214D74D59B7D1E90C73FC22EF3D991DD0A76B046543D4D80AB92D2A50328F PUSH1 0xC0 DUP4 ADD MSTORE PUSH1 0xE0 DUP3 ADD DUP10 SWAP1 MSTORE PUSH1 0xFF DUP9 AND PUSH2 0x100 DUP1 DUP5 ADD SWAP2 SWAP1 SWAP2 MSTORE DUP5 MLOAD DUP1 DUP5 SUB SWAP1 SWAP2 ADD DUP2 MSTORE PUSH2 0x120 DUP4 ADD SWAP1 SWAP5 MSTORE DUP4 MLOAD SWAP4 SWAP1 SWAP3 ADD SWAP3 SWAP1 SWAP3 KECCAK256 PUSH2 0x1901 PUSH1 0xF0 SHL PUSH2 0x140 DUP5 ADD MSTORE PUSH2 0x142 DUP4 ADD DUP3 SWAP1 MSTORE PUSH2 0x162 DUP4 ADD DUP2 SWAP1 MSTORE SWAP1 SWAP2 PUSH1 0x0 SWAP1 PUSH2 0x182 ADD PUSH1 0x40 DUP1 MLOAD PUSH1 0x1F NOT DUP2 DUP5 SUB ADD DUP2 MSTORE DUP3 DUP3 MSTORE DUP1 MLOAD PUSH1 0x20 SWAP2 DUP3 ADD KECCAK256 PUSH1 0x0 DUP1 DUP6 MSTORE SWAP2 DUP5 ADD DUP1 DUP5 MSTORE DUP2 SWAP1 MSTORE PUSH1 0xFF DUP11 AND SWAP3 DUP5 ADD SWAP3 SWAP1 SWAP3 MSTORE PUSH1 0x60 DUP4 ADD DUP9 SWAP1 MSTORE PUSH1 0x80 DUP4 ADD DUP8 SWAP1 MSTORE SWAP1 SWAP3 POP SWAP1 PUSH1 0x1 SWAP1 PUSH1 0xA0 ADD PUSH1 0x20 PUSH1 0x40 MLOAD PUSH1 0x20 DUP2 SUB SWAP1 DUP1 DUP5 SUB SWAP1 DUP6 GAS STATICCALL ISZERO DUP1 ISZERO PUSH2 0x1518 JUMPI RETURNDATASIZE PUSH1 0x0 DUP1 RETURNDATACOPY RETURNDATASIZE PUSH1 0x0 REVERT JUMPDEST POP POP PUSH1 0x40 MLOAD PUSH1 0x1F NOT ADD MLOAD SWAP2 POP POP PUSH1 0x1 PUSH1 0x1 PUSH1 0xA0 SHL SUB DUP2 AND PUSH2 0x1590 JUMPI PUSH1 0x40 MLOAD PUSH3 0x461BCD PUSH1 0xE5 SHL DUP2 MSTORE PUSH1 0x20 PUSH1 0x4 DUP3 ADD MSTORE PUSH1 0x2C PUSH1 0x24 DUP3 ADD MSTORE PUSH32 0x4F78576F726B7344414F3A3A63617374566F746542795369673A20696E76616C PUSH1 0x44 DUP3 ADD MSTORE PUSH12 0x6964207369676E6174757265 PUSH1 0xA0 SHL PUSH1 0x64 DUP3 ADD MSTORE PUSH1 0x84 ADD PUSH2 0x7EB JUMP JUMPDEST DUP1 PUSH1 0x1 PUSH1 0x1 PUSH1 0xA0 SHL SUB AND PUSH32 0xB8E138887D0AA13BAB447E82DE9D5C1777041ECD21CA36BA824FF1E6C07DDDA4 DUP11 DUP11 PUSH2 0x15C8 DUP6 DUP15 DUP15 PUSH2 0x2CE6 JUMP JUMPDEST PUSH1 0x40 DUP1 MLOAD SWAP4 DUP5 MSTORE PUSH1 0xFF SWAP1 SWAP3 AND PUSH1 0x20 DUP5 ADD MSTORE PUSH1 0x1 PUSH1 0x1 PUSH1 0x60 SHL SUB AND SWAP1 DUP3 ADD MSTORE PUSH1 0x80 PUSH1 0x60 DUP3 ADD DUP2 SWAP1 MSTORE PUSH1 0x0 SWAP1 DUP3 ADD MSTORE PUSH1 0xA0 ADD PUSH1 0x40 MLOAD DUP1 SWAP2 SUB SWAP1 LOG2 POP POP POP POP POP POP POP POP POP JUMP JUMPDEST PUSH1 0x0 DUP2 PUSH1 0x8 SLOAD LT ISZERO PUSH2 0x166E JUMPI PUSH1 0x40 MLOAD PUSH3 0x461BCD PUSH1 0xE5 SHL DUP2 MSTORE PUSH1 0x20 PUSH1 0x4 DUP3 ADD MSTORE PUSH1 0x26 PUSH1 0x24 DUP3 ADD MSTORE PUSH32 0x4F78576F726B7344414F3A3A73746174653A20696E76616C69642070726F706F PUSH1 0x44 DUP3 ADD MSTORE PUSH6 0x1CD85B081A59 PUSH1 0xD2 SHL PUSH1 0x64 DUP3 ADD MSTORE PUSH1 0x84 ADD PUSH2 0x7EB JUMP JUMPDEST PUSH1 0x0 DUP3 DUP2 MSTORE PUSH1 0xB PUSH1 0x20 MSTORE PUSH1 0x40 SWAP1 KECCAK256 PUSH1 0xE DUP2 ADD SLOAD PUSH2 0x100 SWAP1 DIV PUSH1 0xFF AND ISZERO PUSH2 0x1697 JUMPI POP PUSH1 0x8 SWAP3 SWAP2 POP POP JUMP JUMPDEST PUSH1 0xE DUP2 ADD SLOAD PUSH1 0xFF AND ISZERO PUSH2 0x16AD JUMPI POP PUSH1 0x2 SWAP3 SWAP2 POP POP JUMP JUMPDEST DUP1 PUSH1 0x9 ADD SLOAD NUMBER GT PUSH2 0x16C1 JUMPI POP PUSH1 0x0 SWAP3 SWAP2 POP POP JUMP JUMPDEST DUP1 PUSH1 0xA ADD SLOAD NUMBER GT PUSH2 0x16D5 JUMPI POP PUSH1 0x1 SWAP3 SWAP2 POP POP JUMP JUMPDEST DUP1 PUSH1 0xC ADD SLOAD DUP2 PUSH1 0xB ADD SLOAD GT ISZERO DUP1 PUSH2 0x16F3 JUMPI POP DUP1 PUSH1 0x3 ADD SLOAD DUP2 PUSH1 0xB ADD SLOAD LT JUMPDEST ISZERO PUSH2 0x1701 JUMPI POP PUSH1 0x3 SWAP3 SWAP2 POP POP JUMP JUMPDEST PUSH1 0x4 DUP2 ADD SLOAD PUSH2 0x1713 JUMPI POP PUSH1 0x4 SWAP3 SWAP2 POP POP JUMP JUMPDEST PUSH1 0xE DUP2 ADD SLOAD PUSH3 0x10000 SWAP1 DIV PUSH1 0xFF AND ISZERO PUSH2 0x172F JUMPI POP PUSH1 0x7 SWAP3 SWAP2 POP POP JUMP JUMPDEST PUSH1 0x9 PUSH1 0x0 SWAP1 SLOAD SWAP1 PUSH2 0x100 EXP SWAP1 DIV PUSH1 0x1 PUSH1 0x1 PUSH1 0xA0 SHL SUB AND PUSH1 0x1 PUSH1 0x1 PUSH1 0xA0 SHL SUB AND PUSH4 0xC1A287E2 PUSH1 0x40 MLOAD DUP2 PUSH4 0xFFFFFFFF AND PUSH1 0xE0 SHL DUP2 MSTORE PUSH1 0x4 ADD PUSH1 0x20 PUSH1 0x40 MLOAD DUP1 DUP4 SUB DUP2 DUP7 GAS STATICCALL ISZERO DUP1 ISZERO PUSH2 0x1782 JUMPI RETURNDATASIZE PUSH1 0x0 DUP1 RETURNDATACOPY RETURNDATASIZE PUSH1 0x0 REVERT JUMPDEST POP POP POP POP PUSH1 0x40 MLOAD RETURNDATASIZE PUSH1 0x1F NOT PUSH1 0x1F DUP3 ADD AND DUP3 ADD DUP1 PUSH1 0x40 MSTORE POP DUP2 ADD SWAP1 PUSH2 0x17A6 SWAP2 SWAP1 PUSH2 0x3CFF JUMP JUMPDEST DUP2 PUSH1 0x4 ADD SLOAD PUSH2 0x17B5 SWAP2 SWAP1 PUSH2 0x3D18 JUMP JUMPDEST TIMESTAMP LT PUSH2 0x17C4 JUMPI POP PUSH1 0x6 SWAP3 SWAP2 POP POP JUMP JUMPDEST POP PUSH1 0x5 SWAP3 SWAP2 POP POP JUMP JUMPDEST POP SWAP2 SWAP1 POP JUMP JUMPDEST PUSH1 0x7 PUSH2 0x17DE DUP3 PUSH2 0x160B JUMP JUMPDEST PUSH1 0x8 DUP2 GT ISZERO PUSH2 0x17EF JUMPI PUSH2 0x17EF PUSH2 0x3679 JUMP JUMPDEST EQ ISZERO PUSH2 0x1859 JUMPI PUSH1 0x40 MLOAD PUSH3 0x461BCD PUSH1 0xE5 SHL DUP2 MSTORE PUSH1 0x20 PUSH1 0x4 DUP3 ADD MSTORE PUSH1 0x33 PUSH1 0x24 DUP3 ADD MSTORE PUSH32 0x4F78576F726B7344414F3A3A63616E63656C3A2063616E6E6F742063616E6365 PUSH1 0x44 DUP3 ADD MSTORE PUSH19 0x1B08195E1958DD5D1959081C1C9BDC1BDCD85B PUSH1 0x6A SHL PUSH1 0x64 DUP3 ADD MSTORE PUSH1 0x84 ADD PUSH2 0x7EB JUMP JUMPDEST PUSH1 0x0 DUP2 DUP2 MSTORE PUSH1 0xB PUSH1 0x20 MSTORE PUSH1 0x40 SWAP1 KECCAK256 PUSH1 0x1 DUP2 ADD SLOAD PUSH1 0x1 PUSH1 0x1 PUSH1 0xA0 SHL SUB AND CALLER EQ DUP1 PUSH2 0x1922 JUMPI POP PUSH1 0x2 DUP2 ADD SLOAD PUSH1 0xA SLOAD PUSH1 0x1 DUP1 DUP5 ADD SLOAD PUSH1 0x1 PUSH1 0x1 PUSH1 0xA0 SHL SUB SWAP3 DUP4 AND SWAP3 PUSH4 0x782D6FE1 SWAP3 SWAP2 AND SWAP1 PUSH2 0x18AA SWAP1 NUMBER PUSH2 0x3D30 JUMP JUMPDEST PUSH1 0x40 MLOAD PUSH1 0x1 PUSH1 0x1 PUSH1 0xE0 SHL SUB NOT PUSH1 0xE0 DUP6 SWAP1 SHL AND DUP2 MSTORE PUSH1 0x1 PUSH1 0x1 PUSH1 0xA0 SHL SUB SWAP1 SWAP3 AND PUSH1 0x4 DUP4 ADD MSTORE PUSH1 0x24 DUP3 ADD MSTORE PUSH1 0x44 ADD PUSH1 0x20 PUSH1 0x40 MLOAD DUP1 DUP4 SUB DUP2 DUP7 GAS STATICCALL ISZERO DUP1 ISZERO PUSH2 0x18F3 JUMPI RETURNDATASIZE PUSH1 0x0 DUP1 RETURNDATACOPY RETURNDATASIZE PUSH1 0x0 REVERT JUMPDEST POP POP POP POP PUSH1 0x40 MLOAD RETURNDATASIZE PUSH1 0x1F NOT PUSH1 0x1F DUP3 ADD AND DUP3 ADD DUP1 PUSH1 0x40 MSTORE POP DUP2 ADD SWAP1 PUSH2 0x1917 SWAP2 SWAP1 PUSH2 0x3C96 JUMP JUMPDEST PUSH1 0x1 PUSH1 0x1 PUSH1 0x60 SHL SUB AND LT JUMPDEST PUSH2 0x1983 JUMPI PUSH1 0x40 MLOAD PUSH3 0x461BCD PUSH1 0xE5 SHL DUP2 MSTORE PUSH1 0x20 PUSH1 0x4 DUP3 ADD MSTORE PUSH1 0x2C PUSH1 0x24 DUP3 ADD MSTORE PUSH32 0x4F78576F726B7344414F3A3A63616E63656C3A2070726F706F7365722061626F PUSH1 0x44 DUP3 ADD MSTORE PUSH12 0x1D99481D1A1C995CDA1BDB19 PUSH1 0xA2 SHL PUSH1 0x64 DUP3 ADD MSTORE PUSH1 0x84 ADD PUSH2 0x7EB JUMP JUMPDEST PUSH1 0xE DUP2 ADD DUP1 SLOAD PUSH1 0xFF NOT AND PUSH1 0x1 OR SWAP1 SSTORE PUSH1 0x0 JUMPDEST PUSH1 0x5 DUP3 ADD SLOAD DUP2 LT ISZERO PUSH2 0x1AAE JUMPI PUSH1 0x9 SLOAD PUSH1 0x5 DUP4 ADD DUP1 SLOAD PUSH1 0x1 PUSH1 0x1 PUSH1 0xA0 SHL SUB SWAP1 SWAP3 AND SWAP2 PUSH4 0x591FCDFE SWAP2 SWAP1 DUP5 SWAP1 DUP2 LT PUSH2 0x19CD JUMPI PUSH2 0x19CD PUSH2 0x3B2D JUMP JUMPDEST PUSH1 0x0 SWAP2 DUP3 MSTORE PUSH1 0x20 SWAP1 SWAP2 KECCAK256 ADD SLOAD PUSH1 0x6 DUP6 ADD DUP1 SLOAD PUSH1 0x1 PUSH1 0x1 PUSH1 0xA0 SHL SUB SWAP1 SWAP3 AND SWAP2 DUP6 SWAP1 DUP2 LT PUSH2 0x19FB JUMPI PUSH2 0x19FB PUSH2 0x3B2D JUMP JUMPDEST SWAP1 PUSH1 0x0 MSTORE PUSH1 0x20 PUSH1 0x0 KECCAK256 ADD SLOAD DUP6 PUSH1 0x7 ADD DUP6 DUP2 SLOAD DUP2 LT PUSH2 0x1A1B JUMPI PUSH2 0x1A1B PUSH2 0x3B2D JUMP JUMPDEST SWAP1 PUSH1 0x0 MSTORE PUSH1 0x20 PUSH1 0x0 KECCAK256 ADD DUP7 PUSH1 0x8 ADD DUP7 DUP2 SLOAD DUP2 LT PUSH2 0x1A3A JUMPI PUSH2 0x1A3A PUSH2 0x3B2D JUMP JUMPDEST SWAP1 PUSH1 0x0 MSTORE PUSH1 0x20 PUSH1 0x0 KECCAK256 ADD DUP8 PUSH1 0x4 ADD SLOAD PUSH1 0x40 MLOAD DUP7 PUSH4 0xFFFFFFFF AND PUSH1 0xE0 SHL DUP2 MSTORE PUSH1 0x4 ADD PUSH2 0x1A69 SWAP6 SWAP5 SWAP4 SWAP3 SWAP2 SWAP1 PUSH2 0x3C19 JUMP JUMPDEST PUSH1 0x0 PUSH1 0x40 MLOAD DUP1 DUP4 SUB DUP2 PUSH1 0x0 DUP8 DUP1 EXTCODESIZE ISZERO DUP1 ISZERO PUSH2 0x1A83 JUMPI PUSH1 0x0 DUP1 REVERT JUMPDEST POP GAS CALL ISZERO DUP1 ISZERO PUSH2 0x1A97 JUMPI RETURNDATASIZE PUSH1 0x0 DUP1 RETURNDATACOPY RETURNDATASIZE PUSH1 0x0 REVERT JUMPDEST POP POP POP POP DUP1 DUP1 PUSH2 0x1AA6 SWAP1 PUSH2 0x3C7B JUMP JUMPDEST SWAP2 POP POP PUSH2 0x1995 JUMP JUMPDEST POP PUSH1 0x40 MLOAD DUP3 DUP2 MSTORE PUSH32 0x789CF55BE980739DAD1D0699B93B58E806B51C9D96619BFA8FE0A28ABAA7B30C SWAP1 PUSH1 0x20 ADD PUSH2 0x8AB JUMP JUMPDEST CALLER PUSH32 0xB8E138887D0AA13BAB447E82DE9D5C1777041ECD21CA36BA824FF1E6C07DDDA4 DUP4 DUP4 PUSH2 0x1B0E DUP5 DUP4 DUP4 PUSH2 0x2CE6 JUMP JUMPDEST PUSH1 0x40 DUP1 MLOAD SWAP4 DUP5 MSTORE PUSH1 0xFF SWAP1 SWAP3 AND PUSH1 0x20 DUP5 ADD MSTORE PUSH1 0x1 PUSH1 0x1 PUSH1 0x60 SHL SUB AND SWAP1 DUP3 ADD MSTORE PUSH1 0x80 PUSH1 0x60 DUP3 ADD DUP2 SWAP1 MSTORE PUSH1 0x0 SWAP1 DUP3 ADD MSTORE PUSH1 0xA0 ADD PUSH1 0x40 MLOAD DUP1 SWAP2 SUB SWAP1 LOG2 POP POP JUMP JUMPDEST PUSH1 0x0 SLOAD PUSH1 0x1 PUSH1 0x1 PUSH1 0xA0 SHL SUB AND CALLER EQ PUSH2 0x1BB7 JUMPI PUSH1 0x40 MLOAD PUSH3 0x461BCD PUSH1 0xE5 SHL DUP2 MSTORE PUSH1 0x20 PUSH1 0x4 DUP3 ADD MSTORE PUSH1 0x2A PUSH1 0x24 DUP3 ADD MSTORE PUSH32 0x4F78576F726B7344414F3A3A5F73657451756F72756D566F7465734250533A20 PUSH1 0x44 DUP3 ADD MSTORE PUSH10 0x61646D696E206F6E6C79 PUSH1 0xB0 SHL PUSH1 0x64 DUP3 ADD MSTORE PUSH1 0x84 ADD PUSH2 0x7EB JUMP JUMPDEST PUSH1 0xC8 DUP2 LT ISZERO DUP1 ISZERO PUSH2 0x1BCA JUMPI POP PUSH2 0x7D0 DUP2 GT ISZERO JUMPDEST PUSH2 0x1BE6 JUMPI PUSH1 0x40 MLOAD PUSH3 0x461BCD PUSH1 0xE5 SHL DUP2 MSTORE PUSH1 0x4 ADD PUSH2 0x7EB SWAP1 PUSH2 0x3D47 JUMP JUMPDEST PUSH1 0x7 DUP1 SLOAD SWAP1 DUP3 SWAP1 SSTORE PUSH1 0x40 DUP1 MLOAD DUP3 DUP2 MSTORE PUSH1 0x20 DUP2 ADD DUP5 SWAP1 MSTORE PUSH32 0xD73AB1B53CA7A080713BCECD1A0ACB2066A6A6C3D2FD6D78B67AE5005E652D9B SWAP2 ADD PUSH2 0x8AB JUMP JUMPDEST CALLER PUSH32 0xB8E138887D0AA13BAB447E82DE9D5C1777041ECD21CA36BA824FF1E6C07DDDA4 DUP6 DUP6 PUSH2 0x1C53 DUP5 DUP4 DUP4 PUSH2 0x2CE6 JUMP JUMPDEST DUP7 DUP7 PUSH1 0x40 MLOAD PUSH2 0x1C66 SWAP6 SWAP5 SWAP4 SWAP3 SWAP2 SWAP1 PUSH2 0x3DA4 JUMP JUMPDEST PUSH1 0x40 MLOAD DUP1 SWAP2 SUB SWAP1 LOG2 POP POP POP POP JUMP JUMPDEST PUSH1 0x3 SLOAD PUSH1 0x1 PUSH1 0x1 PUSH1 0xA0 SHL SUB AND CALLER EQ PUSH2 0x1CDA JUMPI PUSH1 0x40 MLOAD PUSH3 0x461BCD PUSH1 0xE5 SHL DUP2 MSTORE PUSH1 0x20 PUSH1 0x4 DUP3 ADD MSTORE PUSH1 0x23 PUSH1 0x24 DUP3 ADD MSTORE PUSH32 0x4F78576F726B7344414F3A3A5F7365745665746F65723A207665746F6572206F PUSH1 0x44 DUP3 ADD MSTORE PUSH3 0x6E6C79 PUSH1 0xE8 SHL PUSH1 0x64 DUP3 ADD MSTORE PUSH1 0x84 ADD PUSH2 0x7EB JUMP JUMPDEST PUSH1 0x3 SLOAD PUSH1 0x40 DUP1 MLOAD PUSH1 0x1 PUSH1 0x1 PUSH1 0xA0 SHL SUB SWAP3 DUP4 AND DUP2 MSTORE SWAP2 DUP4 AND PUSH1 0x20 DUP4 ADD MSTORE PUSH32 0xC5644F3588A066B15DCF6B636B74AADCA57CFACCF608D9DE7D8786364B7A8D02 SWAP2 ADD PUSH1 0x40 MLOAD DUP1 SWAP2 SUB SWAP1 LOG1 PUSH1 0x3 DUP1 SLOAD PUSH1 0x1 PUSH1 0x1 PUSH1 0xA0 SHL SUB NOT AND PUSH1 0x1 PUSH1 0x1 PUSH1 0xA0 SHL SUB SWAP3 SWAP1 SWAP3 AND SWAP2 SWAP1 SWAP2 OR SWAP1 SSTORE JUMP JUMPDEST PUSH1 0x0 SLOAD PUSH1 0x1 PUSH1 0x1 PUSH1 0xA0 SHL SUB AND CALLER EQ PUSH2 0x1DB6 JUMPI PUSH1 0x40 MLOAD PUSH3 0x461BCD PUSH1 0xE5 SHL DUP2 MSTORE PUSH1 0x20 PUSH1 0x4 DUP3 ADD MSTORE PUSH1 0x30 PUSH1 0x24 DUP3 ADD MSTORE PUSH32 0x4F78576F726B7344414F3A3A5F73657450726F706F73616C5468726573686F6C PUSH1 0x44 DUP3 ADD MSTORE PUSH16 0x644250533A2061646D696E206F6E6C79 PUSH1 0x80 SHL PUSH1 0x64 DUP3 ADD MSTORE PUSH1 0x84 ADD PUSH2 0x7EB JUMP JUMPDEST PUSH1 0x1 DUP2 LT ISZERO DUP1 ISZERO PUSH2 0x1DC9 JUMPI POP PUSH2 0x3E8 DUP2 GT ISZERO JUMPDEST PUSH2 0x1DE5 JUMPI PUSH1 0x40 MLOAD PUSH3 0x461BCD PUSH1 0xE5 SHL DUP2 MSTORE PUSH1 0x4 ADD PUSH2 0x7EB SWAP1 PUSH2 0x3D47 JUMP JUMPDEST PUSH1 0x6 DUP1 SLOAD SWAP1 DUP3 SWAP1 SSTORE PUSH1 0x40 DUP1 MLOAD DUP3 DUP2 MSTORE PUSH1 0x20 DUP2 ADD DUP5 SWAP1 MSTORE PUSH32 0xFC216FAA269BF440FB06AA490693F409461BDE9CDCB949C7B9F2CB79589E7A58 SWAP2 ADD PUSH2 0x8AB JUMP JUMPDEST PUSH1 0x0 PUSH2 0xD10 PUSH1 0x6 SLOAD PUSH1 0xA PUSH1 0x0 SWAP1 SLOAD SWAP1 PUSH2 0x100 EXP SWAP1 DIV PUSH1 0x1 PUSH1 0x1 PUSH1 0xA0 SHL SUB AND PUSH1 0x1 PUSH1 0x1 PUSH1 0xA0 SHL SUB AND PUSH4 0x18160DDD PUSH1 0x40 MLOAD DUP2 PUSH4 0xFFFFFFFF AND PUSH1 0xE0 SHL DUP2 MSTORE PUSH1 0x4 ADD PUSH1 0x20 PUSH1 0x40 MLOAD DUP1 DUP4 SUB DUP2 DUP7 GAS STATICCALL ISZERO DUP1 ISZERO PUSH2 0xCDE JUMPI RETURNDATASIZE PUSH1 0x0 DUP1 RETURNDATACOPY RETURNDATASIZE PUSH1 0x0 REVERT JUMPDEST PUSH1 0x0 SLOAD PUSH1 0x1 PUSH1 0x1 PUSH1 0xA0 SHL SUB AND CALLER EQ PUSH2 0x1EE9 JUMPI PUSH1 0x40 MLOAD PUSH3 0x461BCD PUSH1 0xE5 SHL DUP2 MSTORE PUSH1 0x20 PUSH1 0x4 DUP3 ADD MSTORE PUSH1 0x28 PUSH1 0x24 DUP3 ADD MSTORE PUSH32 0x4F78576F726B7344414F3A3A5F73657450656E64696E6741646D696E3A206164 PUSH1 0x44 DUP3 ADD MSTORE PUSH8 0x6D696E206F6E6C79 PUSH1 0xC0 SHL PUSH1 0x64 DUP3 ADD MSTORE PUSH1 0x84 ADD PUSH2 0x7EB JUMP JUMPDEST PUSH1 0x1 DUP1 SLOAD PUSH1 0x1 PUSH1 0x1 PUSH1 0xA0 SHL SUB DUP4 DUP2 AND PUSH1 0x1 PUSH1 0x1 PUSH1 0xA0 SHL SUB NOT DUP4 AND DUP2 OR SWAP1 SWAP4 SSTORE PUSH1 0x40 DUP1 MLOAD SWAP2 SWAP1 SWAP3 AND DUP1 DUP3 MSTORE PUSH1 0x20 DUP3 ADD SWAP4 SWAP1 SWAP4 MSTORE PUSH32 0xCA4F2F25D0898EDD99413412FB94012F9E54EC8142F9B093E7720646A95B16A9 SWAP2 ADD PUSH2 0x8AB JUMP JUMPDEST PUSH1 0x3 SLOAD PUSH1 0x1 PUSH1 0x1 PUSH1 0xA0 SHL SUB AND CALLER EQ PUSH2 0x1FAD JUMPI PUSH1 0x40 MLOAD PUSH3 0x461BCD PUSH1 0xE5 SHL DUP2 MSTORE PUSH1 0x20 PUSH1 0x4 DUP3 ADD MSTORE PUSH1 0x27 PUSH1 0x24 DUP3 ADD MSTORE PUSH32 0x4F78576F726B7344414F3A3A5F6275726E5665746F506F7765723A207665746F PUSH1 0x44 DUP3 ADD MSTORE PUSH7 0x6572206F6E6C79 PUSH1 0xC8 SHL PUSH1 0x64 DUP3 ADD MSTORE PUSH1 0x84 ADD PUSH2 0x7EB JUMP JUMPDEST PUSH2 0x1FB7 PUSH1 0x0 PUSH2 0x1C74 JUMP JUMPDEST JUMP JUMPDEST PUSH1 0x0 PUSH2 0x1FED PUSH1 0x40 MLOAD DUP1 PUSH1 0xA0 ADD PUSH1 0x40 MSTORE DUP1 PUSH1 0x0 DUP2 MSTORE PUSH1 0x20 ADD PUSH1 0x0 DUP2 MSTORE PUSH1 0x20 ADD PUSH1 0x0 DUP2 MSTORE PUSH1 0x20 ADD PUSH1 0x0 DUP2 MSTORE PUSH1 0x20 ADD PUSH1 0x0 DUP2 MSTORE POP SWAP1 JUMP JUMPDEST PUSH1 0xA PUSH1 0x0 SWAP1 SLOAD SWAP1 PUSH2 0x100 EXP SWAP1 DIV PUSH1 0x1 PUSH1 0x1 PUSH1 0xA0 SHL SUB AND PUSH1 0x1 PUSH1 0x1 PUSH1 0xA0 SHL SUB AND PUSH4 0x18160DDD PUSH1 0x40 MLOAD DUP2 PUSH4 0xFFFFFFFF AND PUSH1 0xE0 SHL DUP2 MSTORE PUSH1 0x4 ADD PUSH1 0x20 PUSH1 0x40 MLOAD DUP1 DUP4 SUB DUP2 DUP7 GAS STATICCALL ISZERO DUP1 ISZERO PUSH2 0x2040 JUMPI RETURNDATASIZE PUSH1 0x0 DUP1 RETURNDATACOPY RETURNDATASIZE PUSH1 0x0 REVERT JUMPDEST POP POP POP POP PUSH1 0x40 MLOAD RETURNDATASIZE PUSH1 0x1F NOT PUSH1 0x1F DUP3 ADD AND DUP3 ADD DUP1 PUSH1 0x40 MSTORE POP DUP2 ADD SWAP1 PUSH2 0x2064 SWAP2 SWAP1 PUSH2 0x3C96 JUMP JUMPDEST PUSH1 0x1 PUSH1 0x1 PUSH1 0x60 SHL SUB AND DUP1 DUP3 MSTORE PUSH1 0x6 SLOAD PUSH2 0x207C SWAP2 PUSH2 0x2CC6 JUMP JUMPDEST PUSH1 0x20 DUP3 ADD DUP2 SWAP1 MSTORE PUSH1 0xA SLOAD PUSH1 0x1 PUSH1 0x1 PUSH1 0xA0 SHL SUB AND PUSH4 0x782D6FE1 CALLER PUSH2 0x20A0 PUSH1 0x1 NUMBER PUSH2 0x3D30 JUMP JUMPDEST PUSH1 0x40 MLOAD PUSH1 0x1 PUSH1 0x1 PUSH1 0xE0 SHL SUB NOT PUSH1 0xE0 DUP6 SWAP1 SHL AND DUP2 MSTORE PUSH1 0x1 PUSH1 0x1 PUSH1 0xA0 SHL SUB SWAP1 SWAP3 AND PUSH1 0x4 DUP4 ADD MSTORE PUSH1 0x24 DUP3 ADD MSTORE PUSH1 0x44 ADD PUSH1 0x20 PUSH1 0x40 MLOAD DUP1 DUP4 SUB DUP2 DUP7 GAS STATICCALL ISZERO DUP1 ISZERO PUSH2 0x20E9 JUMPI RETURNDATASIZE PUSH1 0x0 DUP1 RETURNDATACOPY RETURNDATASIZE PUSH1 0x0 REVERT JUMPDEST POP POP POP POP PUSH1 0x40 MLOAD RETURNDATASIZE PUSH1 0x1F NOT PUSH1 0x1F DUP3 ADD AND DUP3 ADD DUP1 PUSH1 0x40 MSTORE POP DUP2 ADD SWAP1 PUSH2 0x210D SWAP2 SWAP1 PUSH2 0x3C96 JUMP JUMPDEST PUSH1 0x1 PUSH1 0x1 PUSH1 0x60 SHL SUB AND GT PUSH2 0x2189 JUMPI PUSH1 0x40 MLOAD PUSH3 0x461BCD PUSH1 0xE5 SHL DUP2 MSTORE PUSH1 0x20 PUSH1 0x4 DUP3 ADD MSTORE PUSH1 0x3C PUSH1 0x24 DUP3 ADD MSTORE PUSH32 0x4F78576F726B7344414F3A3A70726F706F73653A2070726F706F73657220766F PUSH1 0x44 DUP3 ADD MSTORE PUSH32 0x7465732062656C6F772070726F706F73616C207468726573686F6C6400000000 PUSH1 0x64 DUP3 ADD MSTORE PUSH1 0x84 ADD PUSH2 0x7EB JUMP JUMPDEST DUP6 MLOAD DUP8 MLOAD EQ DUP1 ISZERO PUSH2 0x219B JUMPI POP DUP5 MLOAD DUP8 MLOAD EQ JUMPDEST DUP1 ISZERO PUSH2 0x21A8 JUMPI POP DUP4 MLOAD DUP8 MLOAD EQ JUMPDEST PUSH2 0x2224 JUMPI PUSH1 0x40 MLOAD PUSH3 0x461BCD PUSH1 0xE5 SHL DUP2 MSTORE PUSH1 0x20 PUSH1 0x4 DUP3 ADD MSTORE PUSH1 0x41 PUSH1 0x24 DUP3 ADD MSTORE PUSH32 0x4F78576F726B7344414F3A3A70726F706F73653A2070726F706F73616C206675 PUSH1 0x44 DUP3 ADD MSTORE PUSH32 0x6E6374696F6E20696E666F726D6174696F6E206172697479206D69736D617463 PUSH1 0x64 DUP3 ADD MSTORE PUSH1 0xD PUSH1 0xFB SHL PUSH1 0x84 DUP3 ADD MSTORE PUSH1 0xA4 ADD PUSH2 0x7EB JUMP JUMPDEST DUP7 MLOAD PUSH2 0x2284 JUMPI PUSH1 0x40 MLOAD PUSH3 0x461BCD PUSH1 0xE5 SHL DUP2 MSTORE PUSH1 0x20 PUSH1 0x4 DUP3 ADD MSTORE PUSH1 0x29 PUSH1 0x24 DUP3 ADD MSTORE PUSH32 0x4F78576F726B7344414F3A3A70726F706F73653A206D7573742070726F766964 PUSH1 0x44 DUP3 ADD MSTORE PUSH9 0x6520616374696F6E73 PUSH1 0xB8 SHL PUSH1 0x64 DUP3 ADD MSTORE PUSH1 0x84 ADD PUSH2 0x7EB JUMP JUMPDEST PUSH1 0xA DUP8 MLOAD GT ISZERO PUSH2 0x22E4 JUMPI PUSH1 0x40 MLOAD PUSH3 0x461BCD PUSH1 0xE5 SHL DUP2 MSTORE PUSH1 0x20 PUSH1 0x4 DUP3 ADD MSTORE PUSH1 0x25 PUSH1 0x24 DUP3 ADD MSTORE PUSH32 0x4F78576F726B7344414F3A3A70726F706F73653A20746F6F206D616E79206163 PUSH1 0x44 DUP3 ADD MSTORE PUSH5 0x74696F6E73 PUSH1 0xD8 SHL PUSH1 0x64 DUP3 ADD MSTORE PUSH1 0x84 ADD PUSH2 0x7EB JUMP JUMPDEST CALLER PUSH1 0x0 SWAP1 DUP2 MSTORE PUSH1 0xC PUSH1 0x20 MSTORE PUSH1 0x40 SWAP1 DUP2 SWAP1 KECCAK256 SLOAD SWAP1 DUP3 ADD DUP2 SWAP1 MSTORE ISZERO PUSH2 0x2461 JUMPI PUSH1 0x0 PUSH2 0x2310 DUP3 PUSH1 0x40 ADD MLOAD PUSH2 0x160B JUMP JUMPDEST SWAP1 POP PUSH1 0x1 DUP2 PUSH1 0x8 DUP2 GT ISZERO PUSH2 0x2326 JUMPI PUSH2 0x2326 PUSH2 0x3679 JUMP JUMPDEST EQ ISZERO PUSH2 0x23B8 JUMPI PUSH1 0x40 MLOAD PUSH3 0x461BCD PUSH1 0xE5 SHL DUP2 MSTORE PUSH1 0x20 PUSH1 0x4 DUP3 ADD MSTORE PUSH1 0x55 PUSH1 0x24 DUP3 ADD MSTORE PUSH32 0x4F78576F726B7344414F3A3A70726F706F73653A206F6E65206C697665207072 PUSH1 0x44 DUP3 ADD MSTORE PUSH32 0x6F706F73616C207065722070726F706F7365722C20666F756E6420616E20616C PUSH1 0x64 DUP3 ADD MSTORE PUSH21 0x1C9958591E481858DD1A5D99481C1C9BDC1BDCD85B PUSH1 0x5A SHL PUSH1 0x84 DUP3 ADD MSTORE PUSH1 0xA4 ADD PUSH2 0x7EB JUMP JUMPDEST PUSH1 0x0 DUP2 PUSH1 0x8 DUP2 GT ISZERO PUSH2 0x23CC JUMPI PUSH2 0x23CC PUSH2 0x3679 JUMP JUMPDEST EQ ISZERO PUSH2 0x245F JUMPI PUSH1 0x40 MLOAD PUSH3 0x461BCD PUSH1 0xE5 SHL DUP2 MSTORE PUSH1 0x20 PUSH1 0x4 DUP3 ADD MSTORE PUSH1 0x56 PUSH1 0x24 DUP3 ADD MSTORE PUSH32 0x4F78576F726B7344414F3A3A70726F706F73653A206F6E65206C697665207072 PUSH1 0x44 DUP3 ADD MSTORE PUSH32 0x6F706F73616C207065722070726F706F7365722C20666F756E6420616E20616C PUSH1 0x64 DUP3 ADD MSTORE PUSH22 0x1C9958591E481C195B991A5B99C81C1C9BDC1BDCD85B PUSH1 0x52 SHL PUSH1 0x84 DUP3 ADD MSTORE PUSH1 0xA4 ADD PUSH2 0x7EB JUMP JUMPDEST POP JUMPDEST PUSH1 0x4 SLOAD PUSH2 0x246E SWAP1 NUMBER PUSH2 0x3D18 JUMP JUMPDEST PUSH1 0x60 DUP3 ADD DUP2 SWAP1 MSTORE PUSH1 0x5 SLOAD PUSH2 0x2481 SWAP2 PUSH2 0x3D18 JUMP JUMPDEST PUSH1 0x80 DUP3 ADD MSTORE PUSH1 0x8 DUP1 SLOAD SWAP1 PUSH1 0x0 PUSH2 0x2496 DUP4 PUSH2 0x3C7B JUMP JUMPDEST SWAP1 SWAP2 SSTORE POP POP PUSH1 0x8 SLOAD PUSH1 0x0 DUP2 DUP2 MSTORE PUSH1 0xB PUSH1 0x20 SWAP1 DUP2 MSTORE PUSH1 0x40 SWAP1 SWAP2 KECCAK256 SWAP2 DUP3 SSTORE PUSH1 0x1 DUP3 ADD DUP1 SLOAD PUSH1 0x1 PUSH1 0x1 PUSH1 0xA0 SHL SUB NOT AND CALLER OR SWAP1 SSTORE DUP3 ADD MLOAD PUSH1 0x2 DUP3 ADD SSTORE PUSH1 0x7 SLOAD DUP3 MLOAD PUSH2 0x24DD SWAP2 SWAP1 PUSH2 0x2CC6 JUMP JUMPDEST PUSH1 0x3 DUP3 ADD SSTORE PUSH1 0x0 PUSH1 0x4 DUP3 ADD SSTORE DUP8 MLOAD PUSH2 0x24FE SWAP1 PUSH1 0x5 DUP4 ADD SWAP1 PUSH1 0x20 DUP12 ADD SWAP1 PUSH2 0x3181 JUMP JUMPDEST POP DUP7 MLOAD PUSH2 0x2514 SWAP1 PUSH1 0x6 DUP4 ADD SWAP1 PUSH1 0x20 DUP11 ADD SWAP1 PUSH2 0x31E6 JUMP JUMPDEST POP DUP6 MLOAD PUSH2 0x252A SWAP1 PUSH1 0x7 DUP4 ADD SWAP1 PUSH1 0x20 DUP10 ADD SWAP1 PUSH2 0x3221 JUMP JUMPDEST POP DUP5 MLOAD PUSH2 0x2540 SWAP1 PUSH1 0x8 DUP4 ADD SWAP1 PUSH1 0x20 DUP9 ADD SWAP1 PUSH2 0x327A JUMP JUMPDEST POP PUSH1 0x60 DUP3 ADD MLOAD PUSH1 0x9 DUP3 ADD SWAP1 DUP2 SSTORE PUSH1 0x80 DUP4 ADD MLOAD PUSH1 0xA DUP4 ADD SWAP1 DUP2 SSTORE PUSH1 0x0 PUSH1 0xB DUP5 ADD DUP2 SWAP1 SSTORE PUSH1 0xC DUP1 DUP6 ADD DUP3 SWAP1 SSTORE PUSH1 0xD DUP6 ADD DUP3 SWAP1 SSTORE PUSH1 0xE DUP6 ADD DUP1 SLOAD PUSH3 0xFFFFFF NOT AND SWAP1 SSTORE DUP5 SLOAD PUSH1 0x1 DUP7 ADD SLOAD PUSH1 0x1 PUSH1 0x1 PUSH1 0xA0 SHL SUB AND DUP4 MSTORE PUSH1 0x20 SWAP2 SWAP1 SWAP2 MSTORE PUSH1 0x40 SWAP2 DUP3 SWAP1 KECCAK256 DUP2 SWAP1 SSTORE SWAP3 SLOAD SWAP2 SLOAD SWAP1 MLOAD PUSH32 0x7D84A6263AE0D98D3329BD7B46BB4E8D6F98CD35A7ADB45C274C8B7FD5EBD5E0 SWAP4 PUSH2 0x25E1 SWAP4 SWAP1 SWAP3 CALLER SWAP3 DUP15 SWAP3 DUP15 SWAP3 DUP15 SWAP3 DUP15 SWAP3 SWAP2 SWAP1 DUP15 SWAP1 PUSH2 0x3DF4 JUMP JUMPDEST PUSH1 0x40 MLOAD DUP1 SWAP2 SUB SWAP1 LOG1 PUSH32 0x6AF0134FAA0F9290C1D686D55012ACA80302D31D5C856E4BC7954F7613DC7F87 DUP2 PUSH1 0x0 ADD SLOAD CALLER DUP11 DUP11 DUP11 DUP11 DUP8 PUSH1 0x9 ADD SLOAD DUP9 PUSH1 0xA ADD SLOAD DUP10 PUSH1 0x2 ADD SLOAD DUP11 PUSH1 0x3 ADD SLOAD DUP15 PUSH1 0x40 MLOAD PUSH2 0x2640 SWAP12 SWAP11 SWAP10 SWAP9 SWAP8 SWAP7 SWAP6 SWAP5 SWAP4 SWAP3 SWAP2 SWAP1 PUSH2 0x3E8C JUMP JUMPDEST PUSH1 0x40 MLOAD DUP1 SWAP2 SUB SWAP1 LOG1 SLOAD SWAP8 SWAP7 POP POP POP POP POP POP POP JUMP JUMPDEST PUSH1 0x4 PUSH2 0x265F DUP3 PUSH2 0x160B JUMP JUMPDEST PUSH1 0x8 DUP2 GT ISZERO PUSH2 0x2670 JUMPI PUSH2 0x2670 PUSH2 0x3679 JUMP JUMPDEST EQ PUSH2 0x26ED JUMPI PUSH1 0x40 MLOAD PUSH3 0x461BCD PUSH1 0xE5 SHL DUP2 MSTORE PUSH1 0x20 PUSH1 0x4 DUP3 ADD MSTORE PUSH1 0x41 PUSH1 0x24 DUP3 ADD MSTORE PUSH32 0x4F78576F726B7344414F3A3A71756575653A2070726F706F73616C2063616E20 PUSH1 0x44 DUP3 ADD MSTORE PUSH32 0x6F6E6C7920626520717565756564206966206974206973207375636365656465 PUSH1 0x64 DUP3 ADD MSTORE PUSH1 0x19 PUSH1 0xFA SHL PUSH1 0x84 DUP3 ADD MSTORE PUSH1 0xA4 ADD PUSH2 0x7EB JUMP JUMPDEST PUSH1 0x0 DUP2 DUP2 MSTORE PUSH1 0xB PUSH1 0x20 SWAP1 DUP2 MSTORE PUSH1 0x40 DUP1 DUP4 KECCAK256 PUSH1 0x9 SLOAD DUP3 MLOAD PUSH4 0xD48571F PUSH1 0xE3 SHL DUP2 MSTORE SWAP3 MLOAD SWAP2 SWAP5 SWAP4 PUSH1 0x1 PUSH1 0x1 PUSH1 0xA0 SHL SUB SWAP1 SWAP2 AND SWAP3 PUSH4 0x6A42B8F8 SWAP3 PUSH1 0x4 DUP1 DUP4 ADD SWAP4 SWAP3 DUP3 SWAP1 SUB ADD DUP2 DUP7 GAS STATICCALL ISZERO DUP1 ISZERO PUSH2 0x2744 JUMPI RETURNDATASIZE PUSH1 0x0 DUP1 RETURNDATACOPY RETURNDATASIZE PUSH1 0x0 REVERT JUMPDEST POP POP POP POP PUSH1 0x40 MLOAD RETURNDATASIZE PUSH1 0x1F NOT PUSH1 0x1F DUP3 ADD AND DUP3 ADD DUP1 PUSH1 0x40 MSTORE POP DUP2 ADD SWAP1 PUSH2 0x2768 SWAP2 SWAP1 PUSH2 0x3CFF JUMP JUMPDEST PUSH2 0x2772 SWAP1 TIMESTAMP PUSH2 0x3D18 JUMP JUMPDEST SWAP1 POP PUSH1 0x0 JUMPDEST PUSH1 0x5 DUP4 ADD SLOAD DUP2 LT ISZERO PUSH2 0x293C JUMPI PUSH2 0x292A DUP4 PUSH1 0x5 ADD DUP3 DUP2 SLOAD DUP2 LT PUSH2 0x279B JUMPI PUSH2 0x279B PUSH2 0x3B2D JUMP JUMPDEST PUSH1 0x0 SWAP2 DUP3 MSTORE PUSH1 0x20 SWAP1 SWAP2 KECCAK256 ADD SLOAD PUSH1 0x6 DUP6 ADD DUP1 SLOAD PUSH1 0x1 PUSH1 0x1 PUSH1 0xA0 SHL SUB SWAP1 SWAP3 AND SWAP2 DUP5 SWAP1 DUP2 LT PUSH2 0x27C9 JUMPI PUSH2 0x27C9 PUSH2 0x3B2D JUMP JUMPDEST SWAP1 PUSH1 0x0 MSTORE PUSH1 0x20 PUSH1 0x0 KECCAK256 ADD SLOAD DUP6 PUSH1 0x7 ADD DUP5 DUP2 SLOAD DUP2 LT PUSH2 0x27E9 JUMPI PUSH2 0x27E9 PUSH2 0x3B2D JUMP JUMPDEST SWAP1 PUSH1 0x0 MSTORE PUSH1 0x20 PUSH1 0x0 KECCAK256 ADD DUP1 SLOAD PUSH2 0x27FE SWAP1 PUSH2 0x3B43 JUMP JUMPDEST DUP1 PUSH1 0x1F ADD PUSH1 0x20 DUP1 SWAP2 DIV MUL PUSH1 0x20 ADD PUSH1 0x40 MLOAD SWAP1 DUP2 ADD PUSH1 0x40 MSTORE DUP1 SWAP3 SWAP2 SWAP1 DUP2 DUP2 MSTORE PUSH1 0x20 ADD DUP3 DUP1 SLOAD PUSH2 0x282A SWAP1 PUSH2 0x3B43 JUMP JUMPDEST DUP1 ISZERO PUSH2 0x2877 JUMPI DUP1 PUSH1 0x1F LT PUSH2 0x284C JUMPI PUSH2 0x100 DUP1 DUP4 SLOAD DIV MUL DUP4 MSTORE SWAP2 PUSH1 0x20 ADD SWAP2 PUSH2 0x2877 JUMP JUMPDEST DUP3 ADD SWAP2 SWAP1 PUSH1 0x0 MSTORE PUSH1 0x20 PUSH1 0x0 KECCAK256 SWAP1 JUMPDEST DUP2 SLOAD DUP2 MSTORE SWAP1 PUSH1 0x1 ADD SWAP1 PUSH1 0x20 ADD DUP1 DUP4 GT PUSH2 0x285A JUMPI DUP3 SWAP1 SUB PUSH1 0x1F AND DUP3 ADD SWAP2 JUMPDEST POP POP POP POP POP DUP7 PUSH1 0x8 ADD DUP6 DUP2 SLOAD DUP2 LT PUSH2 0x2891 JUMPI PUSH2 0x2891 PUSH2 0x3B2D JUMP JUMPDEST SWAP1 PUSH1 0x0 MSTORE PUSH1 0x20 PUSH1 0x0 KECCAK256 ADD DUP1 SLOAD PUSH2 0x28A6 SWAP1 PUSH2 0x3B43 JUMP JUMPDEST DUP1 PUSH1 0x1F ADD PUSH1 0x20 DUP1 SWAP2 DIV MUL PUSH1 0x20 ADD PUSH1 0x40 MLOAD SWAP1 DUP2 ADD PUSH1 0x40 MSTORE DUP1 SWAP3 SWAP2 SWAP1 DUP2 DUP2 MSTORE PUSH1 0x20 ADD DUP3 DUP1 SLOAD PUSH2 0x28D2 SWAP1 PUSH2 0x3B43 JUMP JUMPDEST DUP1 ISZERO PUSH2 0x291F JUMPI DUP1 PUSH1 0x1F LT PUSH2 0x28F4 JUMPI PUSH2 0x100 DUP1 DUP4 SLOAD DIV MUL DUP4 MSTORE SWAP2 PUSH1 0x20 ADD SWAP2 PUSH2 0x291F JUMP JUMPDEST DUP3 ADD SWAP2 SWAP1 PUSH1 0x0 MSTORE PUSH1 0x20 PUSH1 0x0 KECCAK256 SWAP1 JUMPDEST DUP2 SLOAD DUP2 MSTORE SWAP1 PUSH1 0x1 ADD SWAP1 PUSH1 0x20 ADD DUP1 DUP4 GT PUSH2 0x2902 JUMPI DUP3 SWAP1 SUB PUSH1 0x1F AND DUP3 ADD SWAP2 JUMPDEST POP POP POP POP POP DUP7 PUSH2 0x2FCD JUMP JUMPDEST DUP1 PUSH2 0x2934 DUP2 PUSH2 0x3C7B JUMP JUMPDEST SWAP2 POP POP PUSH2 0x2777 JUMP JUMPDEST POP PUSH1 0x4 DUP3 ADD DUP2 SWAP1 SSTORE PUSH1 0x40 DUP1 MLOAD DUP5 DUP2 MSTORE PUSH1 0x20 DUP2 ADD DUP4 SWAP1 MSTORE PUSH32 0x9A2E42FD6722813D69113E7D0079D3D940171428DF7373DF9C7F7617CFDA2892 SWAP2 ADD PUSH1 0x40 MLOAD DUP1 SWAP2 SUB SWAP1 LOG1 POP POP POP JUMP JUMPDEST PUSH1 0x1 SLOAD PUSH1 0x1 PUSH1 0x1 PUSH1 0xA0 SHL SUB AND CALLER EQ DUP1 ISZERO PUSH2 0x299B JUMPI POP CALLER ISZERO ISZERO JUMPDEST PUSH2 0x29FC JUMPI PUSH1 0x40 MLOAD PUSH3 0x461BCD PUSH1 0xE5 SHL DUP2 MSTORE PUSH1 0x20 PUSH1 0x4 DUP3 ADD MSTORE PUSH1 0x2C PUSH1 0x24 DUP3 ADD MSTORE PUSH32 0x4F78576F726B7344414F3A3A5F61636365707441646D696E3A2070656E64696E PUSH1 0x44 DUP3 ADD MSTORE PUSH12 0x672061646D696E206F6E6C79 PUSH1 0xA0 SHL PUSH1 0x64 DUP3 ADD MSTORE PUSH1 0x84 ADD PUSH2 0x7EB JUMP JUMPDEST PUSH1 0x0 DUP1 SLOAD PUSH1 0x1 DUP1 SLOAD PUSH1 0x1 PUSH1 0x1 PUSH1 0xA0 SHL SUB DUP1 DUP3 AND PUSH1 0x1 PUSH1 0x1 PUSH1 0xA0 SHL SUB NOT DUP1 DUP7 AND DUP3 OR SWAP1 SWAP7 SSTORE SWAP5 SWAP1 SWAP2 AND SWAP1 SWAP2 SSTORE PUSH1 0x40 DUP1 MLOAD SWAP2 SWAP1 SWAP3 AND DUP1 DUP3 MSTORE PUSH1 0x20 DUP3 ADD DUP5 SWAP1 MSTORE SWAP3 SWAP2 PUSH32 0xF9FFABCA9C8276E99321725BCB43FB076A6C66A54B7F21C4E8146D8519B417DC SWAP2 ADD PUSH1 0x40 MLOAD DUP1 SWAP2 SUB SWAP1 LOG1 PUSH1 0x1 SLOAD PUSH1 0x40 DUP1 MLOAD PUSH1 0x1 PUSH1 0x1 PUSH1 0xA0 SHL SUB DUP1 DUP6 AND DUP3 MSTORE SWAP1 SWAP3 AND PUSH1 0x20 DUP4 ADD MSTORE PUSH32 0xCA4F2F25D0898EDD99413412FB94012F9E54EC8142F9B093E7720646A95B16A9 SWAP2 ADD PUSH2 0x8AB JUMP JUMPDEST PUSH1 0x5 PUSH2 0x2AB5 DUP3 PUSH2 0x160B JUMP JUMPDEST PUSH1 0x8 DUP2 GT ISZERO PUSH2 0x2AC6 JUMPI PUSH2 0x2AC6 PUSH2 0x3679 JUMP JUMPDEST EQ PUSH2 0x2B44 JUMPI PUSH1 0x40 MLOAD PUSH3 0x461BCD PUSH1 0xE5 SHL DUP2 MSTORE PUSH1 0x20 PUSH1 0x4 DUP3 ADD MSTORE PUSH1 0x42 PUSH1 0x24 DUP3 ADD MSTORE PUSH32 0x4F78576F726B7344414F3A3A657865637574653A2070726F706F73616C206361 PUSH1 0x44 DUP3 ADD MSTORE PUSH32 0x6E206F6E6C792062652065786563757465642069662069742069732071756575 PUSH1 0x64 DUP3 ADD MSTORE PUSH2 0x1959 PUSH1 0xF2 SHL PUSH1 0x84 DUP3 ADD MSTORE PUSH1 0xA4 ADD PUSH2 0x7EB JUMP JUMPDEST PUSH1 0x0 DUP2 DUP2 MSTORE PUSH1 0xB PUSH1 0x20 MSTORE PUSH1 0x40 DUP2 KECCAK256 PUSH1 0xE DUP2 ADD DUP1 SLOAD PUSH3 0xFF0000 NOT AND PUSH3 0x10000 OR SWAP1 SSTORE SWAP1 JUMPDEST PUSH1 0x5 DUP3 ADD SLOAD DUP2 LT ISZERO PUSH2 0x2C95 JUMPI PUSH1 0x9 SLOAD PUSH1 0x5 DUP4 ADD DUP1 SLOAD PUSH1 0x1 PUSH1 0x1 PUSH1 0xA0 SHL SUB SWAP1 SWAP3 AND SWAP2 PUSH4 0x825F38F SWAP2 SWAP1 DUP5 SWAP1 DUP2 LT PUSH2 0x2B9F JUMPI PUSH2 0x2B9F PUSH2 0x3B2D JUMP JUMPDEST PUSH1 0x0 SWAP2 DUP3 MSTORE PUSH1 0x20 SWAP1 SWAP2 KECCAK256 ADD SLOAD PUSH1 0x6 DUP6 ADD DUP1 SLOAD PUSH1 0x1 PUSH1 0x1 PUSH1 0xA0 SHL SUB SWAP1 SWAP3 AND SWAP2 DUP6 SWAP1 DUP2 LT PUSH2 0x2BCD JUMPI PUSH2 0x2BCD PUSH2 0x3B2D JUMP JUMPDEST SWAP1 PUSH1 0x0 MSTORE PUSH1 0x20 PUSH1 0x0 KECCAK256 ADD SLOAD DUP6 PUSH1 0x7 ADD DUP6 DUP2 SLOAD DUP2 LT PUSH2 0x2BED JUMPI PUSH2 0x2BED PUSH2 0x3B2D JUMP JUMPDEST SWAP1 PUSH1 0x0 MSTORE PUSH1 0x20 PUSH1 0x0 KECCAK256 ADD DUP7 PUSH1 0x8 ADD DUP7 DUP2 SLOAD DUP2 LT PUSH2 0x2C0C JUMPI PUSH2 0x2C0C PUSH2 0x3B2D JUMP JUMPDEST SWAP1 PUSH1 0x0 MSTORE PUSH1 0x20 PUSH1 0x0 KECCAK256 ADD DUP8 PUSH1 0x4 ADD SLOAD PUSH1 0x40 MLOAD DUP7 PUSH4 0xFFFFFFFF AND PUSH1 0xE0 SHL DUP2 MSTORE PUSH1 0x4 ADD PUSH2 0x2C3B SWAP6 SWAP5 SWAP4 SWAP3 SWAP2 SWAP1 PUSH2 0x3C19 JUMP JUMPDEST PUSH1 0x0 PUSH1 0x40 MLOAD DUP1 DUP4 SUB DUP2 PUSH1 0x0 DUP8 GAS CALL ISZERO DUP1 ISZERO PUSH2 0x2C5A JUMPI RETURNDATASIZE PUSH1 0x0 DUP1 RETURNDATACOPY RETURNDATASIZE PUSH1 0x0 REVERT JUMPDEST POP POP POP POP PUSH1 0x40 MLOAD RETURNDATASIZE PUSH1 0x0 DUP3 RETURNDATACOPY PUSH1 0x1F RETURNDATASIZE SWAP1 DUP2 ADD PUSH1 0x1F NOT AND DUP3 ADD PUSH1 0x40 MSTORE PUSH2 0x2C82 SWAP2 SWAP1 DUP2 ADD SWAP1 PUSH2 0x3F34 JUMP JUMPDEST POP DUP1 PUSH2 0x2C8D DUP2 PUSH2 0x3C7B JUMP JUMPDEST SWAP2 POP POP PUSH2 0x2B67 JUMP JUMPDEST POP PUSH1 0x40 MLOAD DUP3 DUP2 MSTORE PUSH32 0x712AE1383F79AC853F8D882153778E0260EF8F03B504E2866E0593E04D2B291F SWAP1 PUSH1 0x20 ADD PUSH2 0x8AB JUMP JUMPDEST PUSH1 0x0 PUSH2 0x2710 PUSH2 0x2CD5 DUP5 DUP5 PUSH2 0x3FAB JUMP JUMPDEST PUSH2 0x2CDF SWAP2 SWAP1 PUSH2 0x3FCA JUMP JUMPDEST SWAP4 SWAP3 POP POP POP JUMP JUMPDEST PUSH1 0x0 PUSH1 0x1 PUSH2 0x2CF3 DUP5 PUSH2 0x160B JUMP JUMPDEST PUSH1 0x8 DUP2 GT ISZERO PUSH2 0x2D04 JUMPI PUSH2 0x2D04 PUSH2 0x3679 JUMP JUMPDEST EQ PUSH2 0x2D68 JUMPI PUSH1 0x40 MLOAD PUSH3 0x461BCD PUSH1 0xE5 SHL DUP2 MSTORE PUSH1 0x20 PUSH1 0x4 DUP3 ADD MSTORE PUSH1 0x2E PUSH1 0x24 DUP3 ADD MSTORE PUSH32 0x4F78576F726B7344414F3A3A63617374566F7465496E7465726E616C3A20766F PUSH1 0x44 DUP3 ADD MSTORE PUSH14 0x1D1A5B99C81A5CC818DB1BDCD959 PUSH1 0x92 SHL PUSH1 0x64 DUP3 ADD MSTORE PUSH1 0x84 ADD PUSH2 0x7EB JUMP JUMPDEST PUSH1 0x2 DUP3 PUSH1 0xFF AND GT ISZERO PUSH2 0x2DD4 JUMPI PUSH1 0x40 MLOAD PUSH3 0x461BCD PUSH1 0xE5 SHL DUP2 MSTORE PUSH1 0x20 PUSH1 0x4 DUP3 ADD MSTORE PUSH1 0x2F PUSH1 0x24 DUP3 ADD MSTORE PUSH32 0x4F78576F726B7344414F3A3A63617374566F7465496E7465726E616C3A20696E PUSH1 0x44 DUP3 ADD MSTORE PUSH15 0x76616C696420766F74652074797065 PUSH1 0x88 SHL PUSH1 0x64 DUP3 ADD MSTORE PUSH1 0x84 ADD PUSH2 0x7EB JUMP JUMPDEST PUSH1 0x0 DUP4 DUP2 MSTORE PUSH1 0xB PUSH1 0x20 SWAP1 DUP2 MSTORE PUSH1 0x40 DUP1 DUP4 KECCAK256 PUSH1 0x1 PUSH1 0x1 PUSH1 0xA0 SHL SUB DUP9 AND DUP5 MSTORE PUSH1 0xF DUP2 ADD SWAP1 SWAP3 MSTORE SWAP1 SWAP2 KECCAK256 DUP1 SLOAD PUSH1 0xFF AND ISZERO PUSH2 0x2E67 JUMPI PUSH1 0x40 MLOAD PUSH3 0x461BCD PUSH1 0xE5 SHL DUP2 MSTORE PUSH1 0x20 PUSH1 0x4 DUP3 ADD MSTORE PUSH1 0x31 PUSH1 0x24 DUP3 ADD MSTORE PUSH32 0x4F78576F726B7344414F3A3A63617374566F7465496E7465726E616C3A20766F PUSH1 0x44 DUP3 ADD MSTORE PUSH17 0x1D195C88185B1C9958591E481D9BDD1959 PUSH1 0x7A SHL PUSH1 0x64 DUP3 ADD MSTORE PUSH1 0x84 ADD PUSH2 0x7EB JUMP JUMPDEST PUSH1 0xA SLOAD PUSH1 0x4 SLOAD PUSH1 0x9 DUP5 ADD SLOAD PUSH1 0x0 SWAP3 PUSH1 0x1 PUSH1 0x1 PUSH1 0xA0 SHL SUB AND SWAP2 PUSH4 0x782D6FE1 SWAP2 DUP11 SWAP2 PUSH2 0x2E90 SWAP2 PUSH2 0x3D30 JUMP JUMPDEST PUSH1 0x40 MLOAD PUSH1 0x1 PUSH1 0x1 PUSH1 0xE0 SHL SUB NOT PUSH1 0xE0 DUP6 SWAP1 SHL AND DUP2 MSTORE PUSH1 0x1 PUSH1 0x1 PUSH1 0xA0 SHL SUB SWAP1 SWAP3 AND PUSH1 0x4 DUP4 ADD MSTORE PUSH1 0x24 DUP3 ADD MSTORE PUSH1 0x44 ADD PUSH1 0x20 PUSH1 0x40 MLOAD DUP1 DUP4 SUB DUP2 DUP7 GAS STATICCALL ISZERO DUP1 ISZERO PUSH2 0x2ED9 JUMPI RETURNDATASIZE PUSH1 0x0 DUP1 RETURNDATACOPY RETURNDATASIZE PUSH1 0x0 REVERT JUMPDEST POP POP POP POP PUSH1 0x40 MLOAD RETURNDATASIZE PUSH1 0x1F NOT PUSH1 0x1F DUP3 ADD AND DUP3 ADD DUP1 PUSH1 0x40 MSTORE POP DUP2 ADD SWAP1 PUSH2 0x2EFD SWAP2 SWAP1 PUSH2 0x3C96 JUMP JUMPDEST SWAP1 POP PUSH1 0xFF DUP6 AND PUSH2 0x2F2A JUMPI DUP1 PUSH1 0x1 PUSH1 0x1 PUSH1 0x60 SHL SUB AND DUP4 PUSH1 0xC ADD SLOAD PUSH2 0x2F20 SWAP2 SWAP1 PUSH2 0x3D18 JUMP JUMPDEST PUSH1 0xC DUP5 ADD SSTORE PUSH2 0x2F84 JUMP JUMPDEST DUP5 PUSH1 0xFF AND PUSH1 0x1 EQ ISZERO PUSH2 0x2F59 JUMPI DUP1 PUSH1 0x1 PUSH1 0x1 PUSH1 0x60 SHL SUB AND DUP4 PUSH1 0xB ADD SLOAD PUSH2 0x2F4F SWAP2 SWAP1 PUSH2 0x3D18 JUMP JUMPDEST PUSH1 0xB DUP5 ADD SSTORE PUSH2 0x2F84 JUMP JUMPDEST DUP5 PUSH1 0xFF AND PUSH1 0x2 EQ ISZERO PUSH2 0x2F84 JUMPI DUP1 PUSH1 0x1 PUSH1 0x1 PUSH1 0x60 SHL SUB AND DUP4 PUSH1 0xD ADD SLOAD PUSH2 0x2F7E SWAP2 SWAP1 PUSH2 0x3D18 JUMP JUMPDEST PUSH1 0xD DUP5 ADD SSTORE JUMPDEST DUP2 SLOAD PUSH1 0x1 PUSH1 0x1 PUSH1 0x60 SHL SUB DUP3 AND PUSH3 0x10000 MUL PUSH14 0xFFFFFFFFFFFFFFFFFFFFFFFF0000 NOT PUSH1 0xFF DUP9 AND PUSH2 0x100 MUL PUSH2 0xFFFF NOT SWAP1 SWAP4 AND SWAP3 SWAP1 SWAP3 OR PUSH1 0x1 OR SWAP2 SWAP1 SWAP2 AND OR SWAP1 SWAP2 SSTORE SWAP2 POP POP SWAP4 SWAP3 POP POP POP JUMP JUMPDEST PUSH1 0x9 SLOAD PUSH1 0x40 MLOAD PUSH1 0x1 PUSH1 0x1 PUSH1 0xA0 SHL SUB SWAP1 SWAP2 AND SWAP1 PUSH4 0xF2B06537 SWAP1 PUSH2 0x2FFB SWAP1 DUP9 SWAP1 DUP9 SWAP1 DUP9 SWAP1 DUP9 SWAP1 DUP9 SWAP1 PUSH1 0x20 ADD PUSH2 0x3FEC JUMP JUMPDEST PUSH1 0x40 MLOAD PUSH1 0x20 DUP2 DUP4 SUB SUB DUP2 MSTORE SWAP1 PUSH1 0x40 MSTORE DUP1 MLOAD SWAP1 PUSH1 0x20 ADD KECCAK256 PUSH1 0x40 MLOAD DUP3 PUSH4 0xFFFFFFFF AND PUSH1 0xE0 SHL DUP2 MSTORE PUSH1 0x4 ADD PUSH2 0x302F SWAP2 DUP2 MSTORE PUSH1 0x20 ADD SWAP1 JUMP JUMPDEST PUSH1 0x20 PUSH1 0x40 MLOAD DUP1 DUP4 SUB DUP2 DUP7 GAS STATICCALL ISZERO DUP1 ISZERO PUSH2 0x304C JUMPI RETURNDATASIZE PUSH1 0x0 DUP1 RETURNDATACOPY RETURNDATASIZE PUSH1 0x0 REVERT JUMPDEST POP POP POP POP PUSH1 0x40 MLOAD RETURNDATASIZE PUSH1 0x1F NOT PUSH1 0x1F DUP3 ADD AND DUP3 ADD DUP1 PUSH1 0x40 MSTORE POP DUP2 ADD SWAP1 PUSH2 0x3070 SWAP2 SWAP1 PUSH2 0x4025 JUMP JUMPDEST ISZERO PUSH2 0x30FE JUMPI PUSH1 0x40 MLOAD PUSH3 0x461BCD PUSH1 0xE5 SHL DUP2 MSTORE PUSH1 0x20 PUSH1 0x4 DUP3 ADD MSTORE PUSH1 0x52 PUSH1 0x24 DUP3 ADD MSTORE PUSH32 0x4F78576F726B7344414F3A3A71756575654F72526576657274496E7465726E61 PUSH1 0x44 DUP3 ADD MSTORE PUSH32 0x6C3A206964656E746963616C2070726F706F73616C20616374696F6E20616C72 PUSH1 0x64 DUP3 ADD MSTORE PUSH18 0x656164792071756575656420617420657461 PUSH1 0x70 SHL PUSH1 0x84 DUP3 ADD MSTORE PUSH1 0xA4 ADD PUSH2 0x7EB JUMP JUMPDEST PUSH1 0x9 SLOAD PUSH1 0x40 MLOAD PUSH4 0x3A66F901 PUSH1 0xE0 SHL DUP2 MSTORE PUSH1 0x1 PUSH1 0x1 PUSH1 0xA0 SHL SUB SWAP1 SWAP2 AND SWAP1 PUSH4 0x3A66F901 SWAP1 PUSH2 0x3136 SWAP1 DUP9 SWAP1 DUP9 SWAP1 DUP9 SWAP1 DUP9 SWAP1 DUP9 SWAP1 PUSH1 0x4 ADD PUSH2 0x3FEC JUMP JUMPDEST PUSH1 0x20 PUSH1 0x40 MLOAD DUP1 DUP4 SUB DUP2 PUSH1 0x0 DUP8 GAS CALL ISZERO DUP1 ISZERO PUSH2 0x3155 JUMPI RETURNDATASIZE PUSH1 0x0 DUP1 RETURNDATACOPY RETURNDATASIZE PUSH1 0x0 REVERT JUMPDEST POP POP POP POP PUSH1 0x40 MLOAD RETURNDATASIZE PUSH1 0x1F NOT PUSH1 0x1F DUP3 ADD AND DUP3 ADD DUP1 PUSH1 0x40 MSTORE POP DUP2 ADD SWAP1 PUSH2 0x3179 SWAP2 SWAP1 PUSH2 0x3CFF JUMP JUMPDEST POP POP POP POP POP POP JUMP JUMPDEST DUP3 DUP1 SLOAD DUP3 DUP3 SSTORE SWAP1 PUSH1 0x0 MSTORE PUSH1 0x20 PUSH1 0x0 KECCAK256 SWAP1 DUP2 ADD SWAP3 DUP3 ISZERO PUSH2 0x31D6 JUMPI SWAP2 PUSH1 0x20 MUL DUP3 ADD JUMPDEST DUP3 DUP2 GT ISZERO PUSH2 0x31D6 JUMPI DUP3 MLOAD DUP3 SLOAD PUSH1 0x1 PUSH1 0x1 PUSH1 0xA0 SHL SUB NOT AND PUSH1 0x1 PUSH1 0x1 PUSH1 0xA0 SHL SUB SWAP1 SWAP2 AND OR DUP3 SSTORE PUSH1 0x20 SWAP1 SWAP3 ADD SWAP2 PUSH1 0x1 SWAP1 SWAP2 ADD SWAP1 PUSH2 0x31A1 JUMP JUMPDEST POP PUSH2 0x31E2 SWAP3 SWAP2 POP PUSH2 0x32D3 JUMP JUMPDEST POP SWAP1 JUMP JUMPDEST DUP3 DUP1 SLOAD DUP3 DUP3 SSTORE SWAP1 PUSH1 0x0 MSTORE PUSH1 0x20 PUSH1 0x0 KECCAK256 SWAP1 DUP2 ADD SWAP3 DUP3 ISZERO PUSH2 0x31D6 JUMPI SWAP2 PUSH1 0x20 MUL DUP3 ADD JUMPDEST DUP3 DUP2 GT ISZERO PUSH2 0x31D6 JUMPI DUP3 MLOAD DUP3 SSTORE SWAP2 PUSH1 0x20 ADD SWAP2 SWAP1 PUSH1 0x1 ADD SWAP1 PUSH2 0x3206 JUMP JUMPDEST DUP3 DUP1 SLOAD DUP3 DUP3 SSTORE SWAP1 PUSH1 0x0 MSTORE PUSH1 0x20 PUSH1 0x0 KECCAK256 SWAP1 DUP2 ADD SWAP3 DUP3 ISZERO PUSH2 0x326E JUMPI SWAP2 PUSH1 0x20 MUL DUP3 ADD JUMPDEST DUP3 DUP2 GT ISZERO PUSH2 0x326E JUMPI DUP3 MLOAD DUP1 MLOAD PUSH2 0x325E SWAP2 DUP5 SWAP2 PUSH1 0x20 SWAP1 SWAP2 ADD SWAP1 PUSH2 0x32E8 JUMP JUMPDEST POP SWAP2 PUSH1 0x20 ADD SWAP2 SWAP1 PUSH1 0x1 ADD SWAP1 PUSH2 0x3241 JUMP JUMPDEST POP PUSH2 0x31E2 SWAP3 SWAP2 POP PUSH2 0x335B JUMP JUMPDEST DUP3 DUP1 SLOAD DUP3 DUP3 SSTORE SWAP1 PUSH1 0x0 MSTORE PUSH1 0x20 PUSH1 0x0 KECCAK256 SWAP1 DUP2 ADD SWAP3 DUP3 ISZERO PUSH2 0x32C7 JUMPI SWAP2 PUSH1 0x20 MUL DUP3 ADD JUMPDEST DUP3 DUP2 GT ISZERO PUSH2 0x32C7 JUMPI DUP3 MLOAD DUP1 MLOAD PUSH2 0x32B7 SWAP2 DUP5 SWAP2 PUSH1 0x20 SWAP1 SWAP2 ADD SWAP1 PUSH2 0x32E8 JUMP JUMPDEST POP SWAP2 PUSH1 0x20 ADD SWAP2 SWAP1 PUSH1 0x1 ADD SWAP1 PUSH2 0x329A JUMP JUMPDEST POP PUSH2 0x31E2 SWAP3 SWAP2 POP PUSH2 0x3378 JUMP JUMPDEST JUMPDEST DUP1 DUP3 GT ISZERO PUSH2 0x31E2 JUMPI PUSH1 0x0 DUP2 SSTORE PUSH1 0x1 ADD PUSH2 0x32D4 JUMP JUMPDEST DUP3 DUP1 SLOAD PUSH2 0x32F4 SWAP1 PUSH2 0x3B43 JUMP JUMPDEST SWAP1 PUSH1 0x0 MSTORE PUSH1 0x20 PUSH1 0x0 KECCAK256 SWAP1 PUSH1 0x1F ADD PUSH1 0x20 SWAP1 DIV DUP2 ADD SWAP3 DUP3 PUSH2 0x3316 JUMPI PUSH1 0x0 DUP6 SSTORE PUSH2 0x31D6 JUMP JUMPDEST DUP3 PUSH1 0x1F LT PUSH2 0x332F JUMPI DUP1 MLOAD PUSH1 0xFF NOT AND DUP4 DUP1 ADD OR DUP6 SSTORE PUSH2 0x31D6 JUMP JUMPDEST DUP3 DUP1 ADD PUSH1 0x1 ADD DUP6 SSTORE DUP3 ISZERO PUSH2 0x31D6 JUMPI SWAP2 DUP3 ADD DUP3 DUP2 GT ISZERO PUSH2 0x31D6 JUMPI DUP3 MLOAD DUP3 SSTORE SWAP2 PUSH1 0x20 ADD SWAP2 SWAP1 PUSH1 0x1 ADD SWAP1 PUSH2 0x3206 JUMP JUMPDEST DUP1 DUP3 GT ISZERO PUSH2 0x31E2 JUMPI PUSH1 0x0 PUSH2 0x336F DUP3 DUP3 PUSH2 0x3395 JUMP JUMPDEST POP PUSH1 0x1 ADD PUSH2 0x335B JUMP JUMPDEST DUP1 DUP3 GT ISZERO PUSH2 0x31E2 JUMPI PUSH1 0x0 PUSH2 0x338C DUP3 DUP3 PUSH2 0x3395 JUMP JUMPDEST POP PUSH1 0x1 ADD PUSH2 0x3378 JUMP JUMPDEST POP DUP1 SLOAD PUSH2 0x33A1 SWAP1 PUSH2 0x3B43 JUMP JUMPDEST PUSH1 0x0 DUP3 SSTORE DUP1 PUSH1 0x1F LT PUSH2 0x33B1 JUMPI POP POP JUMP JUMPDEST PUSH1 0x1F ADD PUSH1 0x20 SWAP1 DIV SWAP1 PUSH1 0x0 MSTORE PUSH1 0x20 PUSH1 0x0 KECCAK256 SWAP1 DUP2 ADD SWAP1 PUSH2 0x33CF SWAP2 SWAP1 PUSH2 0x32D3 JUMP JUMPDEST POP JUMP JUMPDEST PUSH1 0x0 PUSH1 0x20 DUP3 DUP5 SUB SLT ISZERO PUSH2 0x33E4 JUMPI PUSH1 0x0 DUP1 REVERT JUMPDEST POP CALLDATALOAD SWAP2 SWAP1 POP JUMP JUMPDEST PUSH1 0x0 JUMPDEST DUP4 DUP2 LT ISZERO PUSH2 0x3406 JUMPI DUP2 DUP2 ADD MLOAD DUP4 DUP3 ADD MSTORE PUSH1 0x20 ADD PUSH2 0x33EE JUMP JUMPDEST DUP4 DUP2 GT ISZERO PUSH2 0x3415 JUMPI PUSH1 0x0 DUP5 DUP5 ADD MSTORE JUMPDEST POP POP POP POP JUMP JUMPDEST PUSH1 0x0 DUP2 MLOAD DUP1 DUP5 MSTORE PUSH2 0x3433 DUP2 PUSH1 0x20 DUP7 ADD PUSH1 0x20 DUP7 ADD PUSH2 0x33EB JUMP JUMPDEST PUSH1 0x1F ADD PUSH1 0x1F NOT AND SWAP3 SWAP1 SWAP3 ADD PUSH1 0x20 ADD SWAP3 SWAP2 POP POP JUMP JUMPDEST PUSH1 0x20 DUP2 MSTORE PUSH1 0x0 PUSH2 0x2CDF PUSH1 0x20 DUP4 ADD DUP5 PUSH2 0x341B JUMP JUMPDEST DUP1 CALLDATALOAD PUSH1 0x1 PUSH1 0x1 PUSH1 0xA0 SHL SUB DUP2 AND DUP2 EQ PUSH2 0x3471 JUMPI PUSH1 0x0 DUP1 REVERT JUMPDEST SWAP2 SWAP1 POP JUMP JUMPDEST PUSH1 0x0 PUSH1 0x20 DUP3 DUP5 SUB SLT ISZERO PUSH2 0x3488 JUMPI PUSH1 0x0 DUP1 REVERT JUMPDEST PUSH2 0x2CDF DUP3 PUSH2 0x345A JUMP JUMPDEST PUSH1 0x0 DUP1 PUSH1 0x0 DUP1 PUSH1 0x0 DUP1 PUSH1 0x0 PUSH1 0xE0 DUP9 DUP11 SUB SLT ISZERO PUSH2 0x34AC JUMPI PUSH1 0x0 DUP1 REVERT JUMPDEST PUSH2 0x34B5 DUP9 PUSH2 0x345A JUMP JUMPDEST SWAP7 POP PUSH2 0x34C3 PUSH1 0x20 DUP10 ADD PUSH2 0x345A JUMP JUMPDEST SWAP6 POP PUSH2 0x34D1 PUSH1 0x40 DUP10 ADD PUSH2 0x345A JUMP JUMPDEST SWAP7 SWAP10 SWAP6 SWAP9 POP SWAP6 SWAP7 PUSH1 0x60 DUP2 ADD CALLDATALOAD SWAP7 POP PUSH1 0x80 DUP2 ADD CALLDATALOAD SWAP6 PUSH1 0xA0 DUP3 ADD CALLDATALOAD SWAP6 POP PUSH1 0xC0 SWAP1 SWAP2 ADD CALLDATALOAD SWAP4 POP SWAP2 POP POP JUMP JUMPDEST PUSH1 0x0 DUP2 MLOAD DUP1 DUP5 MSTORE PUSH1 0x20 DUP1 DUP6 ADD SWAP5 POP DUP1 DUP5 ADD PUSH1 0x0 JUMPDEST DUP4 DUP2 LT ISZERO PUSH2 0x3532 JUMPI DUP2 MLOAD PUSH1 0x1 PUSH1 0x1 PUSH1 0xA0 SHL SUB AND DUP8 MSTORE SWAP6 DUP3 ADD SWAP6 SWAP1 DUP3 ADD SWAP1 PUSH1 0x1 ADD PUSH2 0x350D JUMP JUMPDEST POP SWAP5 SWAP6 SWAP5 POP POP POP POP POP JUMP JUMPDEST PUSH1 0x0 DUP2 MLOAD DUP1 DUP5 MSTORE PUSH1 0x20 DUP1 DUP6 ADD SWAP5 POP DUP1 DUP5 ADD PUSH1 0x0 JUMPDEST DUP4 DUP2 LT ISZERO PUSH2 0x3532 JUMPI DUP2 MLOAD DUP8 MSTORE SWAP6 DUP3 ADD SWAP6 SWAP1 DUP3 ADD SWAP1 PUSH1 0x1 ADD PUSH2 0x3551 JUMP JUMPDEST PUSH1 0x0 DUP2 MLOAD DUP1 DUP5 MSTORE PUSH1 0x20 DUP1 DUP6 ADD DUP1 DUP2 SWAP7 POP DUP4 PUSH1 0x5 SHL DUP2 ADD SWAP2 POP DUP3 DUP7 ADD PUSH1 0x0 JUMPDEST DUP6 DUP2 LT ISZERO PUSH2 0x35B5 JUMPI DUP3 DUP5 SUB DUP10 MSTORE PUSH2 0x35A3 DUP5 DUP4 MLOAD PUSH2 0x341B JUMP JUMPDEST SWAP9 DUP6 ADD SWAP9 SWAP4 POP SWAP1 DUP5 ADD SWAP1 PUSH1 0x1 ADD PUSH2 0x358B JUMP JUMPDEST POP SWAP2 SWAP8 SWAP7 POP POP POP POP POP POP POP JUMP JUMPDEST PUSH1 0x80 DUP2 MSTORE PUSH1 0x0 PUSH2 0x35D5 PUSH1 0x80 DUP4 ADD DUP8 PUSH2 0x34F9 JUMP JUMPDEST DUP3 DUP2 SUB PUSH1 0x20 DUP5 ADD MSTORE PUSH2 0x35E7 DUP2 DUP8 PUSH2 0x353D JUMP JUMPDEST SWAP1 POP DUP3 DUP2 SUB PUSH1 0x40 DUP5 ADD MSTORE PUSH2 0x35FB DUP2 DUP7 PUSH2 0x356D JUMP JUMPDEST SWAP1 POP DUP3 DUP2 SUB PUSH1 0x60 DUP5 ADD MSTORE PUSH2 0x360F DUP2 DUP6 PUSH2 0x356D JUMP JUMPDEST SWAP8 SWAP7 POP POP POP POP POP POP POP JUMP JUMPDEST DUP1 CALLDATALOAD PUSH1 0xFF DUP2 AND DUP2 EQ PUSH2 0x3471 JUMPI PUSH1 0x0 DUP1 REVERT JUMPDEST PUSH1 0x0 DUP1 PUSH1 0x0 DUP1 PUSH1 0x0 PUSH1 0xA0 DUP7 DUP9 SUB SLT ISZERO PUSH2 0x3643 JUMPI PUSH1 0x0 DUP1 REVERT JUMPDEST DUP6 CALLDATALOAD SWAP5 POP PUSH2 0x3653 PUSH1 0x20 DUP8 ADD PUSH2 0x361A JUMP JUMPDEST SWAP4 POP PUSH2 0x3661 PUSH1 0x40 DUP8 ADD PUSH2 0x361A JUMP JUMPDEST SWAP5 SWAP8 SWAP4 SWAP7 POP SWAP4 SWAP5 PUSH1 0x60 DUP2 ADD CALLDATALOAD SWAP5 POP PUSH1 0x80 ADD CALLDATALOAD SWAP3 SWAP2 POP POP JUMP JUMPDEST PUSH4 0x4E487B71 PUSH1 0xE0 SHL PUSH1 0x0 MSTORE PUSH1 0x21 PUSH1 0x4 MSTORE PUSH1 0x24 PUSH1 0x0 REVERT JUMPDEST PUSH1 0x20 DUP2 ADD PUSH1 0x9 DUP4 LT PUSH2 0x36B1 JUMPI PUSH4 0x4E487B71 PUSH1 0xE0 SHL PUSH1 0x0 MSTORE PUSH1 0x21 PUSH1 0x4 MSTORE PUSH1 0x24 PUSH1 0x0 REVERT JUMPDEST SWAP2 SWAP1 MSTORE SWAP1 JUMP JUMPDEST PUSH1 0x0 DUP1 PUSH1 0x40 DUP4 DUP6 SUB SLT ISZERO PUSH2 0x36CA JUMPI PUSH1 0x0 DUP1 REVERT JUMPDEST DUP3 CALLDATALOAD SWAP2 POP PUSH2 0x36DA PUSH1 0x20 DUP5 ADD PUSH2 0x361A JUMP JUMPDEST SWAP1 POP SWAP3 POP SWAP3 SWAP1 POP JUMP JUMPDEST PUSH1 0x0 DUP1 PUSH1 0x0 DUP1 PUSH1 0x60 DUP6 DUP8 SUB SLT ISZERO PUSH2 0x36F9 JUMPI PUSH1 0x0 DUP1 REVERT JUMPDEST DUP5 CALLDATALOAD SWAP4 POP PUSH2 0x3709 PUSH1 0x20 DUP7 ADD PUSH2 0x361A JUMP JUMPDEST SWAP3 POP PUSH1 0x40 DUP6 ADD CALLDATALOAD PUSH8 0xFFFFFFFFFFFFFFFF DUP1 DUP3 GT ISZERO PUSH2 0x3726 JUMPI PUSH1 0x0 DUP1 REVERT JUMPDEST DUP2 DUP8 ADD SWAP2 POP DUP8 PUSH1 0x1F DUP4 ADD SLT PUSH2 0x373A JUMPI PUSH1 0x0 DUP1 REVERT JUMPDEST DUP2 CALLDATALOAD DUP2 DUP2 GT ISZERO PUSH2 0x3749 JUMPI PUSH1 0x0 DUP1 REVERT JUMPDEST DUP9 PUSH1 0x20 DUP3 DUP6 ADD ADD GT ISZERO PUSH2 0x375B JUMPI PUSH1 0x0 DUP1 REVERT JUMPDEST SWAP6 SWAP9 SWAP5 SWAP8 POP POP PUSH1 0x20 ADD SWAP5 POP POP POP JUMP JUMPDEST PUSH4 0x4E487B71 PUSH1 0xE0 SHL PUSH1 0x0 MSTORE PUSH1 0x41 PUSH1 0x4 MSTORE PUSH1 0x24 PUSH1 0x0 REVERT JUMPDEST PUSH1 0x40 MLOAD PUSH1 0x1F DUP3 ADD PUSH1 0x1F NOT AND DUP2 ADD PUSH8 0xFFFFFFFFFFFFFFFF DUP2 GT DUP3 DUP3 LT OR ISZERO PUSH2 0x37A9 JUMPI PUSH2 0x37A9 PUSH2 0x376A JUMP JUMPDEST PUSH1 0x40 MSTORE SWAP2 SWAP1 POP JUMP JUMPDEST PUSH1 0x0 PUSH8 0xFFFFFFFFFFFFFFFF DUP3 GT ISZERO PUSH2 0x37CB JUMPI PUSH2 0x37CB PUSH2 0x376A JUMP JUMPDEST POP PUSH1 0x5 SHL PUSH1 0x20 ADD SWAP1 JUMP JUMPDEST PUSH1 0x0 DUP3 PUSH1 0x1F DUP4 ADD SLT PUSH2 0x37E6 JUMPI PUSH1 0x0 DUP1 REVERT JUMPDEST DUP2 CALLDATALOAD PUSH1 0x20 PUSH2 0x37FB PUSH2 0x37F6 DUP4 PUSH2 0x37B1 JUMP JUMPDEST PUSH2 0x3780 JUMP JUMPDEST DUP3 DUP2 MSTORE PUSH1 0x5 SWAP3 SWAP1 SWAP3 SHL DUP5 ADD DUP2 ADD SWAP2 DUP2 DUP2 ADD SWAP1 DUP7 DUP5 GT ISZERO PUSH2 0x381A JUMPI PUSH1 0x0 DUP1 REVERT JUMPDEST DUP3 DUP7 ADD JUMPDEST DUP5 DUP2 LT ISZERO PUSH2 0x383C JUMPI PUSH2 0x382F DUP2 PUSH2 0x345A JUMP JUMPDEST DUP4 MSTORE SWAP2 DUP4 ADD SWAP2 DUP4 ADD PUSH2 0x381E JUMP JUMPDEST POP SWAP7 SWAP6 POP POP POP POP POP POP JUMP JUMPDEST PUSH1 0x0 DUP3 PUSH1 0x1F DUP4 ADD SLT PUSH2 0x3858 JUMPI PUSH1 0x0 DUP1 REVERT JUMPDEST DUP2 CALLDATALOAD PUSH1 0x20 PUSH2 0x3868 PUSH2 0x37F6 DUP4 PUSH2 0x37B1 JUMP JUMPDEST DUP3 DUP2 MSTORE PUSH1 0x5 SWAP3 SWAP1 SWAP3 SHL DUP5 ADD DUP2 ADD SWAP2 DUP2 DUP2 ADD SWAP1 DUP7 DUP5 GT ISZERO PUSH2 0x3887 JUMPI PUSH1 0x0 DUP1 REVERT JUMPDEST DUP3 DUP7 ADD JUMPDEST DUP5 DUP2 LT ISZERO PUSH2 0x383C JUMPI DUP1 CALLDATALOAD DUP4 MSTORE SWAP2 DUP4 ADD SWAP2 DUP4 ADD PUSH2 0x388B JUMP JUMPDEST PUSH1 0x0 PUSH8 0xFFFFFFFFFFFFFFFF DUP3 GT ISZERO PUSH2 0x38BC JUMPI PUSH2 0x38BC PUSH2 0x376A JUMP JUMPDEST POP PUSH1 0x1F ADD PUSH1 0x1F NOT AND PUSH1 0x20 ADD SWAP1 JUMP JUMPDEST PUSH1 0x0 PUSH2 0x38D8 PUSH2 0x37F6 DUP5 PUSH2 0x38A2 JUMP JUMPDEST SWAP1 POP DUP3 DUP2 MSTORE DUP4 DUP4 DUP4 ADD GT ISZERO PUSH2 0x38EC JUMPI PUSH1 0x0 DUP1 REVERT JUMPDEST DUP3 DUP3 PUSH1 0x20 DUP4 ADD CALLDATACOPY PUSH1 0x0 PUSH1 0x20 DUP5 DUP4 ADD ADD MSTORE SWAP4 SWAP3 POP POP POP JUMP JUMPDEST PUSH1 0x0 DUP3 PUSH1 0x1F DUP4 ADD SLT PUSH2 0x3914 JUMPI PUSH1 0x0 DUP1 REVERT JUMPDEST PUSH2 0x2CDF DUP4 DUP4 CALLDATALOAD PUSH1 0x20 DUP6 ADD PUSH2 0x38CA JUMP JUMPDEST PUSH1 0x0 DUP3 PUSH1 0x1F DUP4 ADD SLT PUSH2 0x3934 JUMPI PUSH1 0x0 DUP1 REVERT JUMPDEST DUP2 CALLDATALOAD PUSH1 0x20 PUSH2 0x3944 PUSH2 0x37F6 DUP4 PUSH2 0x37B1 JUMP JUMPDEST DUP3 DUP2 MSTORE PUSH1 0x5 SWAP3 SWAP1 SWAP3 SHL DUP5 ADD DUP2 ADD SWAP2 DUP2 DUP2 ADD SWAP1 DUP7 DUP5 GT ISZERO PUSH2 0x3963 JUMPI PUSH1 0x0 DUP1 REVERT JUMPDEST DUP3 DUP7 ADD JUMPDEST DUP5 DUP2 LT ISZERO PUSH2 0x383C JUMPI DUP1 CALLDATALOAD PUSH8 0xFFFFFFFFFFFFFFFF DUP2 GT ISZERO PUSH2 0x3987 JUMPI PUSH1 0x0 DUP1 DUP2 REVERT JUMPDEST PUSH2 0x3995 DUP10 DUP7 DUP4 DUP12 ADD ADD PUSH2 0x3903 JUMP JUMPDEST DUP5 MSTORE POP SWAP2 DUP4 ADD SWAP2 DUP4 ADD PUSH2 0x3967 JUMP JUMPDEST PUSH1 0x0 DUP3 PUSH1 0x1F DUP4 ADD SLT PUSH2 0x39B4 JUMPI PUSH1 0x0 DUP1 REVERT JUMPDEST DUP2 CALLDATALOAD PUSH1 0x20 PUSH2 0x39C4 PUSH2 0x37F6 DUP4 PUSH2 0x37B1 JUMP JUMPDEST DUP3 DUP2 MSTORE PUSH1 0x5 SWAP3 SWAP1 SWAP3 SHL DUP5 ADD DUP2 ADD SWAP2 DUP2 DUP2 ADD SWAP1 DUP7 DUP5 GT ISZERO PUSH2 0x39E3 JUMPI PUSH1 0x0 DUP1 REVERT JUMPDEST DUP3 DUP7 ADD JUMPDEST DUP5 DUP2 LT ISZERO PUSH2 0x383C JUMPI DUP1 CALLDATALOAD PUSH8 0xFFFFFFFFFFFFFFFF DUP2 GT ISZERO PUSH2 0x3A07 JUMPI PUSH1 0x0 DUP1 DUP2 REVERT JUMPDEST DUP8 ADD PUSH1 0x3F DUP2 ADD DUP10 SGT PUSH2 0x3A19 JUMPI PUSH1 0x0 DUP1 DUP2 REVERT JUMPDEST PUSH2 0x3A2A DUP10 DUP7 DUP4 ADD CALLDATALOAD PUSH1 0x40 DUP5 ADD PUSH2 0x38CA JUMP JUMPDEST DUP5 MSTORE POP SWAP2 DUP4 ADD SWAP2 DUP4 ADD PUSH2 0x39E7 JUMP JUMPDEST PUSH1 0x0 DUP1 PUSH1 0x0 DUP1 PUSH1 0x0 PUSH1 0xA0 DUP7 DUP9 SUB SLT ISZERO PUSH2 0x3A50 JUMPI PUSH1 0x0 DUP1 REVERT JUMPDEST DUP6 CALLDATALOAD PUSH8 0xFFFFFFFFFFFFFFFF DUP1 DUP3 GT ISZERO PUSH2 0x3A68 JUMPI PUSH1 0x0 DUP1 REVERT JUMPDEST PUSH2 0x3A74 DUP10 DUP4 DUP11 ADD PUSH2 0x37D5 JUMP JUMPDEST SWAP7 POP PUSH1 0x20 DUP9 ADD CALLDATALOAD SWAP2 POP DUP1 DUP3 GT ISZERO PUSH2 0x3A8A JUMPI PUSH1 0x0 DUP1 REVERT JUMPDEST PUSH2 0x3A96 DUP10 DUP4 DUP11 ADD PUSH2 0x3847 JUMP JUMPDEST SWAP6 POP PUSH1 0x40 DUP9 ADD CALLDATALOAD SWAP2 POP DUP1 DUP3 GT ISZERO PUSH2 0x3AAC JUMPI PUSH1 0x0 DUP1 REVERT JUMPDEST PUSH2 0x3AB8 DUP10 DUP4 DUP11 ADD PUSH2 0x3923 JUMP JUMPDEST SWAP5 POP PUSH1 0x60 DUP9 ADD CALLDATALOAD SWAP2 POP DUP1 DUP3 GT ISZERO PUSH2 0x3ACE JUMPI PUSH1 0x0 DUP1 REVERT JUMPDEST PUSH2 0x3ADA DUP10 DUP4 DUP11 ADD PUSH2 0x39A3 JUMP JUMPDEST SWAP4 POP PUSH1 0x80 DUP9 ADD CALLDATALOAD SWAP2 POP DUP1 DUP3 GT ISZERO PUSH2 0x3AF0 JUMPI PUSH1 0x0 DUP1 REVERT JUMPDEST POP PUSH2 0x3AFD DUP9 DUP3 DUP10 ADD PUSH2 0x3903 JUMP JUMPDEST SWAP2 POP POP SWAP3 SWAP6 POP SWAP3 SWAP6 SWAP1 SWAP4 POP JUMP JUMPDEST PUSH1 0x0 DUP1 PUSH1 0x40 DUP4 DUP6 SUB SLT ISZERO PUSH2 0x3B1D JUMPI PUSH1 0x0 DUP1 REVERT JUMPDEST DUP3 CALLDATALOAD SWAP2 POP PUSH2 0x36DA PUSH1 0x20 DUP5 ADD PUSH2 0x345A JUMP JUMPDEST PUSH4 0x4E487B71 PUSH1 0xE0 SHL PUSH1 0x0 MSTORE PUSH1 0x32 PUSH1 0x4 MSTORE PUSH1 0x24 PUSH1 0x0 REVERT JUMPDEST PUSH1 0x1 DUP2 DUP2 SHR SWAP1 DUP3 AND DUP1 PUSH2 0x3B57 JUMPI PUSH1 0x7F DUP3 AND SWAP2 POP JUMPDEST PUSH1 0x20 DUP3 LT DUP2 EQ ISZERO PUSH2 0x17CD JUMPI PUSH4 0x4E487B71 PUSH1 0xE0 SHL PUSH1 0x0 MSTORE PUSH1 0x22 PUSH1 0x4 MSTORE PUSH1 0x24 PUSH1 0x0 REVERT JUMPDEST DUP1 SLOAD PUSH1 0x0 SWAP1 PUSH1 0x1 DUP2 DUP2 SHR SWAP1 DUP1 DUP4 AND DUP1 PUSH2 0x3B92 JUMPI PUSH1 0x7F DUP4 AND SWAP3 POP JUMPDEST PUSH1 0x20 DUP1 DUP5 LT DUP3 EQ ISZERO PUSH2 0x3BB4 JUMPI PUSH4 0x4E487B71 PUSH1 0xE0 SHL PUSH1 0x0 MSTORE PUSH1 0x22 PUSH1 0x4 MSTORE PUSH1 0x24 PUSH1 0x0 REVERT JUMPDEST DUP4 DUP9 MSTORE DUP2 DUP1 ISZERO PUSH2 0x3BCB JUMPI PUSH1 0x1 DUP2 EQ PUSH2 0x3BDF JUMPI PUSH2 0x3C0D JUMP JUMPDEST PUSH1 0xFF NOT DUP7 AND DUP10 DUP4 ADD MSTORE PUSH1 0x40 DUP10 ADD SWAP7 POP PUSH2 0x3C0D JUMP JUMPDEST DUP8 PUSH1 0x0 MSTORE DUP2 PUSH1 0x0 KECCAK256 PUSH1 0x0 JUMPDEST DUP7 DUP2 LT ISZERO PUSH2 0x3C05 JUMPI DUP2 SLOAD DUP12 DUP3 ADD DUP6 ADD MSTORE SWAP1 DUP6 ADD SWAP1 DUP4 ADD PUSH2 0x3BEA JUMP JUMPDEST DUP11 ADD DUP4 ADD SWAP8 POP POP JUMPDEST POP POP POP POP POP POP SWAP3 SWAP2 POP POP JUMP JUMPDEST PUSH1 0x1 DUP1 PUSH1 0xA0 SHL SUB DUP7 AND DUP2 MSTORE DUP5 PUSH1 0x20 DUP3 ADD MSTORE PUSH1 0xA0 PUSH1 0x40 DUP3 ADD MSTORE PUSH1 0x0 PUSH2 0x3C40 PUSH1 0xA0 DUP4 ADD DUP7 PUSH2 0x3B78 JUMP JUMPDEST DUP3 DUP2 SUB PUSH1 0x60 DUP5 ADD MSTORE PUSH2 0x3C52 DUP2 DUP7 PUSH2 0x3B78 JUMP JUMPDEST SWAP2 POP POP DUP3 PUSH1 0x80 DUP4 ADD MSTORE SWAP7 SWAP6 POP POP POP POP POP POP JUMP JUMPDEST PUSH4 0x4E487B71 PUSH1 0xE0 SHL PUSH1 0x0 MSTORE PUSH1 0x11 PUSH1 0x4 MSTORE PUSH1 0x24 PUSH1 0x0 REVERT JUMPDEST PUSH1 0x0 PUSH1 0x0 NOT DUP3 EQ ISZERO PUSH2 0x3C8F JUMPI PUSH2 0x3C8F PUSH2 0x3C65 JUMP JUMPDEST POP PUSH1 0x1 ADD SWAP1 JUMP JUMPDEST PUSH1 0x0 PUSH1 0x20 DUP3 DUP5 SUB SLT ISZERO PUSH2 0x3CA8 JUMPI PUSH1 0x0 DUP1 REVERT JUMPDEST DUP2 MLOAD PUSH1 0x1 PUSH1 0x1 PUSH1 0x60 SHL SUB DUP2 AND DUP2 EQ PUSH2 0x2CDF JUMPI PUSH1 0x0 DUP1 REVERT JUMPDEST PUSH1 0x20 DUP1 DUP3 MSTORE PUSH1 0x32 SWAP1 DUP3 ADD MSTORE PUSH1 0x0 DUP1 MLOAD PUSH1 0x20 PUSH2 0x4048 DUP4 CODECOPY DUP2 MLOAD SWAP2 MSTORE PUSH1 0x40 DUP3 ADD MSTORE PUSH18 0x1C1C9BDC1BDCD85B081D1A1C995CDA1BDB19 PUSH1 0x72 SHL PUSH1 0x60 DUP3 ADD MSTORE PUSH1 0x80 ADD SWAP1 JUMP JUMPDEST PUSH1 0x0 PUSH1 0x20 DUP3 DUP5 SUB SLT ISZERO PUSH2 0x3D11 JUMPI PUSH1 0x0 DUP1 REVERT JUMPDEST POP MLOAD SWAP2 SWAP1 POP JUMP JUMPDEST PUSH1 0x0 DUP3 NOT DUP3 GT ISZERO PUSH2 0x3D2B JUMPI PUSH2 0x3D2B PUSH2 0x3C65 JUMP JUMPDEST POP ADD SWAP1 JUMP JUMPDEST PUSH1 0x0 DUP3 DUP3 LT ISZERO PUSH2 0x3D42 JUMPI PUSH2 0x3D42 PUSH2 0x3C65 JUMP JUMPDEST POP SUB SWAP1 JUMP JUMPDEST PUSH1 0x20 DUP1 DUP3 MSTORE PUSH1 0x3D SWAP1 DUP3 ADD MSTORE PUSH32 0x4F78576F726B7344414F3A3A5F73657450726F706F73616C5468726573686F6C PUSH1 0x40 DUP3 ADD MSTORE PUSH32 0x643A20696E76616C69642070726F706F73616C207468726573686F6C64000000 PUSH1 0x60 DUP3 ADD MSTORE PUSH1 0x80 ADD SWAP1 JUMP JUMPDEST DUP6 DUP2 MSTORE PUSH1 0xFF DUP6 AND PUSH1 0x20 DUP3 ADD MSTORE PUSH1 0x1 PUSH1 0x1 PUSH1 0x60 SHL SUB DUP5 AND PUSH1 0x40 DUP3 ADD MSTORE PUSH1 0x80 PUSH1 0x60 DUP3 ADD MSTORE DUP2 PUSH1 0x80 DUP3 ADD MSTORE DUP2 DUP4 PUSH1 0xA0 DUP4 ADD CALLDATACOPY PUSH1 0x0 DUP2 DUP4 ADD PUSH1 0xA0 SWAP1 DUP2 ADD SWAP2 SWAP1 SWAP2 MSTORE PUSH1 0x1F SWAP1 SWAP3 ADD PUSH1 0x1F NOT AND ADD ADD SWAP5 SWAP4 POP POP POP POP JUMP JUMPDEST DUP10 DUP2 MSTORE PUSH1 0x1 PUSH1 0x1 PUSH1 0xA0 SHL SUB DUP10 AND PUSH1 0x20 DUP3 ADD MSTORE PUSH2 0x120 PUSH1 0x40 DUP3 ADD DUP2 SWAP1 MSTORE PUSH1 0x0 SWAP1 PUSH2 0x3E1F DUP4 DUP3 ADD DUP12 PUSH2 0x34F9 JUMP JUMPDEST SWAP1 POP DUP3 DUP2 SUB PUSH1 0x60 DUP5 ADD MSTORE PUSH2 0x3E33 DUP2 DUP11 PUSH2 0x353D JUMP JUMPDEST SWAP1 POP DUP3 DUP2 SUB PUSH1 0x80 DUP5 ADD MSTORE PUSH2 0x3E47 DUP2 DUP10 PUSH2 0x356D JUMP JUMPDEST SWAP1 POP DUP3 DUP2 SUB PUSH1 0xA0 DUP5 ADD MSTORE PUSH2 0x3E5B DUP2 DUP9 PUSH2 0x356D JUMP JUMPDEST SWAP1 POP DUP6 PUSH1 0xC0 DUP5 ADD MSTORE DUP5 PUSH1 0xE0 DUP5 ADD MSTORE DUP3 DUP2 SUB PUSH2 0x100 DUP5 ADD MSTORE PUSH2 0x3E7C DUP2 DUP6 PUSH2 0x341B JUMP JUMPDEST SWAP13 SWAP12 POP POP POP POP POP POP POP POP POP POP POP POP JUMP JUMPDEST DUP12 DUP2 MSTORE PUSH1 0x1 PUSH1 0x1 PUSH1 0xA0 SHL SUB DUP12 AND PUSH1 0x20 DUP3 ADD MSTORE PUSH2 0x160 PUSH1 0x40 DUP3 ADD DUP2 SWAP1 MSTORE PUSH1 0x0 SWAP1 PUSH2 0x3EB7 DUP4 DUP3 ADD DUP14 PUSH2 0x34F9 JUMP JUMPDEST SWAP1 POP DUP3 DUP2 SUB PUSH1 0x60 DUP5 ADD MSTORE PUSH2 0x3ECB DUP2 DUP13 PUSH2 0x353D JUMP JUMPDEST SWAP1 POP DUP3 DUP2 SUB PUSH1 0x80 DUP5 ADD MSTORE PUSH2 0x3EDF DUP2 DUP12 PUSH2 0x356D JUMP JUMPDEST SWAP1 POP DUP3 DUP2 SUB PUSH1 0xA0 DUP5 ADD MSTORE PUSH2 0x3EF3 DUP2 DUP11 PUSH2 0x356D JUMP JUMPDEST SWAP1 POP DUP8 PUSH1 0xC0 DUP5 ADD MSTORE DUP7 PUSH1 0xE0 DUP5 ADD MSTORE DUP6 PUSH2 0x100 DUP5 ADD MSTORE DUP5 PUSH2 0x120 DUP5 ADD MSTORE DUP3 DUP2 SUB PUSH2 0x140 DUP5 ADD MSTORE PUSH2 0x3F22 DUP2 DUP6 PUSH2 0x341B JUMP JUMPDEST SWAP15 SWAP14 POP POP POP POP POP POP POP POP POP POP POP POP POP POP JUMP JUMPDEST PUSH1 0x0 PUSH1 0x20 DUP3 DUP5 SUB SLT ISZERO PUSH2 0x3F46 JUMPI PUSH1 0x0 DUP1 REVERT JUMPDEST DUP2 MLOAD PUSH8 0xFFFFFFFFFFFFFFFF DUP2 GT ISZERO PUSH2 0x3F5D JUMPI PUSH1 0x0 DUP1 REVERT JUMPDEST DUP3 ADD PUSH1 0x1F DUP2 ADD DUP5 SGT PUSH2 0x3F6E JUMPI PUSH1 0x0 DUP1 REVERT JUMPDEST DUP1 MLOAD PUSH2 0x3F7C PUSH2 0x37F6 DUP3 PUSH2 0x38A2 JUMP JUMPDEST DUP2 DUP2 MSTORE DUP6 PUSH1 0x20 DUP4 DUP6 ADD ADD GT ISZERO PUSH2 0x3F91 JUMPI PUSH1 0x0 DUP1 REVERT JUMPDEST PUSH2 0x3FA2 DUP3 PUSH1 0x20 DUP4 ADD PUSH1 0x20 DUP7 ADD PUSH2 0x33EB JUMP JUMPDEST SWAP6 SWAP5 POP POP POP POP POP JUMP JUMPDEST PUSH1 0x0 DUP2 PUSH1 0x0 NOT DIV DUP4 GT DUP3 ISZERO ISZERO AND ISZERO PUSH2 0x3FC5 JUMPI PUSH2 0x3FC5 PUSH2 0x3C65 JUMP JUMPDEST POP MUL SWAP1 JUMP JUMPDEST PUSH1 0x0 DUP3 PUSH2 0x3FE7 JUMPI PUSH4 0x4E487B71 PUSH1 0xE0 SHL PUSH1 0x0 MSTORE PUSH1 0x12 PUSH1 0x4 MSTORE PUSH1 0x24 PUSH1 0x0 REVERT JUMPDEST POP DIV SWAP1 JUMP JUMPDEST PUSH1 0x1 DUP1 PUSH1 0xA0 SHL SUB DUP7 AND DUP2 MSTORE DUP5 PUSH1 0x20 DUP3 ADD MSTORE PUSH1 0xA0 PUSH1 0x40 DUP3 ADD MSTORE PUSH1 0x0 PUSH2 0x4013 PUSH1 0xA0 DUP4 ADD DUP7 PUSH2 0x341B JUMP JUMPDEST DUP3 DUP2 SUB PUSH1 0x60 DUP5 ADD MSTORE PUSH2 0x3C52 DUP2 DUP7 PUSH2 0x341B JUMP JUMPDEST PUSH1 0x0 PUSH1 0x20 DUP3 DUP5 SUB SLT ISZERO PUSH2 0x4037 JUMPI PUSH1 0x0 DUP1 REVERT JUMPDEST DUP2 MLOAD DUP1 ISZERO ISZERO DUP2 EQ PUSH2 0x2CDF JUMPI PUSH1 0x0 DUP1 REVERT INVALID 0x4F PUSH25 0x576F726B7344414F3A3A696E697469616C697A653A20696E76 PUSH2 0x6C69 PUSH5 0x20A2646970 PUSH7 0x735822122049E6 0xD2 PUSH3 0x7B399 SWAP14 SUB 0x5E 0xA6 DUP6 LOG3 DUP2 SLOAD 0xE2 0xE3 PUSH19 0x500E3F55334E30E705E42C5AC4FF64736F6C63 NUMBER STOP ADDMOD SIGNEXTEND STOP CALLER "
		},
		"gasEstimates": {
			"creation": {
				"codeDepositCost": "3308200",
				"executionCost": "3675",
				"totalCost": "3311875"
			},
			"external": {
				"BALLOT_TYPEHASH()": "350",
				"DOMAIN_TYPEHASH()": "329",
				"MAX_PROPOSAL_THRESHOLD_BPS()": "307",
				"MAX_QUORUM_VOTES_BPS()": "306",
				"MAX_VOTING_DELAY()": "240",
				"MAX_VOTING_PERIOD()": "351",
				"MIN_PROPOSAL_THRESHOLD_BPS()": "350",
				"MIN_QUORUM_VOTES_BPS()": "241",
				"MIN_VOTING_DELAY()": "261",
				"MIN_VOTING_PERIOD()": "351",
				"OxWorks()": "2469",
				"_acceptAdmin()": "55715",
				"_burnVetoPower()": "32314",
				"_setPendingAdmin(address)": "28162",
				"_setProposalThresholdBPS(uint256)": "28120",
				"_setQuorumVotesBPS(uint256)": "28141",
				"_setVetoer(address)": "30284",
				"_setVotingDelay(uint256)": "28076",
				"_setVotingPeriod(uint256)": "28088",
				"admin()": "2447",
				"cancel(uint256)": "infinite",
				"castVote(uint256,uint8)": "infinite",
				"castVoteBySig(uint256,uint8,uint8,bytes32,bytes32)": "infinite",
				"castVoteWithReason(uint256,uint8,string)": "infinite",
				"execute(uint256)": "infinite",
				"getActions(uint256)": "infinite",
				"getReceipt(uint256,address)": "3015",
				"implementation()": "2470",
				"initialize(address,address,address,uint256,uint256,uint256,uint256)": "infinite",
				"latestProposalIds(address)": "2565",
				"name()": "infinite",
				"pendingAdmin()": "2427",
				"proposalCount()": "2384",
				"proposalMaxOperations()": "263",
				"proposalThreshold()": "infinite",
				"proposalThresholdBPS()": "2430",
				"proposals(uint256)": "23970",
				"propose(address[],uint256[],string[],bytes[],string)": "infinite",
				"queue(uint256)": "infinite",
				"quorumVotes()": "infinite",
				"quorumVotesBPS()": "2385",
				"state(uint256)": "infinite",
				"timelock()": "2382",
				"veto(uint256)": "infinite",
				"vetoer()": "2404",
				"votingDelay()": "2451",
				"votingPeriod()": "2364"
			},
			"internal": {
				"bps2Uint(uint256,uint256)": "179",
				"castVoteInternal(address,uint256,uint8)": "infinite",
				"getChainIdInternal()": "infinite",
				"queueOrRevertInternal(address,uint256,string memory,bytes memory,uint256)": "infinite"
			}
		},
		"methodIdentifiers": {
			"BALLOT_TYPEHASH()": "deaaa7cc",
			"DOMAIN_TYPEHASH()": "20606b70",
			"MAX_PROPOSAL_THRESHOLD_BPS()": "1e7b5d3a",
			"MAX_QUORUM_VOTES_BPS()": "bb677582",
			"MAX_VOTING_DELAY()": "b1126263",
			"MAX_VOTING_PERIOD()": "a64e024a",
			"MIN_PROPOSAL_THRESHOLD_BPS()": "c82fbd08",
			"MIN_QUORUM_VOTES_BPS()": "2230e155",
			"MIN_VOTING_DELAY()": "e48083fe",
			"MIN_VOTING_PERIOD()": "215809ca",
			"OxWorks()": "fc3a320e",
			"_acceptAdmin()": "e9c714f2",
			"_burnVetoPower()": "bf7a2963",
			"_setPendingAdmin(address)": "b71d1a0c",
			"_setProposalThresholdBPS(uint256)": "97d048e5",
			"_setQuorumVotesBPS(uint256)": "6f3eff28",
			"_setVetoer(address)": "96300b7d",
			"_setVotingDelay(uint256)": "1dfb1b5a",
			"_setVotingPeriod(uint256)": "0ea2d98c",
			"admin()": "f851a440",
			"cancel(uint256)": "40e58ee5",
			"castVote(uint256,uint8)": "56781388",
			"castVoteBySig(uint256,uint8,uint8,bytes32,bytes32)": "3bccf4fd",
			"castVoteWithReason(uint256,uint8,string)": "7b3c71d3",
			"execute(uint256)": "fe0d94c1",
			"getActions(uint256)": "328dd982",
			"getReceipt(uint256,address)": "e23a9a52",
			"implementation()": "5c60da1b",
			"initialize(address,address,address,uint256,uint256,uint256,uint256)": "2b4656c8",
			"latestProposalIds(address)": "17977c61",
			"name()": "06fdde03",
			"pendingAdmin()": "26782247",
			"proposalCount()": "da35c664",
			"proposalMaxOperations()": "7bdbe4d0",
			"proposalThreshold()": "b58131b0",
			"proposalThresholdBPS()": "14a67ea4",
			"proposals(uint256)": "013cf08b",
			"propose(address[],uint256[],string[],bytes[],string)": "da95691a",
			"queue(uint256)": "ddf0b009",
			"quorumVotes()": "24bc1a64",
			"quorumVotesBPS()": "83cce0e1",
			"state(uint256)": "3e4f49e6",
			"timelock()": "d33219b4",
			"veto(uint256)": "1d28dec7",
			"vetoer()": "d8bff440",
			"votingDelay()": "3932abb1",
			"votingPeriod()": "02a251a3"
		}
	},
	"abi": [
		{
			"anonymous": false,
			"inputs": [
				{
					"indexed": false,
					"internalType": "address",
					"name": "oldAdmin",
					"type": "address"
				},
				{
					"indexed": false,
					"internalType": "address",
					"name": "newAdmin",
					"type": "address"
				}
			],
			"name": "NewAdmin",
			"type": "event"
		},
		{
			"anonymous": false,
			"inputs": [
				{
					"indexed": false,
					"internalType": "address",
					"name": "oldImplementation",
					"type": "address"
				},
				{
					"indexed": false,
					"internalType": "address",
					"name": "newImplementation",
					"type": "address"
				}
			],
			"name": "NewImplementation",
			"type": "event"
		},
		{
			"anonymous": false,
			"inputs": [
				{
					"indexed": false,
					"internalType": "address",
					"name": "oldPendingAdmin",
					"type": "address"
				},
				{
					"indexed": false,
					"internalType": "address",
					"name": "newPendingAdmin",
					"type": "address"
				}
			],
			"name": "NewPendingAdmin",
			"type": "event"
		},
		{
			"anonymous": false,
			"inputs": [
				{
					"indexed": false,
					"internalType": "address",
					"name": "oldVetoer",
					"type": "address"
				},
				{
					"indexed": false,
					"internalType": "address",
					"name": "newVetoer",
					"type": "address"
				}
			],
			"name": "NewVetoer",
			"type": "event"
		},
		{
			"anonymous": false,
			"inputs": [
				{
					"indexed": false,
					"internalType": "uint256",
					"name": "id",
					"type": "uint256"
				}
			],
			"name": "ProposalCanceled",
			"type": "event"
		},
		{
			"anonymous": false,
			"inputs": [
				{
					"indexed": false,
					"internalType": "uint256",
					"name": "id",
					"type": "uint256"
				},
				{
					"indexed": false,
					"internalType": "address",
					"name": "proposer",
					"type": "address"
				},
				{
					"indexed": false,
					"internalType": "address[]",
					"name": "targets",
					"type": "address[]"
				},
				{
					"indexed": false,
					"internalType": "uint256[]",
					"name": "values",
					"type": "uint256[]"
				},
				{
					"indexed": false,
					"internalType": "string[]",
					"name": "signatures",
					"type": "string[]"
				},
				{
					"indexed": false,
					"internalType": "bytes[]",
					"name": "calldatas",
					"type": "bytes[]"
				},
				{
					"indexed": false,
					"internalType": "uint256",
					"name": "startBlock",
					"type": "uint256"
				},
				{
					"indexed": false,
					"internalType": "uint256",
					"name": "endBlock",
					"type": "uint256"
				},
				{
					"indexed": false,
					"internalType": "string",
					"name": "description",
					"type": "string"
				}
			],
			"name": "ProposalCreated",
			"type": "event"
		},
		{
			"anonymous": false,
			"inputs": [
				{
					"indexed": false,
					"internalType": "uint256",
					"name": "id",
					"type": "uint256"
				},
				{
					"indexed": false,
					"internalType": "address",
					"name": "proposer",
					"type": "address"
				},
				{
					"indexed": false,
					"internalType": "address[]",
					"name": "targets",
					"type": "address[]"
				},
				{
					"indexed": false,
					"internalType": "uint256[]",
					"name": "values",
					"type": "uint256[]"
				},
				{
					"indexed": false,
					"internalType": "string[]",
					"name": "signatures",
					"type": "string[]"
				},
				{
					"indexed": false,
					"internalType": "bytes[]",
					"name": "calldatas",
					"type": "bytes[]"
				},
				{
					"indexed": false,
					"internalType": "uint256",
					"name": "startBlock",
					"type": "uint256"
				},
				{
					"indexed": false,
					"internalType": "uint256",
					"name": "endBlock",
					"type": "uint256"
				},
				{
					"indexed": false,
					"internalType": "uint256",
					"name": "proposalThreshold",
					"type": "uint256"
				},
				{
					"indexed": false,
					"internalType": "uint256",
					"name": "quorumVotes",
					"type": "uint256"
				},
				{
					"indexed": false,
					"internalType": "string",
					"name": "description",
					"type": "string"
				}
			],
			"name": "ProposalCreatedWithRequirements",
			"type": "event"
		},
		{
			"anonymous": false,
			"inputs": [
				{
					"indexed": false,
					"internalType": "uint256",
					"name": "id",
					"type": "uint256"
				}
			],
			"name": "ProposalExecuted",
			"type": "event"
		},
		{
			"anonymous": false,
			"inputs": [
				{
					"indexed": false,
					"internalType": "uint256",
					"name": "id",
					"type": "uint256"
				},
				{
					"indexed": false,
					"internalType": "uint256",
					"name": "eta",
					"type": "uint256"
				}
			],
			"name": "ProposalQueued",
			"type": "event"
		},
		{
			"anonymous": false,
			"inputs": [
				{
					"indexed": false,
					"internalType": "uint256",
					"name": "oldProposalThresholdBPS",
					"type": "uint256"
				},
				{
					"indexed": false,
					"internalType": "uint256",
					"name": "newProposalThresholdBPS",
					"type": "uint256"
				}
			],
			"name": "ProposalThresholdBPSSet",
			"type": "event"
		},
		{
			"anonymous": false,
			"inputs": [
				{
					"indexed": false,
					"internalType": "uint256",
					"name": "id",
					"type": "uint256"
				}
			],
			"name": "ProposalVetoed",
			"type": "event"
		},
		{
			"anonymous": false,
			"inputs": [
				{
					"indexed": false,
					"internalType": "uint256",
					"name": "oldQuorumVotesBPS",
					"type": "uint256"
				},
				{
					"indexed": false,
					"internalType": "uint256",
					"name": "newQuorumVotesBPS",
					"type": "uint256"
				}
			],
			"name": "QuorumVotesBPSSet",
			"type": "event"
		},
		{
			"anonymous": false,
			"inputs": [
				{
					"indexed": true,
					"internalType": "address",
					"name": "voter",
					"type": "address"
				},
				{
					"indexed": false,
					"internalType": "uint256",
					"name": "proposalId",
					"type": "uint256"
				},
				{
					"indexed": false,
					"internalType": "uint8",
					"name": "support",
					"type": "uint8"
				},
				{
					"indexed": false,
					"internalType": "uint256",
					"name": "votes",
					"type": "uint256"
				},
				{
					"indexed": false,
					"internalType": "string",
					"name": "reason",
					"type": "string"
				}
			],
			"name": "VoteCast",
			"type": "event"
		},
		{
			"anonymous": false,
			"inputs": [
				{
					"indexed": false,
					"internalType": "uint256",
					"name": "oldVotingDelay",
					"type": "uint256"
				},
				{
					"indexed": false,
					"internalType": "uint256",
					"name": "newVotingDelay",
					"type": "uint256"
				}
			],
			"name": "VotingDelaySet",
			"type": "event"
		},
		{
			"anonymous": false,
			"inputs": [
				{
					"indexed": false,
					"internalType": "uint256",
					"name": "oldVotingPeriod",
					"type": "uint256"
				},
				{
					"indexed": false,
					"internalType": "uint256",
					"name": "newVotingPeriod",
					"type": "uint256"
				}
			],
			"name": "VotingPeriodSet",
			"type": "event"
		},
		{
			"inputs": [],
			"name": "BALLOT_TYPEHASH",
			"outputs": [
				{
					"internalType": "bytes32",
					"name": "",
					"type": "bytes32"
				}
			],
			"stateMutability": "view",
			"type": "function"
		},
		{
			"inputs": [],
			"name": "DOMAIN_TYPEHASH",
			"outputs": [
				{
					"internalType": "bytes32",
					"name": "",
					"type": "bytes32"
				}
			],
			"stateMutability": "view",
			"type": "function"
		},
		{
			"inputs": [],
			"name": "MAX_PROPOSAL_THRESHOLD_BPS",
			"outputs": [
				{
					"internalType": "uint256",
					"name": "",
					"type": "uint256"
				}
			],
			"stateMutability": "view",
			"type": "function"
		},
		{
			"inputs": [],
			"name": "MAX_QUORUM_VOTES_BPS",
			"outputs": [
				{
					"internalType": "uint256",
					"name": "",
					"type": "uint256"
				}
			],
			"stateMutability": "view",
			"type": "function"
		},
		{
			"inputs": [],
			"name": "MAX_VOTING_DELAY",
			"outputs": [
				{
					"internalType": "uint256",
					"name": "",
					"type": "uint256"
				}
			],
			"stateMutability": "view",
			"type": "function"
		},
		{
			"inputs": [],
			"name": "MAX_VOTING_PERIOD",
			"outputs": [
				{
					"internalType": "uint256",
					"name": "",
					"type": "uint256"
				}
			],
			"stateMutability": "view",
			"type": "function"
		},
		{
			"inputs": [],
			"name": "MIN_PROPOSAL_THRESHOLD_BPS",
			"outputs": [
				{
					"internalType": "uint256",
					"name": "",
					"type": "uint256"
				}
			],
			"stateMutability": "view",
			"type": "function"
		},
		{
			"inputs": [],
			"name": "MIN_QUORUM_VOTES_BPS",
			"outputs": [
				{
					"internalType": "uint256",
					"name": "",
					"type": "uint256"
				}
			],
			"stateMutability": "view",
			"type": "function"
		},
		{
			"inputs": [],
			"name": "MIN_VOTING_DELAY",
			"outputs": [
				{
					"internalType": "uint256",
					"name": "",
					"type": "uint256"
				}
			],
			"stateMutability": "view",
			"type": "function"
		},
		{
			"inputs": [],
			"name": "MIN_VOTING_PERIOD",
			"outputs": [
				{
					"internalType": "uint256",
					"name": "",
					"type": "uint256"
				}
			],
			"stateMutability": "view",
			"type": "function"
		},
		{
			"inputs": [],
			"name": "OxWorks",
			"outputs": [
				{
					"internalType": "contract OxWorksTokenLike",
					"name": "",
					"type": "address"
				}
			],
			"stateMutability": "view",
			"type": "function"
		},
		{
			"inputs": [],
			"name": "_acceptAdmin",
			"outputs": [],
			"stateMutability": "nonpayable",
			"type": "function"
		},
		{
			"inputs": [],
			"name": "_burnVetoPower",
			"outputs": [],
			"stateMutability": "nonpayable",
			"type": "function"
		},
		{
			"inputs": [
				{
					"internalType": "address",
					"name": "newPendingAdmin",
					"type": "address"
				}
			],
			"name": "_setPendingAdmin",
			"outputs": [],
			"stateMutability": "nonpayable",
			"type": "function"
		},
		{
			"inputs": [
				{
					"internalType": "uint256",
					"name": "newProposalThresholdBPS",
					"type": "uint256"
				}
			],
			"name": "_setProposalThresholdBPS",
			"outputs": [],
			"stateMutability": "nonpayable",
			"type": "function"
		},
		{
			"inputs": [
				{
					"internalType": "uint256",
					"name": "newQuorumVotesBPS",
					"type": "uint256"
				}
			],
			"name": "_setQuorumVotesBPS",
			"outputs": [],
			"stateMutability": "nonpayable",
			"type": "function"
		},
		{
			"inputs": [
				{
					"internalType": "address",
					"name": "newVetoer",
					"type": "address"
				}
			],
			"name": "_setVetoer",
			"outputs": [],
			"stateMutability": "nonpayable",
			"type": "function"
		},
		{
			"inputs": [
				{
					"internalType": "uint256",
					"name": "newVotingDelay",
					"type": "uint256"
				}
			],
			"name": "_setVotingDelay",
			"outputs": [],
			"stateMutability": "nonpayable",
			"type": "function"
		},
		{
			"inputs": [
				{
					"internalType": "uint256",
					"name": "newVotingPeriod",
					"type": "uint256"
				}
			],
			"name": "_setVotingPeriod",
			"outputs": [],
			"stateMutability": "nonpayable",
			"type": "function"
		},
		{
			"inputs": [],
			"name": "admin",
			"outputs": [
				{
					"internalType": "address",
					"name": "",
					"type": "address"
				}
			],
			"stateMutability": "view",
			"type": "function"
		},
		{
			"inputs": [
				{
					"internalType": "uint256",
					"name": "proposalId",
					"type": "uint256"
				}
			],
			"name": "cancel",
			"outputs": [],
			"stateMutability": "nonpayable",
			"type": "function"
		},
		{
			"inputs": [
				{
					"internalType": "uint256",
					"name": "proposalId",
					"type": "uint256"
				},
				{
					"internalType": "uint8",
					"name": "support",
					"type": "uint8"
				}
			],
			"name": "castVote",
			"outputs": [],
			"stateMutability": "nonpayable",
			"type": "function"
		},
		{
			"inputs": [
				{
					"internalType": "uint256",
					"name": "proposalId",
					"type": "uint256"
				},
				{
					"internalType": "uint8",
					"name": "support",
					"type": "uint8"
				},
				{
					"internalType": "uint8",
					"name": "v",
					"type": "uint8"
				},
				{
					"internalType": "bytes32",
					"name": "r",
					"type": "bytes32"
				},
				{
					"internalType": "bytes32",
					"name": "s",
					"type": "bytes32"
				}
			],
			"name": "castVoteBySig",
			"outputs": [],
			"stateMutability": "nonpayable",
			"type": "function"
		},
		{
			"inputs": [
				{
					"internalType": "uint256",
					"name": "proposalId",
					"type": "uint256"
				},
				{
					"internalType": "uint8",
					"name": "support",
					"type": "uint8"
				},
				{
					"internalType": "string",
					"name": "reason",
					"type": "string"
				}
			],
			"name": "castVoteWithReason",
			"outputs": [],
			"stateMutability": "nonpayable",
			"type": "function"
		},
		{
			"inputs": [
				{
					"internalType": "uint256",
					"name": "proposalId",
					"type": "uint256"
				}
			],
			"name": "execute",
			"outputs": [],
			"stateMutability": "nonpayable",
			"type": "function"
		},
		{
			"inputs": [
				{
					"internalType": "uint256",
					"name": "proposalId",
					"type": "uint256"
				}
			],
			"name": "getActions",
			"outputs": [
				{
					"internalType": "address[]",
					"name": "targets",
					"type": "address[]"
				},
				{
					"internalType": "uint256[]",
					"name": "values",
					"type": "uint256[]"
				},
				{
					"internalType": "string[]",
					"name": "signatures",
					"type": "string[]"
				},
				{
					"internalType": "bytes[]",
					"name": "calldatas",
					"type": "bytes[]"
				}
			],
			"stateMutability": "view",
			"type": "function"
		},
		{
			"inputs": [
				{
					"internalType": "uint256",
					"name": "proposalId",
					"type": "uint256"
				},
				{
					"internalType": "address",
					"name": "voter",
					"type": "address"
				}
			],
			"name": "getReceipt",
			"outputs": [
				{
					"components": [
						{
							"internalType": "bool",
							"name": "hasVoted",
							"type": "bool"
						},
						{
							"internalType": "uint8",
							"name": "support",
							"type": "uint8"
						},
						{
							"internalType": "uint96",
							"name": "votes",
							"type": "uint96"
						}
					],
					"internalType": "struct OxWorksDAOStorageV1.Receipt",
					"name": "",
					"type": "tuple"
				}
			],
			"stateMutability": "view",
			"type": "function"
		},
		{
			"inputs": [],
			"name": "implementation",
			"outputs": [
				{
					"internalType": "address",
					"name": "",
					"type": "address"
				}
			],
			"stateMutability": "view",
			"type": "function"
		},
		{
			"inputs": [
				{
					"internalType": "address",
					"name": "timelock_",
					"type": "address"
				},
				{
					"internalType": "address",
					"name": "OxWorks_",
					"type": "address"
				},
				{
					"internalType": "address",
					"name": "vetoer_",
					"type": "address"
				},
				{
					"internalType": "uint256",
					"name": "votingPeriod_",
					"type": "uint256"
				},
				{
					"internalType": "uint256",
					"name": "votingDelay_",
					"type": "uint256"
				},
				{
					"internalType": "uint256",
					"name": "proposalThresholdBPS_",
					"type": "uint256"
				},
				{
					"internalType": "uint256",
					"name": "quorumVotesBPS_",
					"type": "uint256"
				}
			],
			"name": "initialize",
			"outputs": [],
			"stateMutability": "nonpayable",
			"type": "function"
		},
		{
			"inputs": [
				{
					"internalType": "address",
					"name": "",
					"type": "address"
				}
			],
			"name": "latestProposalIds",
			"outputs": [
				{
					"internalType": "uint256",
					"name": "",
					"type": "uint256"
				}
			],
			"stateMutability": "view",
			"type": "function"
		},
		{
			"inputs": [],
			"name": "name",
			"outputs": [
				{
					"internalType": "string",
					"name": "",
					"type": "string"
				}
			],
			"stateMutability": "view",
			"type": "function"
		},
		{
			"inputs": [],
			"name": "pendingAdmin",
			"outputs": [
				{
					"internalType": "address",
					"name": "",
					"type": "address"
				}
			],
			"stateMutability": "view",
			"type": "function"
		},
		{
			"inputs": [],
			"name": "proposalCount",
			"outputs": [
				{
					"internalType": "uint256",
					"name": "",
					"type": "uint256"
				}
			],
			"stateMutability": "view",
			"type": "function"
		},
		{
			"inputs": [],
			"name": "proposalMaxOperations",
			"outputs": [
				{
					"internalType": "uint256",
					"name": "",
					"type": "uint256"
				}
			],
			"stateMutability": "view",
			"type": "function"
		},
		{
			"inputs": [],
			"name": "proposalThreshold",
			"outputs": [
				{
					"internalType": "uint256",
					"name": "",
					"type": "uint256"
				}
			],
			"stateMutability": "view",
			"type": "function"
		},
		{
			"inputs": [],
			"name": "proposalThresholdBPS",
			"outputs": [
				{
					"internalType": "uint256",
					"name": "",
					"type": "uint256"
				}
			],
			"stateMutability": "view",
			"type": "function"
		},
		{
			"inputs": [
				{
					"internalType": "uint256",
					"name": "",
					"type": "uint256"
				}
			],
			"name": "proposals",
			"outputs": [
				{
					"internalType": "uint256",
					"name": "id",
					"type": "uint256"
				},
				{
					"internalType": "address",
					"name": "proposer",
					"type": "address"
				},
				{
					"internalType": "uint256",
					"name": "proposalThreshold",
					"type": "uint256"
				},
				{
					"internalType": "uint256",
					"name": "quorumVotes",
					"type": "uint256"
				},
				{
					"internalType": "uint256",
					"name": "eta",
					"type": "uint256"
				},
				{
					"internalType": "uint256",
					"name": "startBlock",
					"type": "uint256"
				},
				{
					"internalType": "uint256",
					"name": "endBlock",
					"type": "uint256"
				},
				{
					"internalType": "uint256",
					"name": "forVotes",
					"type": "uint256"
				},
				{
					"internalType": "uint256",
					"name": "againstVotes",
					"type": "uint256"
				},
				{
					"internalType": "uint256",
					"name": "abstainVotes",
					"type": "uint256"
				},
				{
					"internalType": "bool",
					"name": "canceled",
					"type": "bool"
				},
				{
					"internalType": "bool",
					"name": "vetoed",
					"type": "bool"
				},
				{
					"internalType": "bool",
					"name": "executed",
					"type": "bool"
				}
			],
			"stateMutability": "view",
			"type": "function"
		},
		{
			"inputs": [
				{
					"internalType": "address[]",
					"name": "targets",
					"type": "address[]"
				},
				{
					"internalType": "uint256[]",
					"name": "values",
					"type": "uint256[]"
				},
				{
					"internalType": "string[]",
					"name": "signatures",
					"type": "string[]"
				},
				{
					"internalType": "bytes[]",
					"name": "calldatas",
					"type": "bytes[]"
				},
				{
					"internalType": "string",
					"name": "description",
					"type": "string"
				}
			],
			"name": "propose",
			"outputs": [
				{
					"internalType": "uint256",
					"name": "",
					"type": "uint256"
				}
			],
			"stateMutability": "nonpayable",
			"type": "function"
		},
		{
			"inputs": [
				{
					"internalType": "uint256",
					"name": "proposalId",
					"type": "uint256"
				}
			],
			"name": "queue",
			"outputs": [],
			"stateMutability": "nonpayable",
			"type": "function"
		},
		{
			"inputs": [],
			"name": "quorumVotes",
			"outputs": [
				{
					"internalType": "uint256",
					"name": "",
					"type": "uint256"
				}
			],
			"stateMutability": "view",
			"type": "function"
		},
		{
			"inputs": [],
			"name": "quorumVotesBPS",
			"outputs": [
				{
					"internalType": "uint256",
					"name": "",
					"type": "uint256"
				}
			],
			"stateMutability": "view",
			"type": "function"
		},
		{
			"inputs": [
				{
					"internalType": "uint256",
					"name": "proposalId",
					"type": "uint256"
				}
			],
			"name": "state",
			"outputs": [
				{
					"internalType": "enum OxWorksDAOStorageV1.ProposalState",
					"name": "",
					"type": "uint8"
				}
			],
			"stateMutability": "view",
			"type": "function"
		},
		{
			"inputs": [],
			"name": "timelock",
			"outputs": [
				{
					"internalType": "contract IOxWorksDAOExecutor",
					"name": "",
					"type": "address"
				}
			],
			"stateMutability": "view",
			"type": "function"
		},
		{
			"inputs": [
				{
					"internalType": "uint256",
					"name": "proposalId",
					"type": "uint256"
				}
			],
			"name": "veto",
			"outputs": [],
			"stateMutability": "nonpayable",
			"type": "function"
		},
		{
			"inputs": [],
			"name": "vetoer",
			"outputs": [
				{
					"internalType": "address",
					"name": "",
					"type": "address"
				}
			],
			"stateMutability": "view",
			"type": "function"
		},
		{
			"inputs": [],
			"name": "votingDelay",
			"outputs": [
				{
					"internalType": "uint256",
					"name": "",
					"type": "uint256"
				}
			],
			"stateMutability": "view",
			"type": "function"
		},
		{
			"inputs": [],
			"name": "votingPeriod",
			"outputs": [
				{
					"internalType": "uint256",
					"name": "",
					"type": "uint256"
				}
			],
			"stateMutability": "view",
			"type": "function"
		}
	]
}