{
	"data": {
		"bytecode": {
			"linkReferences": {
				"libs/NFTDescriptor.sol": {
					"NFTDescriptor": [
						{
							"length": 20,
							"start": 2228
						},
						{
							"length": 20,
							"start": 3617
						}
					]
				}
			},
			"object": "60806040526000805460ff60a81b1916600160a81b17905534801561002357600080fd5b5061002d33610032565b610082565b600080546001600160a01b038381166001600160a01b0319831681178455604051919092169283917f8be0079c531659141344cd1fd0a4f28419497f9722a3daafe3b4186f6b6457e09190a35050565b61224e806100916000396000f3fe608060405234801561001057600080fd5b506004361061021c5760003560e01c8063715018a6116101255780639a796205116100ad578063ce2f4f531161007c578063ce2f4f531461045c578063dfe8478b14610470578063eba8180614610478578063f2fde38b14610480578063f9da88631461049357600080fd5b80639a7962051461041b578063a51e41241461042e578063b982d1b914610441578063cc2aa0911461045457600080fd5b8063839644da116100f4578063839644da146103b457806387db11bd146103c75780638a85a1e8146103da5780638da5cb5b146103ed57806391b7916a1461040857600080fd5b8063715018a614610362578063773b97711461036a5780637a34aad31461038e5780637ca94210146103a157600080fd5b80634531c0a8116101a85780635a503f13116101775780635a503f131461030e5780635e70664c14610321578063615bda1014610334578063638ac270146103475780636c0360eb1461035a57600080fd5b80634531c0a8146102d85780634daebac2146102e057806355f804b3146102e8578063598fa9da146102fb57600080fd5b80632a1d0769116101ef5780632a1d0769146102855780632ea043001461028d5780633cfdafd3146102a05780634479cef2146102b357806344cee73c146102c557600080fd5b80630475d8631461022157806304bde4dd1461023657806317b552ab1461025f5780632715c90e14610272575b600080fd5b61023461022f366004611a74565b6104a6565b005b610249610244366004611be7565b610551565b6040516102569190611eaa565b60405180910390f35b61023461026d366004611ab5565b6105fd565b610234610280366004611ab5565b61065f565b6102346106bd565b61024961029b366004611bcb565b61074d565b6102496102ae366004611c00565b6108b6565b6007545b604051908152602001610256565b6102496102d3366004611be7565b610910565b6003546102b7565b6005546102b7565b6102346102f6366004611ab5565b610920565b610249610309366004611cc4565b610994565b61024961031c366004611be7565b6109cc565b61023461032f366004611ab5565b6109dc565b610234610342366004611ab5565b610a3a565b610249610355366004611c00565b610a98565b610249610b04565b610234610b11565b60005461037e90600160a01b900460ff1681565b6040519015158152602001610256565b61023461039c366004611a74565b610b47565b6102496103af366004611be7565b610be4565b6102346103c2366004611c2d565b610bf4565b6102496103d5366004611b57565b610cae565b6102346103e8366004611a74565b610e25565b6000546040516001600160a01b039091168152602001610256565b610234610416366004611a74565b610ec2565b610234610429366004611ab5565b610f5f565b61023461043c366004611a74565b610fbd565b61024961044f366004611be7565b61105a565b6006546102b7565b60005461037e90600160a81b900460ff1681565b61023461106a565b6004546102b7565b61023461048e366004611a4b565b6110ea565b6102346104a1366004611c7f565b611185565b6000546001600160a01b031633146104d95760405162461bcd60e51b81526004016104d090611f16565b60405180910390fd5b600054600160a01b900460ff16156105035760405162461bcd60e51b81526004016104d090611eec565b60005b8181101561054c5761053a838383818110610523576105236121ec565b9050602002810190610535919061204a565b6111ec565b8061054481612191565b915050610506565b505050565b6003818154811061056157600080fd5b90600052602060002001600091509050805461057c90612156565b80601f01602080910402602001604051908101604052809291908181526020018280546105a890612156565b80156105f55780601f106105ca576101008083540402835291602001916105f5565b820191906000526020600020905b8154815290600101906020018083116105d857829003601f168201915b505050505081565b6000546001600160a01b031633146106275760405162461bcd60e51b81526004016104d090611f16565b600054600160a01b900460ff16156106515760405162461bcd60e51b81526004016104d090611eec565b61065b82826111ec565b5050565b6000546001600160a01b031633146106895760405162461bcd60e51b81526004016104d090611f16565b600054600160a01b900460ff16156106b35760405162461bcd60e51b81526004016104d090611eec565b61065b8282611229565b6000546001600160a01b031633146106e75760405162461bcd60e51b81526004016104d090611f16565b600054600160a01b900460ff16156107115760405162461bcd60e51b81526004016104d090611eec565b6000805460ff60a01b1916600160a01b1781556040517f1680ee6d421f70ed6030d2fc4fcb50217a5dd617858d56562b119eca59172e579190a1565b60606000604051806040016040528061076585611266565b81526020016003856000015165ffffffffffff1681548110610789576107896121ec565b90600052602060002001805461079e90612156565b80601f01602080910402602001604051908101604052809291908181526020018280546107ca90612156565b80156108175780601f106107ec57610100808354040283529160200191610817565b820191906000526020600020905b8154815290600101906020018083116107fa57829003601f168201915b5050505050815250905073__$27a83a49dc97b0f0119890afe3b638c3f5$__6366b8c2418260026040518363ffffffff1660e01b815260040161085b929190611f8c565b60006040518083038186803b15801561087357600080fd5b505af4158015610887573d6000803e3d6000fd5b505050506040513d6000823e601f3d908101601f191682016040526108af9190810190611aea565b9392505050565b600054606090600160a81b900460ff16156108dc576108d58383610a98565b905061090a565b60016108e7846115df565b6040516020016108f8929190611d8b565b60405160208183030381529060405290505b92915050565b6004818154811061056157600080fd5b6000546001600160a01b0316331461094a5760405162461bcd60e51b81526004016104d090611f16565b61095660018383611814565b507f6741b2fc379fad678116fe3d4d4b9a1a184ab53ba36b86ad0fa66340b1ab41ad8282604051610988929190611ebd565b60405180910390a15050565b600260205281600052604060002081815481106109b057600080fd5b9060005260206000200160009150915050805461057c90612156565b6006818154811061056157600080fd5b6000546001600160a01b03163314610a065760405162461bcd60e51b81526004016104d090611f16565b600054600160a01b900460ff1615610a305760405162461bcd60e51b81526004016104d090611eec565b61065b82826116e4565b6000546001600160a01b03163314610a645760405162461bcd60e51b81526004016104d090611f16565b600054600160a01b900460ff1615610a8e5760405162461bcd60e51b81526004016104d090611eec565b61065b8282611721565b60606000610aa5846115df565b9050600081604051602001610aba9190611e29565b6040516020818303038152906040529050600082604051602001610ade9190611e56565b6040516020818303038152906040529050610afa828287610cae565b9695505050505050565b6001805461057c90612156565b6000546001600160a01b03163314610b3b5760405162461bcd60e51b81526004016104d090611f16565b610b45600061175e565b565b6000546001600160a01b03163314610b715760405162461bcd60e51b81526004016104d090611f16565b600054600160a01b900460ff1615610b9b5760405162461bcd60e51b81526004016104d090611eec565b60005b8181101561054c57610bd2838383818110610bbb57610bbb6121ec565b9050602002810190610bcd919061204a565b6117ae565b80610bdc81612191565b915050610b9e565b6005818154811061056157600080fd5b6000546001600160a01b03163314610c1e5760405162461bcd60e51b81526004016104d090611f16565b60ff831660009081526002602052604090205461010090610c409083906120e7565b1115610c5e5760405162461bcd60e51b81526004016104d090611f4b565b60005b81811015610ca857610c9684848484818110610c7f57610c7f6121ec565b9050602002810190610c91919061204a565b6117eb565b80610ca081612191565b915050610c61565b50505050565b606060006040518060800160405280868152602001858152602001610cd285611266565b81526020016003856000015165ffffffffffff1681548110610cf657610cf66121ec565b906000526020600020018054610d0b90612156565b80601f0160208091040260200160405190810160405280929190818152602001828054610d3790612156565b8015610d845780601f10610d5957610100808354040283529160200191610d84565b820191906000526020600020905b815481529060010190602001808311610d6757829003601f168201915b5050505050815250905073__$27a83a49dc97b0f0119890afe3b638c3f5$__63bf1deae28260026040518363ffffffff1660e01b8152600401610dc8929190611fd5565b60006040518083038186803b158015610de057600080fd5b505af4158015610df4573d6000803e3d6000fd5b505050506040513d6000823e601f3d908101601f19168201604052610e1c9190810190611aea565b95945050505050565b6000546001600160a01b03163314610e4f5760405162461bcd60e51b81526004016104d090611f16565b600054600160a01b900460ff1615610e795760405162461bcd60e51b81526004016104d090611eec565b60005b8181101561054c57610eb0838383818110610e9957610e996121ec565b9050602002810190610eab919061204a565b611229565b80610eba81612191565b915050610e7c565b6000546001600160a01b03163314610eec5760405162461bcd60e51b81526004016104d090611f16565b600054600160a01b900460ff1615610f165760405162461bcd60e51b81526004016104d090611eec565b60005b8181101561054c57610f4d838383818110610f3657610f366121ec565b9050602002810190610f48919061204a565b6116e4565b80610f5781612191565b915050610f19565b6000546001600160a01b03163314610f895760405162461bcd60e51b81526004016104d090611f16565b600054600160a01b900460ff1615610fb35760405162461bcd60e51b81526004016104d090611eec565b61065b82826117ae565b6000546001600160a01b03163314610fe75760405162461bcd60e51b81526004016104d090611f16565b600054600160a01b900460ff16156110115760405162461bcd60e51b81526004016104d090611eec565b60005b8181101561054c57611048838383818110611031576110316121ec565b9050602002810190611043919061204a565b611721565b8061105281612191565b915050611014565b6007818154811061056157600080fd5b6000546001600160a01b031633146110945760405162461bcd60e51b81526004016104d090611f16565b6000805460ff60a81b198116600160a81b9182900460ff1615918202179091556040518181527f360c3d72ee193226275b842f85231c259c934e85459fed80fa68e502ffa9dbde9060200160405180910390a150565b6000546001600160a01b031633146111145760405162461bcd60e51b81526004016104d090611f16565b6001600160a01b0381166111795760405162461bcd60e51b815260206004820152602660248201527f4f776e61626c653a206e6577206f776e657220697320746865207a65726f206160448201526564647265737360d01b60648201526084016104d0565b6111828161175e565b50565b6000546001600160a01b031633146111af5760405162461bcd60e51b81526004016104d090611f16565b60ff83811660009081526002602052604090205411156111e15760405162461bcd60e51b81526004016104d090611f4b565b61054c8383836117eb565b6005805460018101825560009190915261054c907f036b6384b5eca791c62761152d0c79bb0604c104a5fb6f4eb0703f3154bb3db0018383611814565b6004805460018101825560009190915261054c907f8a35acfbc15ff81a39ae7d344fd709f28e8600b4aa8c65c6b64bfe7fe36bd19b018383611814565b60408051600480825260a0820190925260609160009190816020015b60608152602001906001900390816112825790505090506004836020015165ffffffffffff16815481106112b8576112b86121ec565b9060005260206000200180546112cd90612156565b80601f01602080910402602001604051908101604052809291908181526020018280546112f990612156565b80156113465780601f1061131b57610100808354040283529160200191611346565b820191906000526020600020905b81548152906001019060200180831161132957829003601f168201915b50505050508160008151811061135e5761135e6121ec565b60200260200101819052506005836040015165ffffffffffff1681548110611388576113886121ec565b90600052602060002001805461139d90612156565b80601f01602080910402602001604051908101604052809291908181526020018280546113c990612156565b80156114165780601f106113eb57610100808354040283529160200191611416565b820191906000526020600020905b8154815290600101906020018083116113f957829003601f168201915b50505050508160018151811061142e5761142e6121ec565b60200260200101819052506006836060015165ffffffffffff1681548110611458576114586121ec565b90600052602060002001805461146d90612156565b80601f016020809104026020016040519081016040528092919081815260200182805461149990612156565b80156114e65780601f106114bb576101008083540402835291602001916114e6565b820191906000526020600020905b8154815290600101906020018083116114c957829003601f168201915b5050505050816002815181106114fe576114fe6121ec565b60200260200101819052506007836080015165ffffffffffff1681548110611528576115286121ec565b90600052602060002001805461153d90612156565b80601f016020809104026020016040519081016040528092919081815260200182805461156990612156565b80156115b65780601f1061158b576101008083540402835291602001916115b6565b820191906000526020600020905b81548152906001019060200180831161159957829003601f168201915b5050505050816003815181106115ce576115ce6121ec565b602090810291909101015292915050565b6060816116035750506040805180820190915260018152600360fc1b602082015290565b8160005b811561162d578061161781612191565b91506116269050600a836120ff565b9150611607565b6000816001600160401b0381111561164757611647612202565b6040519080825280601f01601f191660200182016040528015611671576020820181803683370190505b5090505b84156116dc57611686600183612113565b9150611693600a866121ac565b61169e9060306120e7565b60f81b8183815181106116b3576116b36121ec565b60200101906001600160f81b031916908160001a9053506116d5600a866120ff565b9450611675565b949350505050565b6003805460018101825560009190915261054c907fc2575a0e9e593c00f959f8c92f12db2869c3395a3b0502d05e2516446f71f85b018383611814565b6007805460018101825560009190915261054c907fa66cc928b5edb82af9bd49922954155ab7b0942694bea4ce44661d9a8736c688018383611814565b600080546001600160a01b038381166001600160a01b0319831681178455604051919092169283917f8be0079c531659141344cd1fd0a4f28419497f9722a3daafe3b4186f6b6457e09190a35050565b6006805460018101825560009190915261054c907ff652222313e28459528d920b65115c16c04f3efc82aaedc97be59f3f377c0d3f018383611814565b60ff83166000908152600260209081526040822080546001810182559083529120610ca8910183835b82805461182090612156565b90600052602060002090601f0160209004810192826118425760008555611888565b82601f1061185b5782800160ff19823516178555611888565b82800160010185558215611888579182015b8281111561188857823582559160200191906001019061186d565b50611894929150611898565b5090565b5b808211156118945760008155600101611899565b60008083601f8401126118bf57600080fd5b5081356001600160401b038111156118d657600080fd5b6020830191508360208260051b85010111156118f157600080fd5b9250929050565b60008083601f84011261190a57600080fd5b5081356001600160401b0381111561192157600080fd5b6020830191508360208285010111156118f157600080fd5b600082601f83011261194a57600080fd5b813561195d611958826120c0565b612090565b81815284602083860101111561197257600080fd5b816020850160208301376000918101602001919091529392505050565b600060a082840312156119a157600080fd5b60405160a081018181106001600160401b03821117156119c3576119c3612202565b6040529050806119d283611a1f565b81526119e060208401611a1f565b60208201526119f160408401611a1f565b6040820152611a0260608401611a1f565b6060820152611a1360808401611a1f565b60808201525092915050565b803565ffffffffffff81168114611a3557600080fd5b919050565b803560ff81168114611a3557600080fd5b600060208284031215611a5d57600080fd5b81356001600160a01b03811681146108af57600080fd5b60008060208385031215611a8757600080fd5b82356001600160401b03811115611a9d57600080fd5b611aa9858286016118ad565b90969095509350505050565b60008060208385031215611ac857600080fd5b82356001600160401b03811115611ade57600080fd5b611aa9858286016118f8565b600060208284031215611afc57600080fd5b81516001600160401b03811115611b1257600080fd5b8201601f81018413611b2357600080fd5b8051611b31611958826120c0565b818152856020838501011115611b4657600080fd5b610e1c82602083016020860161212a565b600080600060e08486031215611b6c57600080fd5b83356001600160401b0380821115611b8357600080fd5b611b8f87838801611939565b94506020860135915080821115611ba557600080fd5b50611bb286828701611939565b925050611bc2856040860161198f565b90509250925092565b600060a08284031215611bdd57600080fd5b6108af838361198f565b600060208284031215611bf957600080fd5b5035919050565b60008060c08385031215611c1357600080fd5b82359150611c24846020850161198f565b90509250929050565b600080600060408486031215611c4257600080fd5b611c4b84611a3a565b925060208401356001600160401b03811115611c6657600080fd5b611c72868287016118ad565b9497909650939450505050565b600080600060408486031215611c9457600080fd5b611c9d84611a3a565b925060208401356001600160401b03811115611cb857600080fd5b611c72868287016118f8565b60008060408385031215611cd757600080fd5b611ce083611a3a565b946020939093013593505050565b600081518084526020808501808196508360051b8101915082860160005b85811015611d36578284038952611d24848351611d43565b98850198935090840190600101611d0c565b5091979650505050505050565b60008151808452611d5b81602086016020860161212a565b601f01601f19169290920160200192915050565b60008151611d8181856020860161212a565b9290920192915050565b600080845481600182811c915080831680611da757607f831692505b6020808410821415611dc757634e487b7160e01b86526022600452602486fd5b818015611ddb5760018114611dec57611e19565b60ff19861689528489019650611e19565b60008b81526020902060005b86811015611e115781548b820152908501908301611df8565b505084890196505b505050505050610e1c8185611d6f565b6402bb7b935960dd1b815260008251611e4981600585016020870161212a565b9190910160050192915050565b6402bb7b935960dd1b815260008251611e7681600585016020870161212a565b7f2069732061206d656d626572206f6620746865204f78576f726b732044414f006005939091019283015250602401919050565b6020815260006108af6020830184611d43565b60208152816020820152818360408301376000818301604090810191909152601f909201601f19160101919050565b60208082526010908201526f14185c9d1cc8185c99481b1bd8dad95960821b604082015260600190565b6020808252818101527f4f776e61626c653a2063616c6c6572206973206e6f7420746865206f776e6572604082015260600190565b60208082526021908201527f50616c65747465732063616e206f6e6c7920686f6c642032353620636f6c6f726040820152607360f81b606082015260800190565b6040815260008351604080840152611fa76080840182611cee565b90506020850151603f19848303016060850152611fc48282611d43565b925050508260208301529392505050565b604081526000835160806040840152611ff160c0840182611d43565b90506020850151603f198085840301606086015261200f8383611d43565b9250604087015191508085840301608086015261202c8383611cee565b925060608701519150808584030160a086015250611fc48282611d43565b6000808335601e1984360301811261206157600080fd5b8301803591506001600160401b0382111561207b57600080fd5b6020019150368190038213156118f157600080fd5b604051601f8201601f191681016001600160401b03811182821017156120b8576120b8612202565b604052919050565b60006001600160401b038211156120d9576120d9612202565b50601f01601f191660200190565b600082198211156120fa576120fa6121c0565b500190565b60008261210e5761210e6121d6565b500490565b600082821015612125576121256121c0565b500390565b60005b8381101561214557818101518382015260200161212d565b83811115610ca85750506000910152565b600181811c9082168061216a57607f821691505b6020821081141561218b57634e487b7160e01b600052602260045260246000fd5b50919050565b60006000198214156121a5576121a56121c0565b5060010190565b6000826121bb576121bb6121d6565b500690565b634e487b7160e01b600052601160045260246000fd5b634e487b7160e01b600052601260045260246000fd5b634e487b7160e01b600052603260045260246000fd5b634e487b7160e01b600052604160045260246000fdfea2646970667358221220573dbf032fe5d8392768ceb0fd30cdd81194f6d29077aad2b34a5300200a434764736f6c63430008070033",
			"opcodes": "PUSH1 0x80 PUSH1 0x40 MSTORE PUSH1 0x0 DUP1 SLOAD PUSH1 0xFF PUSH1 0xA8 SHL NOT AND PUSH1 0x1 PUSH1 0xA8 SHL OR SWAP1 SSTORE CALLVALUE DUP1 ISZERO PUSH2 0x23 JUMPI PUSH1 0x0 DUP1 REVERT JUMPDEST POP PUSH2 0x2D CALLER PUSH2 0x32 JUMP JUMPDEST PUSH2 0x82 JUMP JUMPDEST PUSH1 0x0 DUP1 SLOAD PUSH1 0x1 PUSH1 0x1 PUSH1 0xA0 SHL SUB DUP4 DUP2 AND PUSH1 0x1 PUSH1 0x1 PUSH1 0xA0 SHL SUB NOT DUP4 AND DUP2 OR DUP5 SSTORE PUSH1 0x40 MLOAD SWAP2 SWAP1 SWAP3 AND SWAP3 DUP4 SWAP2 PUSH32 0x8BE0079C531659141344CD1FD0A4F28419497F9722A3DAAFE3B4186F6B6457E0 SWAP2 SWAP1 LOG3 POP POP JUMP JUMPDEST PUSH2 0x224E DUP1 PUSH2 0x91 PUSH1 0x0 CODECOPY PUSH1 0x0 RETURN INVALID PUSH1 0x80 PUSH1 0x40 MSTORE CALLVALUE DUP1 ISZERO PUSH2 0x10 JUMPI PUSH1 0x0 DUP1 REVERT JUMPDEST POP PUSH1 0x4 CALLDATASIZE LT PUSH2 0x21C JUMPI PUSH1 0x0 CALLDATALOAD PUSH1 0xE0 SHR DUP1 PUSH4 0x715018A6 GT PUSH2 0x125 JUMPI DUP1 PUSH4 0x9A796205 GT PUSH2 0xAD JUMPI DUP1 PUSH4 0xCE2F4F53 GT PUSH2 0x7C JUMPI DUP1 PUSH4 0xCE2F4F53 EQ PUSH2 0x45C JUMPI DUP1 PUSH4 0xDFE8478B EQ PUSH2 0x470 JUMPI DUP1 PUSH4 0xEBA81806 EQ PUSH2 0x478 JUMPI DUP1 PUSH4 0xF2FDE38B EQ PUSH2 0x480 JUMPI DUP1 PUSH4 0xF9DA8863 EQ PUSH2 0x493 JUMPI PUSH1 0x0 DUP1 REVERT JUMPDEST DUP1 PUSH4 0x9A796205 EQ PUSH2 0x41B JUMPI DUP1 PUSH4 0xA51E4124 EQ PUSH2 0x42E JUMPI DUP1 PUSH4 0xB982D1B9 EQ PUSH2 0x441 JUMPI DUP1 PUSH4 0xCC2AA091 EQ PUSH2 0x454 JUMPI PUSH1 0x0 DUP1 REVERT JUMPDEST DUP1 PUSH4 0x839644DA GT PUSH2 0xF4 JUMPI DUP1 PUSH4 0x839644DA EQ PUSH2 0x3B4 JUMPI DUP1 PUSH4 0x87DB11BD EQ PUSH2 0x3C7 JUMPI DUP1 PUSH4 0x8A85A1E8 EQ PUSH2 0x3DA JUMPI DUP1 PUSH4 0x8DA5CB5B EQ PUSH2 0x3ED JUMPI DUP1 PUSH4 0x91B7916A EQ PUSH2 0x408 JUMPI PUSH1 0x0 DUP1 REVERT JUMPDEST DUP1 PUSH4 0x715018A6 EQ PUSH2 0x362 JUMPI DUP1 PUSH4 0x773B9771 EQ PUSH2 0x36A JUMPI DUP1 PUSH4 0x7A34AAD3 EQ PUSH2 0x38E JUMPI DUP1 PUSH4 0x7CA94210 EQ PUSH2 0x3A1 JUMPI PUSH1 0x0 DUP1 REVERT JUMPDEST DUP1 PUSH4 0x4531C0A8 GT PUSH2 0x1A8 JUMPI DUP1 PUSH4 0x5A503F13 GT PUSH2 0x177 JUMPI DUP1 PUSH4 0x5A503F13 EQ PUSH2 0x30E JUMPI DUP1 PUSH4 0x5E70664C EQ PUSH2 0x321 JUMPI DUP1 PUSH4 0x615BDA10 EQ PUSH2 0x334 JUMPI DUP1 PUSH4 0x638AC270 EQ PUSH2 0x347 JUMPI DUP1 PUSH4 0x6C0360EB EQ PUSH2 0x35A JUMPI PUSH1 0x0 DUP1 REVERT JUMPDEST DUP1 PUSH4 0x4531C0A8 EQ PUSH2 0x2D8 JUMPI DUP1 PUSH4 0x4DAEBAC2 EQ PUSH2 0x2E0 JUMPI DUP1 PUSH4 0x55F804B3 EQ PUSH2 0x2E8 JUMPI DUP1 PUSH4 0x598FA9DA EQ PUSH2 0x2FB JUMPI PUSH1 0x0 DUP1 REVERT JUMPDEST DUP1 PUSH4 0x2A1D0769 GT PUSH2 0x1EF JUMPI DUP1 PUSH4 0x2A1D0769 EQ PUSH2 0x285 JUMPI DUP1 PUSH4 0x2EA04300 EQ PUSH2 0x28D JUMPI DUP1 PUSH4 0x3CFDAFD3 EQ PUSH2 0x2A0 JUMPI DUP1 PUSH4 0x4479CEF2 EQ PUSH2 0x2B3 JUMPI DUP1 PUSH4 0x44CEE73C EQ PUSH2 0x2C5 JUMPI PUSH1 0x0 DUP1 REVERT JUMPDEST DUP1 PUSH4 0x475D863 EQ PUSH2 0x221 JUMPI DUP1 PUSH4 0x4BDE4DD EQ PUSH2 0x236 JUMPI DUP1 PUSH4 0x17B552AB EQ PUSH2 0x25F JUMPI DUP1 PUSH4 0x2715C90E EQ PUSH2 0x272 JUMPI JUMPDEST PUSH1 0x0 DUP1 REVERT JUMPDEST PUSH2 0x234 PUSH2 0x22F CALLDATASIZE PUSH1 0x4 PUSH2 0x1A74 JUMP JUMPDEST PUSH2 0x4A6 JUMP JUMPDEST STOP JUMPDEST PUSH2 0x249 PUSH2 0x244 CALLDATASIZE PUSH1 0x4 PUSH2 0x1BE7 JUMP JUMPDEST PUSH2 0x551 JUMP JUMPDEST PUSH1 0x40 MLOAD PUSH2 0x256 SWAP2 SWAP1 PUSH2 0x1EAA JUMP JUMPDEST PUSH1 0x40 MLOAD DUP1 SWAP2 SUB SWAP1 RETURN JUMPDEST PUSH2 0x234 PUSH2 0x26D CALLDATASIZE PUSH1 0x4 PUSH2 0x1AB5 JUMP JUMPDEST PUSH2 0x5FD JUMP JUMPDEST PUSH2 0x234 PUSH2 0x280 CALLDATASIZE PUSH1 0x4 PUSH2 0x1AB5 JUMP JUMPDEST PUSH2 0x65F JUMP JUMPDEST PUSH2 0x234 PUSH2 0x6BD JUMP JUMPDEST PUSH2 0x249 PUSH2 0x29B CALLDATASIZE PUSH1 0x4 PUSH2 0x1BCB JUMP JUMPDEST PUSH2 0x74D JUMP JUMPDEST PUSH2 0x249 PUSH2 0x2AE CALLDATASIZE PUSH1 0x4 PUSH2 0x1C00 JUMP JUMPDEST PUSH2 0x8B6 JUMP JUMPDEST PUSH1 0x7 SLOAD JUMPDEST PUSH1 0x40 MLOAD SWAP1 DUP2 MSTORE PUSH1 0x20 ADD PUSH2 0x256 JUMP JUMPDEST PUSH2 0x249 PUSH2 0x2D3 CALLDATASIZE PUSH1 0x4 PUSH2 0x1BE7 JUMP JUMPDEST PUSH2 0x910 JUMP JUMPDEST PUSH1 0x3 SLOAD PUSH2 0x2B7 JUMP JUMPDEST PUSH1 0x5 SLOAD PUSH2 0x2B7 JUMP JUMPDEST PUSH2 0x234 PUSH2 0x2F6 CALLDATASIZE PUSH1 0x4 PUSH2 0x1AB5 JUMP JUMPDEST PUSH2 0x920 JUMP JUMPDEST PUSH2 0x249 PUSH2 0x309 CALLDATASIZE PUSH1 0x4 PUSH2 0x1CC4 JUMP JUMPDEST PUSH2 0x994 JUMP JUMPDEST PUSH2 0x249 PUSH2 0x31C CALLDATASIZE PUSH1 0x4 PUSH2 0x1BE7 JUMP JUMPDEST PUSH2 0x9CC JUMP JUMPDEST PUSH2 0x234 PUSH2 0x32F CALLDATASIZE PUSH1 0x4 PUSH2 0x1AB5 JUMP JUMPDEST PUSH2 0x9DC JUMP JUMPDEST PUSH2 0x234 PUSH2 0x342 CALLDATASIZE PUSH1 0x4 PUSH2 0x1AB5 JUMP JUMPDEST PUSH2 0xA3A JUMP JUMPDEST PUSH2 0x249 PUSH2 0x355 CALLDATASIZE PUSH1 0x4 PUSH2 0x1C00 JUMP JUMPDEST PUSH2 0xA98 JUMP JUMPDEST PUSH2 0x249 PUSH2 0xB04 JUMP JUMPDEST PUSH2 0x234 PUSH2 0xB11 JUMP JUMPDEST PUSH1 0x0 SLOAD PUSH2 0x37E SWAP1 PUSH1 0x1 PUSH1 0xA0 SHL SWAP1 DIV PUSH1 0xFF AND DUP2 JUMP JUMPDEST PUSH1 0x40 MLOAD SWAP1 ISZERO ISZERO DUP2 MSTORE PUSH1 0x20 ADD PUSH2 0x256 JUMP JUMPDEST PUSH2 0x234 PUSH2 0x39C CALLDATASIZE PUSH1 0x4 PUSH2 0x1A74 JUMP JUMPDEST PUSH2 0xB47 JUMP JUMPDEST PUSH2 0x249 PUSH2 0x3AF CALLDATASIZE PUSH1 0x4 PUSH2 0x1BE7 JUMP JUMPDEST PUSH2 0xBE4 JUMP JUMPDEST PUSH2 0x234 PUSH2 0x3C2 CALLDATASIZE PUSH1 0x4 PUSH2 0x1C2D JUMP JUMPDEST PUSH2 0xBF4 JUMP JUMPDEST PUSH2 0x249 PUSH2 0x3D5 CALLDATASIZE PUSH1 0x4 PUSH2 0x1B57 JUMP JUMPDEST PUSH2 0xCAE JUMP JUMPDEST PUSH2 0x234 PUSH2 0x3E8 CALLDATASIZE PUSH1 0x4 PUSH2 0x1A74 JUMP JUMPDEST PUSH2 0xE25 JUMP JUMPDEST PUSH1 0x0 SLOAD PUSH1 0x40 MLOAD PUSH1 0x1 PUSH1 0x1 PUSH1 0xA0 SHL SUB SWAP1 SWAP2 AND DUP2 MSTORE PUSH1 0x20 ADD PUSH2 0x256 JUMP JUMPDEST PUSH2 0x234 PUSH2 0x416 CALLDATASIZE PUSH1 0x4 PUSH2 0x1A74 JUMP JUMPDEST PUSH2 0xEC2 JUMP JUMPDEST PUSH2 0x234 PUSH2 0x429 CALLDATASIZE PUSH1 0x4 PUSH2 0x1AB5 JUMP JUMPDEST PUSH2 0xF5F JUMP JUMPDEST PUSH2 0x234 PUSH2 0x43C CALLDATASIZE PUSH1 0x4 PUSH2 0x1A74 JUMP JUMPDEST PUSH2 0xFBD JUMP JUMPDEST PUSH2 0x249 PUSH2 0x44F CALLDATASIZE PUSH1 0x4 PUSH2 0x1BE7 JUMP JUMPDEST PUSH2 0x105A JUMP JUMPDEST PUSH1 0x6 SLOAD PUSH2 0x2B7 JUMP JUMPDEST PUSH1 0x0 SLOAD PUSH2 0x37E SWAP1 PUSH1 0x1 PUSH1 0xA8 SHL SWAP1 DIV PUSH1 0xFF AND DUP2 JUMP JUMPDEST PUSH2 0x234 PUSH2 0x106A JUMP JUMPDEST PUSH1 0x4 SLOAD PUSH2 0x2B7 JUMP JUMPDEST PUSH2 0x234 PUSH2 0x48E CALLDATASIZE PUSH1 0x4 PUSH2 0x1A4B JUMP JUMPDEST PUSH2 0x10EA JUMP JUMPDEST PUSH2 0x234 PUSH2 0x4A1 CALLDATASIZE PUSH1 0x4 PUSH2 0x1C7F JUMP JUMPDEST PUSH2 0x1185 JUMP JUMPDEST PUSH1 0x0 SLOAD PUSH1 0x1 PUSH1 0x1 PUSH1 0xA0 SHL SUB AND CALLER EQ PUSH2 0x4D9 JUMPI PUSH1 0x40 MLOAD PUSH3 0x461BCD PUSH1 0xE5 SHL DUP2 MSTORE PUSH1 0x4 ADD PUSH2 0x4D0 SWAP1 PUSH2 0x1F16 JUMP JUMPDEST PUSH1 0x40 MLOAD DUP1 SWAP2 SUB SWAP1 REVERT JUMPDEST PUSH1 0x0 SLOAD PUSH1 0x1 PUSH1 0xA0 SHL SWAP1 DIV PUSH1 0xFF AND ISZERO PUSH2 0x503 JUMPI PUSH1 0x40 MLOAD PUSH3 0x461BCD PUSH1 0xE5 SHL DUP2 MSTORE PUSH1 0x4 ADD PUSH2 0x4D0 SWAP1 PUSH2 0x1EEC JUMP JUMPDEST PUSH1 0x0 JUMPDEST DUP2 DUP2 LT ISZERO PUSH2 0x54C JUMPI PUSH2 0x53A DUP4 DUP4 DUP4 DUP2 DUP2 LT PUSH2 0x523 JUMPI PUSH2 0x523 PUSH2 0x21EC JUMP JUMPDEST SWAP1 POP PUSH1 0x20 MUL DUP2 ADD SWAP1 PUSH2 0x535 SWAP2 SWAP1 PUSH2 0x204A JUMP JUMPDEST PUSH2 0x11EC JUMP JUMPDEST DUP1 PUSH2 0x544 DUP2 PUSH2 0x2191 JUMP JUMPDEST SWAP2 POP POP PUSH2 0x506 JUMP JUMPDEST POP POP POP JUMP JUMPDEST PUSH1 0x3 DUP2 DUP2 SLOAD DUP2 LT PUSH2 0x561 JUMPI PUSH1 0x0 DUP1 REVERT JUMPDEST SWAP1 PUSH1 0x0 MSTORE PUSH1 0x20 PUSH1 0x0 KECCAK256 ADD PUSH1 0x0 SWAP2 POP SWAP1 POP DUP1 SLOAD PUSH2 0x57C SWAP1 PUSH2 0x2156 JUMP JUMPDEST DUP1 PUSH1 0x1F ADD PUSH1 0x20 DUP1 SWAP2 DIV MUL PUSH1 0x20 ADD PUSH1 0x40 MLOAD SWAP1 DUP2 ADD PUSH1 0x40 MSTORE DUP1 SWAP3 SWAP2 SWAP1 DUP2 DUP2 MSTORE PUSH1 0x20 ADD DUP3 DUP1 SLOAD PUSH2 0x5A8 SWAP1 PUSH2 0x2156 JUMP JUMPDEST DUP1 ISZERO PUSH2 0x5F5 JUMPI DUP1 PUSH1 0x1F LT PUSH2 0x5CA JUMPI PUSH2 0x100 DUP1 DUP4 SLOAD DIV MUL DUP4 MSTORE SWAP2 PUSH1 0x20 ADD SWAP2 PUSH2 0x5F5 JUMP JUMPDEST DUP3 ADD SWAP2 SWAP1 PUSH1 0x0 MSTORE PUSH1 0x20 PUSH1 0x0 KECCAK256 SWAP1 JUMPDEST DUP2 SLOAD DUP2 MSTORE SWAP1 PUSH1 0x1 ADD SWAP1 PUSH1 0x20 ADD DUP1 DUP4 GT PUSH2 0x5D8 JUMPI DUP3 SWAP1 SUB PUSH1 0x1F AND DUP3 ADD SWAP2 JUMPDEST POP POP POP POP POP DUP2 JUMP JUMPDEST PUSH1 0x0 SLOAD PUSH1 0x1 PUSH1 0x1 PUSH1 0xA0 SHL SUB AND CALLER EQ PUSH2 0x627 JUMPI PUSH1 0x40 MLOAD PUSH3 0x461BCD PUSH1 0xE5 SHL DUP2 MSTORE PUSH1 0x4 ADD PUSH2 0x4D0 SWAP1 PUSH2 0x1F16 JUMP JUMPDEST PUSH1 0x0 SLOAD PUSH1 0x1 PUSH1 0xA0 SHL SWAP1 DIV PUSH1 0xFF AND ISZERO PUSH2 0x651 JUMPI PUSH1 0x40 MLOAD PUSH3 0x461BCD PUSH1 0xE5 SHL DUP2 MSTORE PUSH1 0x4 ADD PUSH2 0x4D0 SWAP1 PUSH2 0x1EEC JUMP JUMPDEST PUSH2 0x65B DUP3 DUP3 PUSH2 0x11EC JUMP JUMPDEST POP POP JUMP JUMPDEST PUSH1 0x0 SLOAD PUSH1 0x1 PUSH1 0x1 PUSH1 0xA0 SHL SUB AND CALLER EQ PUSH2 0x689 JUMPI PUSH1 0x40 MLOAD PUSH3 0x461BCD PUSH1 0xE5 SHL DUP2 MSTORE PUSH1 0x4 ADD PUSH2 0x4D0 SWAP1 PUSH2 0x1F16 JUMP JUMPDEST PUSH1 0x0 SLOAD PUSH1 0x1 PUSH1 0xA0 SHL SWAP1 DIV PUSH1 0xFF AND ISZERO PUSH2 0x6B3 JUMPI PUSH1 0x40 MLOAD PUSH3 0x461BCD PUSH1 0xE5 SHL DUP2 MSTORE PUSH1 0x4 ADD PUSH2 0x4D0 SWAP1 PUSH2 0x1EEC JUMP JUMPDEST PUSH2 0x65B DUP3 DUP3 PUSH2 0x1229 JUMP JUMPDEST PUSH1 0x0 SLOAD PUSH1 0x1 PUSH1 0x1 PUSH1 0xA0 SHL SUB AND CALLER EQ PUSH2 0x6E7 JUMPI PUSH1 0x40 MLOAD PUSH3 0x461BCD PUSH1 0xE5 SHL DUP2 MSTORE PUSH1 0x4 ADD PUSH2 0x4D0 SWAP1 PUSH2 0x1F16 JUMP JUMPDEST PUSH1 0x0 SLOAD PUSH1 0x1 PUSH1 0xA0 SHL SWAP1 DIV PUSH1 0xFF AND ISZERO PUSH2 0x711 JUMPI PUSH1 0x40 MLOAD PUSH3 0x461BCD PUSH1 0xE5 SHL DUP2 MSTORE PUSH1 0x4 ADD PUSH2 0x4D0 SWAP1 PUSH2 0x1EEC JUMP JUMPDEST PUSH1 0x0 DUP1 SLOAD PUSH1 0xFF PUSH1 0xA0 SHL NOT AND PUSH1 0x1 PUSH1 0xA0 SHL OR DUP2 SSTORE PUSH1 0x40 MLOAD PUSH32 0x1680EE6D421F70ED6030D2FC4FCB50217A5DD617858D56562B119ECA59172E57 SWAP2 SWAP1 LOG1 JUMP JUMPDEST PUSH1 0x60 PUSH1 0x0 PUSH1 0x40 MLOAD DUP1 PUSH1 0x40 ADD PUSH1 0x40 MSTORE DUP1 PUSH2 0x765 DUP6 PUSH2 0x1266 JUMP JUMPDEST DUP2 MSTORE PUSH1 0x20 ADD PUSH1 0x3 DUP6 PUSH1 0x0 ADD MLOAD PUSH6 0xFFFFFFFFFFFF AND DUP2 SLOAD DUP2 LT PUSH2 0x789 JUMPI PUSH2 0x789 PUSH2 0x21EC JUMP JUMPDEST SWAP1 PUSH1 0x0 MSTORE PUSH1 0x20 PUSH1 0x0 KECCAK256 ADD DUP1 SLOAD PUSH2 0x79E SWAP1 PUSH2 0x2156 JUMP JUMPDEST DUP1 PUSH1 0x1F ADD PUSH1 0x20 DUP1 SWAP2 DIV MUL PUSH1 0x20 ADD PUSH1 0x40 MLOAD SWAP1 DUP2 ADD PUSH1 0x40 MSTORE DUP1 SWAP3 SWAP2 SWAP1 DUP2 DUP2 MSTORE PUSH1 0x20 ADD DUP3 DUP1 SLOAD PUSH2 0x7CA SWAP1 PUSH2 0x2156 JUMP JUMPDEST DUP1 ISZERO PUSH2 0x817 JUMPI DUP1 PUSH1 0x1F LT PUSH2 0x7EC JUMPI PUSH2 0x100 DUP1 DUP4 SLOAD DIV MUL DUP4 MSTORE SWAP2 PUSH1 0x20 ADD SWAP2 PUSH2 0x817 JUMP JUMPDEST DUP3 ADD SWAP2 SWAP1 PUSH1 0x0 MSTORE PUSH1 0x20 PUSH1 0x0 KECCAK256 SWAP1 JUMPDEST DUP2 SLOAD DUP2 MSTORE SWAP1 PUSH1 0x1 ADD SWAP1 PUSH1 0x20 ADD DUP1 DUP4 GT PUSH2 0x7FA JUMPI DUP3 SWAP1 SUB PUSH1 0x1F AND DUP3 ADD SWAP2 JUMPDEST POP POP POP POP POP DUP2 MSTORE POP SWAP1 POP PUSH20 0x0 PUSH4 0x66B8C241 DUP3 PUSH1 0x2 PUSH1 0x40 MLOAD DUP4 PUSH4 0xFFFFFFFF AND PUSH1 0xE0 SHL DUP2 MSTORE PUSH1 0x4 ADD PUSH2 0x85B SWAP3 SWAP2 SWAP1 PUSH2 0x1F8C JUMP JUMPDEST PUSH1 0x0 PUSH1 0x40 MLOAD DUP1 DUP4 SUB DUP2 DUP7 DUP1 EXTCODESIZE ISZERO DUP1 ISZERO PUSH2 0x873 JUMPI PUSH1 0x0 DUP1 REVERT JUMPDEST POP GAS DELEGATECALL ISZERO DUP1 ISZERO PUSH2 0x887 JUMPI RETURNDATASIZE PUSH1 0x0 DUP1 RETURNDATACOPY RETURNDATASIZE PUSH1 0x0 REVERT JUMPDEST POP POP POP POP PUSH1 0x40 MLOAD RETURNDATASIZE PUSH1 0x0 DUP3 RETURNDATACOPY PUSH1 0x1F RETURNDATASIZE SWAP1 DUP2 ADD PUSH1 0x1F NOT AND DUP3 ADD PUSH1 0x40 MSTORE PUSH2 0x8AF SWAP2 SWAP1 DUP2 ADD SWAP1 PUSH2 0x1AEA JUMP JUMPDEST SWAP4 SWAP3 POP POP POP JUMP JUMPDEST PUSH1 0x0 SLOAD PUSH1 0x60 SWAP1 PUSH1 0x1 PUSH1 0xA8 SHL SWAP1 DIV PUSH1 0xFF AND ISZERO PUSH2 0x8DC JUMPI PUSH2 0x8D5 DUP4 DUP4 PUSH2 0xA98 JUMP JUMPDEST SWAP1 POP PUSH2 0x90A JUMP JUMPDEST PUSH1 0x1 PUSH2 0x8E7 DUP5 PUSH2 0x15DF JUMP JUMPDEST PUSH1 0x40 MLOAD PUSH1 0x20 ADD PUSH2 0x8F8 SWAP3 SWAP2 SWAP1 PUSH2 0x1D8B JUMP JUMPDEST PUSH1 0x40 MLOAD PUSH1 0x20 DUP2 DUP4 SUB SUB DUP2 MSTORE SWAP1 PUSH1 0x40 MSTORE SWAP1 POP JUMPDEST SWAP3 SWAP2 POP POP JUMP JUMPDEST PUSH1 0x4 DUP2 DUP2 SLOAD DUP2 LT PUSH2 0x561 JUMPI PUSH1 0x0 DUP1 REVERT JUMPDEST PUSH1 0x0 SLOAD PUSH1 0x1 PUSH1 0x1 PUSH1 0xA0 SHL SUB AND CALLER EQ PUSH2 0x94A JUMPI PUSH1 0x40 MLOAD PUSH3 0x461BCD PUSH1 0xE5 SHL DUP2 MSTORE PUSH1 0x4 ADD PUSH2 0x4D0 SWAP1 PUSH2 0x1F16 JUMP JUMPDEST PUSH2 0x956 PUSH1 0x1 DUP4 DUP4 PUSH2 0x1814 JUMP JUMPDEST POP PUSH32 0x6741B2FC379FAD678116FE3D4D4B9A1A184AB53BA36B86AD0FA66340B1AB41AD DUP3 DUP3 PUSH1 0x40 MLOAD PUSH2 0x988 SWAP3 SWAP2 SWAP1 PUSH2 0x1EBD JUMP JUMPDEST PUSH1 0x40 MLOAD DUP1 SWAP2 SUB SWAP1 LOG1 POP POP JUMP JUMPDEST PUSH1 0x2 PUSH1 0x20 MSTORE DUP2 PUSH1 0x0 MSTORE PUSH1 0x40 PUSH1 0x0 KECCAK256 DUP2 DUP2 SLOAD DUP2 LT PUSH2 0x9B0 JUMPI PUSH1 0x0 DUP1 REVERT JUMPDEST SWAP1 PUSH1 0x0 MSTORE PUSH1 0x20 PUSH1 0x0 KECCAK256 ADD PUSH1 0x0 SWAP2 POP SWAP2 POP POP DUP1 SLOAD PUSH2 0x57C SWAP1 PUSH2 0x2156 JUMP JUMPDEST PUSH1 0x6 DUP2 DUP2 SLOAD DUP2 LT PUSH2 0x561 JUMPI PUSH1 0x0 DUP1 REVERT JUMPDEST PUSH1 0x0 SLOAD PUSH1 0x1 PUSH1 0x1 PUSH1 0xA0 SHL SUB AND CALLER EQ PUSH2 0xA06 JUMPI PUSH1 0x40 MLOAD PUSH3 0x461BCD PUSH1 0xE5 SHL DUP2 MSTORE PUSH1 0x4 ADD PUSH2 0x4D0 SWAP1 PUSH2 0x1F16 JUMP JUMPDEST PUSH1 0x0 SLOAD PUSH1 0x1 PUSH1 0xA0 SHL SWAP1 DIV PUSH1 0xFF AND ISZERO PUSH2 0xA30 JUMPI PUSH1 0x40 MLOAD PUSH3 0x461BCD PUSH1 0xE5 SHL DUP2 MSTORE PUSH1 0x4 ADD PUSH2 0x4D0 SWAP1 PUSH2 0x1EEC JUMP JUMPDEST PUSH2 0x65B DUP3 DUP3 PUSH2 0x16E4 JUMP JUMPDEST PUSH1 0x0 SLOAD PUSH1 0x1 PUSH1 0x1 PUSH1 0xA0 SHL SUB AND CALLER EQ PUSH2 0xA64 JUMPI PUSH1 0x40 MLOAD PUSH3 0x461BCD PUSH1 0xE5 SHL DUP2 MSTORE PUSH1 0x4 ADD PUSH2 0x4D0 SWAP1 PUSH2 0x1F16 JUMP JUMPDEST PUSH1 0x0 SLOAD PUSH1 0x1 PUSH1 0xA0 SHL SWAP1 DIV PUSH1 0xFF AND ISZERO PUSH2 0xA8E JUMPI PUSH1 0x40 MLOAD PUSH3 0x461BCD PUSH1 0xE5 SHL DUP2 MSTORE PUSH1 0x4 ADD PUSH2 0x4D0 SWAP1 PUSH2 0x1EEC JUMP JUMPDEST PUSH2 0x65B DUP3 DUP3 PUSH2 0x1721 JUMP JUMPDEST PUSH1 0x60 PUSH1 0x0 PUSH2 0xAA5 DUP5 PUSH2 0x15DF JUMP JUMPDEST SWAP1 POP PUSH1 0x0 DUP2 PUSH1 0x40 MLOAD PUSH1 0x20 ADD PUSH2 0xABA SWAP2 SWAP1 PUSH2 0x1E29 JUMP JUMPDEST PUSH1 0x40 MLOAD PUSH1 0x20 DUP2 DUP4 SUB SUB DUP2 MSTORE SWAP1 PUSH1 0x40 MSTORE SWAP1 POP PUSH1 0x0 DUP3 PUSH1 0x40 MLOAD PUSH1 0x20 ADD PUSH2 0xADE SWAP2 SWAP1 PUSH2 0x1E56 JUMP JUMPDEST PUSH1 0x40 MLOAD PUSH1 0x20 DUP2 DUP4 SUB SUB DUP2 MSTORE SWAP1 PUSH1 0x40 MSTORE SWAP1 POP PUSH2 0xAFA DUP3 DUP3 DUP8 PUSH2 0xCAE JUMP JUMPDEST SWAP7 SWAP6 POP POP POP POP POP POP JUMP JUMPDEST PUSH1 0x1 DUP1 SLOAD PUSH2 0x57C SWAP1 PUSH2 0x2156 JUMP JUMPDEST PUSH1 0x0 SLOAD PUSH1 0x1 PUSH1 0x1 PUSH1 0xA0 SHL SUB AND CALLER EQ PUSH2 0xB3B JUMPI PUSH1 0x40 MLOAD PUSH3 0x461BCD PUSH1 0xE5 SHL DUP2 MSTORE PUSH1 0x4 ADD PUSH2 0x4D0 SWAP1 PUSH2 0x1F16 JUMP JUMPDEST PUSH2 0xB45 PUSH1 0x0 PUSH2 0x175E JUMP JUMPDEST JUMP JUMPDEST PUSH1 0x0 SLOAD PUSH1 0x1 PUSH1 0x1 PUSH1 0xA0 SHL SUB AND CALLER EQ PUSH2 0xB71 JUMPI PUSH1 0x40 MLOAD PUSH3 0x461BCD PUSH1 0xE5 SHL DUP2 MSTORE PUSH1 0x4 ADD PUSH2 0x4D0 SWAP1 PUSH2 0x1F16 JUMP JUMPDEST PUSH1 0x0 SLOAD PUSH1 0x1 PUSH1 0xA0 SHL SWAP1 DIV PUSH1 0xFF AND ISZERO PUSH2 0xB9B JUMPI PUSH1 0x40 MLOAD PUSH3 0x461BCD PUSH1 0xE5 SHL DUP2 MSTORE PUSH1 0x4 ADD PUSH2 0x4D0 SWAP1 PUSH2 0x1EEC JUMP JUMPDEST PUSH1 0x0 JUMPDEST DUP2 DUP2 LT ISZERO PUSH2 0x54C JUMPI PUSH2 0xBD2 DUP4 DUP4 DUP4 DUP2 DUP2 LT PUSH2 0xBBB JUMPI PUSH2 0xBBB PUSH2 0x21EC JUMP JUMPDEST SWAP1 POP PUSH1 0x20 MUL DUP2 ADD SWAP1 PUSH2 0xBCD SWAP2 SWAP1 PUSH2 0x204A JUMP JUMPDEST PUSH2 0x17AE JUMP JUMPDEST DUP1 PUSH2 0xBDC DUP2 PUSH2 0x2191 JUMP JUMPDEST SWAP2 POP POP PUSH2 0xB9E JUMP JUMPDEST PUSH1 0x5 DUP2 DUP2 SLOAD DUP2 LT PUSH2 0x561 JUMPI PUSH1 0x0 DUP1 REVERT JUMPDEST PUSH1 0x0 SLOAD PUSH1 0x1 PUSH1 0x1 PUSH1 0xA0 SHL SUB AND CALLER EQ PUSH2 0xC1E JUMPI PUSH1 0x40 MLOAD PUSH3 0x461BCD PUSH1 0xE5 SHL DUP2 MSTORE PUSH1 0x4 ADD PUSH2 0x4D0 SWAP1 PUSH2 0x1F16 JUMP JUMPDEST PUSH1 0xFF DUP4 AND PUSH1 0x0 SWAP1 DUP2 MSTORE PUSH1 0x2 PUSH1 0x20 MSTORE PUSH1 0x40 SWAP1 KECCAK256 SLOAD PUSH2 0x100 SWAP1 PUSH2 0xC40 SWAP1 DUP4 SWAP1 PUSH2 0x20E7 JUMP JUMPDEST GT ISZERO PUSH2 0xC5E JUMPI PUSH1 0x40 MLOAD PUSH3 0x461BCD PUSH1 0xE5 SHL DUP2 MSTORE PUSH1 0x4 ADD PUSH2 0x4D0 SWAP1 PUSH2 0x1F4B JUMP JUMPDEST PUSH1 0x0 JUMPDEST DUP2 DUP2 LT ISZERO PUSH2 0xCA8 JUMPI PUSH2 0xC96 DUP5 DUP5 DUP5 DUP5 DUP2 DUP2 LT PUSH2 0xC7F JUMPI PUSH2 0xC7F PUSH2 0x21EC JUMP JUMPDEST SWAP1 POP PUSH1 0x20 MUL DUP2 ADD SWAP1 PUSH2 0xC91 SWAP2 SWAP1 PUSH2 0x204A JUMP JUMPDEST PUSH2 0x17EB JUMP JUMPDEST DUP1 PUSH2 0xCA0 DUP2 PUSH2 0x2191 JUMP JUMPDEST SWAP2 POP POP PUSH2 0xC61 JUMP JUMPDEST POP POP POP POP JUMP JUMPDEST PUSH1 0x60 PUSH1 0x0 PUSH1 0x40 MLOAD DUP1 PUSH1 0x80 ADD PUSH1 0x40 MSTORE DUP1 DUP7 DUP2 MSTORE PUSH1 0x20 ADD DUP6 DUP2 MSTORE PUSH1 0x20 ADD PUSH2 0xCD2 DUP6 PUSH2 0x1266 JUMP JUMPDEST DUP2 MSTORE PUSH1 0x20 ADD PUSH1 0x3 DUP6 PUSH1 0x0 ADD MLOAD PUSH6 0xFFFFFFFFFFFF AND DUP2 SLOAD DUP2 LT PUSH2 0xCF6 JUMPI PUSH2 0xCF6 PUSH2 0x21EC JUMP JUMPDEST SWAP1 PUSH1 0x0 MSTORE PUSH1 0x20 PUSH1 0x0 KECCAK256 ADD DUP1 SLOAD PUSH2 0xD0B SWAP1 PUSH2 0x2156 JUMP JUMPDEST DUP1 PUSH1 0x1F ADD PUSH1 0x20 DUP1 SWAP2 DIV MUL PUSH1 0x20 ADD PUSH1 0x40 MLOAD SWAP1 DUP2 ADD PUSH1 0x40 MSTORE DUP1 SWAP3 SWAP2 SWAP1 DUP2 DUP2 MSTORE PUSH1 0x20 ADD DUP3 DUP1 SLOAD PUSH2 0xD37 SWAP1 PUSH2 0x2156 JUMP JUMPDEST DUP1 ISZERO PUSH2 0xD84 JUMPI DUP1 PUSH1 0x1F LT PUSH2 0xD59 JUMPI PUSH2 0x100 DUP1 DUP4 SLOAD DIV MUL DUP4 MSTORE SWAP2 PUSH1 0x20 ADD SWAP2 PUSH2 0xD84 JUMP JUMPDEST DUP3 ADD SWAP2 SWAP1 PUSH1 0x0 MSTORE PUSH1 0x20 PUSH1 0x0 KECCAK256 SWAP1 JUMPDEST DUP2 SLOAD DUP2 MSTORE SWAP1 PUSH1 0x1 ADD SWAP1 PUSH1 0x20 ADD DUP1 DUP4 GT PUSH2 0xD67 JUMPI DUP3 SWAP1 SUB PUSH1 0x1F AND DUP3 ADD SWAP2 JUMPDEST POP POP POP POP POP DUP2 MSTORE POP SWAP1 POP PUSH20 0x0 PUSH4 0xBF1DEAE2 DUP3 PUSH1 0x2 PUSH1 0x40 MLOAD DUP4 PUSH4 0xFFFFFFFF AND PUSH1 0xE0 SHL DUP2 MSTORE PUSH1 0x4 ADD PUSH2 0xDC8 SWAP3 SWAP2 SWAP1 PUSH2 0x1FD5 JUMP JUMPDEST PUSH1 0x0 PUSH1 0x40 MLOAD DUP1 DUP4 SUB DUP2 DUP7 DUP1 EXTCODESIZE ISZERO DUP1 ISZERO PUSH2 0xDE0 JUMPI PUSH1 0x0 DUP1 REVERT JUMPDEST POP GAS DELEGATECALL ISZERO DUP1 ISZERO PUSH2 0xDF4 JUMPI RETURNDATASIZE PUSH1 0x0 DUP1 RETURNDATACOPY RETURNDATASIZE PUSH1 0x0 REVERT JUMPDEST POP POP POP POP PUSH1 0x40 MLOAD RETURNDATASIZE PUSH1 0x0 DUP3 RETURNDATACOPY PUSH1 0x1F RETURNDATASIZE SWAP1 DUP2 ADD PUSH1 0x1F NOT AND DUP3 ADD PUSH1 0x40 MSTORE PUSH2 0xE1C SWAP2 SWAP1 DUP2 ADD SWAP1 PUSH2 0x1AEA JUMP JUMPDEST SWAP6 SWAP5 POP POP POP POP POP JUMP JUMPDEST PUSH1 0x0 SLOAD PUSH1 0x1 PUSH1 0x1 PUSH1 0xA0 SHL SUB AND CALLER EQ PUSH2 0xE4F JUMPI PUSH1 0x40 MLOAD PUSH3 0x461BCD PUSH1 0xE5 SHL DUP2 MSTORE PUSH1 0x4 ADD PUSH2 0x4D0 SWAP1 PUSH2 0x1F16 JUMP JUMPDEST PUSH1 0x0 SLOAD PUSH1 0x1 PUSH1 0xA0 SHL SWAP1 DIV PUSH1 0xFF AND ISZERO PUSH2 0xE79 JUMPI PUSH1 0x40 MLOAD PUSH3 0x461BCD PUSH1 0xE5 SHL DUP2 MSTORE PUSH1 0x4 ADD PUSH2 0x4D0 SWAP1 PUSH2 0x1EEC JUMP JUMPDEST PUSH1 0x0 JUMPDEST DUP2 DUP2 LT ISZERO PUSH2 0x54C JUMPI PUSH2 0xEB0 DUP4 DUP4 DUP4 DUP2 DUP2 LT PUSH2 0xE99 JUMPI PUSH2 0xE99 PUSH2 0x21EC JUMP JUMPDEST SWAP1 POP PUSH1 0x20 MUL DUP2 ADD SWAP1 PUSH2 0xEAB SWAP2 SWAP1 PUSH2 0x204A JUMP JUMPDEST PUSH2 0x1229 JUMP JUMPDEST DUP1 PUSH2 0xEBA DUP2 PUSH2 0x2191 JUMP JUMPDEST SWAP2 POP POP PUSH2 0xE7C JUMP JUMPDEST PUSH1 0x0 SLOAD PUSH1 0x1 PUSH1 0x1 PUSH1 0xA0 SHL SUB AND CALLER EQ PUSH2 0xEEC JUMPI PUSH1 0x40 MLOAD PUSH3 0x461BCD PUSH1 0xE5 SHL DUP2 MSTORE PUSH1 0x4 ADD PUSH2 0x4D0 SWAP1 PUSH2 0x1F16 JUMP JUMPDEST PUSH1 0x0 SLOAD PUSH1 0x1 PUSH1 0xA0 SHL SWAP1 DIV PUSH1 0xFF AND ISZERO PUSH2 0xF16 JUMPI PUSH1 0x40 MLOAD PUSH3 0x461BCD PUSH1 0xE5 SHL DUP2 MSTORE PUSH1 0x4 ADD PUSH2 0x4D0 SWAP1 PUSH2 0x1EEC JUMP JUMPDEST PUSH1 0x0 JUMPDEST DUP2 DUP2 LT ISZERO PUSH2 0x54C JUMPI PUSH2 0xF4D DUP4 DUP4 DUP4 DUP2 DUP2 LT PUSH2 0xF36 JUMPI PUSH2 0xF36 PUSH2 0x21EC JUMP JUMPDEST SWAP1 POP PUSH1 0x20 MUL DUP2 ADD SWAP1 PUSH2 0xF48 SWAP2 SWAP1 PUSH2 0x204A JUMP JUMPDEST PUSH2 0x16E4 JUMP JUMPDEST DUP1 PUSH2 0xF57 DUP2 PUSH2 0x2191 JUMP JUMPDEST SWAP2 POP POP PUSH2 0xF19 JUMP JUMPDEST PUSH1 0x0 SLOAD PUSH1 0x1 PUSH1 0x1 PUSH1 0xA0 SHL SUB AND CALLER EQ PUSH2 0xF89 JUMPI PUSH1 0x40 MLOAD PUSH3 0x461BCD PUSH1 0xE5 SHL DUP2 MSTORE PUSH1 0x4 ADD PUSH2 0x4D0 SWAP1 PUSH2 0x1F16 JUMP JUMPDEST PUSH1 0x0 SLOAD PUSH1 0x1 PUSH1 0xA0 SHL SWAP1 DIV PUSH1 0xFF AND ISZERO PUSH2 0xFB3 JUMPI PUSH1 0x40 MLOAD PUSH3 0x461BCD PUSH1 0xE5 SHL DUP2 MSTORE PUSH1 0x4 ADD PUSH2 0x4D0 SWAP1 PUSH2 0x1EEC JUMP JUMPDEST PUSH2 0x65B DUP3 DUP3 PUSH2 0x17AE JUMP JUMPDEST PUSH1 0x0 SLOAD PUSH1 0x1 PUSH1 0x1 PUSH1 0xA0 SHL SUB AND CALLER EQ PUSH2 0xFE7 JUMPI PUSH1 0x40 MLOAD PUSH3 0x461BCD PUSH1 0xE5 SHL DUP2 MSTORE PUSH1 0x4 ADD PUSH2 0x4D0 SWAP1 PUSH2 0x1F16 JUMP JUMPDEST PUSH1 0x0 SLOAD PUSH1 0x1 PUSH1 0xA0 SHL SWAP1 DIV PUSH1 0xFF AND ISZERO PUSH2 0x1011 JUMPI PUSH1 0x40 MLOAD PUSH3 0x461BCD PUSH1 0xE5 SHL DUP2 MSTORE PUSH1 0x4 ADD PUSH2 0x4D0 SWAP1 PUSH2 0x1EEC JUMP JUMPDEST PUSH1 0x0 JUMPDEST DUP2 DUP2 LT ISZERO PUSH2 0x54C JUMPI PUSH2 0x1048 DUP4 DUP4 DUP4 DUP2 DUP2 LT PUSH2 0x1031 JUMPI PUSH2 0x1031 PUSH2 0x21EC JUMP JUMPDEST SWAP1 POP PUSH1 0x20 MUL DUP2 ADD SWAP1 PUSH2 0x1043 SWAP2 SWAP1 PUSH2 0x204A JUMP JUMPDEST PUSH2 0x1721 JUMP JUMPDEST DUP1 PUSH2 0x1052 DUP2 PUSH2 0x2191 JUMP JUMPDEST SWAP2 POP POP PUSH2 0x1014 JUMP JUMPDEST PUSH1 0x7 DUP2 DUP2 SLOAD DUP2 LT PUSH2 0x561 JUMPI PUSH1 0x0 DUP1 REVERT JUMPDEST PUSH1 0x0 SLOAD PUSH1 0x1 PUSH1 0x1 PUSH1 0xA0 SHL SUB AND CALLER EQ PUSH2 0x1094 JUMPI PUSH1 0x40 MLOAD PUSH3 0x461BCD PUSH1 0xE5 SHL DUP2 MSTORE PUSH1 0x4 ADD PUSH2 0x4D0 SWAP1 PUSH2 0x1F16 JUMP JUMPDEST PUSH1 0x0 DUP1 SLOAD PUSH1 0xFF PUSH1 0xA8 SHL NOT DUP2 AND PUSH1 0x1 PUSH1 0xA8 SHL SWAP2 DUP3 SWAP1 DIV PUSH1 0xFF AND ISZERO SWAP2 DUP3 MUL OR SWAP1 SWAP2 SSTORE PUSH1 0x40 MLOAD DUP2 DUP2 MSTORE PUSH32 0x360C3D72EE193226275B842F85231C259C934E85459FED80FA68E502FFA9DBDE SWAP1 PUSH1 0x20 ADD PUSH1 0x40 MLOAD DUP1 SWAP2 SUB SWAP1 LOG1 POP JUMP JUMPDEST PUSH1 0x0 SLOAD PUSH1 0x1 PUSH1 0x1 PUSH1 0xA0 SHL SUB AND CALLER EQ PUSH2 0x1114 JUMPI PUSH1 0x40 MLOAD PUSH3 0x461BCD PUSH1 0xE5 SHL DUP2 MSTORE PUSH1 0x4 ADD PUSH2 0x4D0 SWAP1 PUSH2 0x1F16 JUMP JUMPDEST PUSH1 0x1 PUSH1 0x1 PUSH1 0xA0 SHL SUB DUP2 AND PUSH2 0x1179 JUMPI PUSH1 0x40 MLOAD PUSH3 0x461BCD PUSH1 0xE5 SHL DUP2 MSTORE PUSH1 0x20 PUSH1 0x4 DUP3 ADD MSTORE PUSH1 0x26 PUSH1 0x24 DUP3 ADD MSTORE PUSH32 0x4F776E61626C653A206E6577206F776E657220697320746865207A65726F2061 PUSH1 0x44 DUP3 ADD MSTORE PUSH6 0x646472657373 PUSH1 0xD0 SHL PUSH1 0x64 DUP3 ADD MSTORE PUSH1 0x84 ADD PUSH2 0x4D0 JUMP JUMPDEST PUSH2 0x1182 DUP2 PUSH2 0x175E JUMP JUMPDEST POP JUMP JUMPDEST PUSH1 0x0 SLOAD PUSH1 0x1 PUSH1 0x1 PUSH1 0xA0 SHL SUB AND CALLER EQ PUSH2 0x11AF JUMPI PUSH1 0x40 MLOAD PUSH3 0x461BCD PUSH1 0xE5 SHL DUP2 MSTORE PUSH1 0x4 ADD PUSH2 0x4D0 SWAP1 PUSH2 0x1F16 JUMP JUMPDEST PUSH1 0xFF DUP4 DUP2 AND PUSH1 0x0 SWAP1 DUP2 MSTORE PUSH1 0x2 PUSH1 0x20 MSTORE PUSH1 0x40 SWAP1 KECCAK256 SLOAD GT ISZERO PUSH2 0x11E1 JUMPI PUSH1 0x40 MLOAD PUSH3 0x461BCD PUSH1 0xE5 SHL DUP2 MSTORE PUSH1 0x4 ADD PUSH2 0x4D0 SWAP1 PUSH2 0x1F4B JUMP JUMPDEST PUSH2 0x54C DUP4 DUP4 DUP4 PUSH2 0x17EB JUMP JUMPDEST PUSH1 0x5 DUP1 SLOAD PUSH1 0x1 DUP2 ADD DUP3 SSTORE PUSH1 0x0 SWAP2 SWAP1 SWAP2 MSTORE PUSH2 0x54C SWAP1 PUSH32 0x36B6384B5ECA791C62761152D0C79BB0604C104A5FB6F4EB0703F3154BB3DB0 ADD DUP4 DUP4 PUSH2 0x1814 JUMP JUMPDEST PUSH1 0x4 DUP1 SLOAD PUSH1 0x1 DUP2 ADD DUP3 SSTORE PUSH1 0x0 SWAP2 SWAP1 SWAP2 MSTORE PUSH2 0x54C SWAP1 PUSH32 0x8A35ACFBC15FF81A39AE7D344FD709F28E8600B4AA8C65C6B64BFE7FE36BD19B ADD DUP4 DUP4 PUSH2 0x1814 JUMP JUMPDEST PUSH1 0x40 DUP1 MLOAD PUSH1 0x4 DUP1 DUP3 MSTORE PUSH1 0xA0 DUP3 ADD SWAP1 SWAP3 MSTORE PUSH1 0x60 SWAP2 PUSH1 0x0 SWAP2 SWAP1 DUP2 PUSH1 0x20 ADD JUMPDEST PUSH1 0x60 DUP2 MSTORE PUSH1 0x20 ADD SWAP1 PUSH1 0x1 SWAP1 SUB SWAP1 DUP2 PUSH2 0x1282 JUMPI SWAP1 POP POP SWAP1 POP PUSH1 0x4 DUP4 PUSH1 0x20 ADD MLOAD PUSH6 0xFFFFFFFFFFFF AND DUP2 SLOAD DUP2 LT PUSH2 0x12B8 JUMPI PUSH2 0x12B8 PUSH2 0x21EC JUMP JUMPDEST SWAP1 PUSH1 0x0 MSTORE PUSH1 0x20 PUSH1 0x0 KECCAK256 ADD DUP1 SLOAD PUSH2 0x12CD SWAP1 PUSH2 0x2156 JUMP JUMPDEST DUP1 PUSH1 0x1F ADD PUSH1 0x20 DUP1 SWAP2 DIV MUL PUSH1 0x20 ADD PUSH1 0x40 MLOAD SWAP1 DUP2 ADD PUSH1 0x40 MSTORE DUP1 SWAP3 SWAP2 SWAP1 DUP2 DUP2 MSTORE PUSH1 0x20 ADD DUP3 DUP1 SLOAD PUSH2 0x12F9 SWAP1 PUSH2 0x2156 JUMP JUMPDEST DUP1 ISZERO PUSH2 0x1346 JUMPI DUP1 PUSH1 0x1F LT PUSH2 0x131B JUMPI PUSH2 0x100 DUP1 DUP4 SLOAD DIV MUL DUP4 MSTORE SWAP2 PUSH1 0x20 ADD SWAP2 PUSH2 0x1346 JUMP JUMPDEST DUP3 ADD SWAP2 SWAP1 PUSH1 0x0 MSTORE PUSH1 0x20 PUSH1 0x0 KECCAK256 SWAP1 JUMPDEST DUP2 SLOAD DUP2 MSTORE SWAP1 PUSH1 0x1 ADD SWAP1 PUSH1 0x20 ADD DUP1 DUP4 GT PUSH2 0x1329 JUMPI DUP3 SWAP1 SUB PUSH1 0x1F AND DUP3 ADD SWAP2 JUMPDEST POP POP POP POP POP DUP2 PUSH1 0x0 DUP2 MLOAD DUP2 LT PUSH2 0x135E JUMPI PUSH2 0x135E PUSH2 0x21EC JUMP JUMPDEST PUSH1 0x20 MUL PUSH1 0x20 ADD ADD DUP2 SWAP1 MSTORE POP PUSH1 0x5 DUP4 PUSH1 0x40 ADD MLOAD PUSH6 0xFFFFFFFFFFFF AND DUP2 SLOAD DUP2 LT PUSH2 0x1388 JUMPI PUSH2 0x1388 PUSH2 0x21EC JUMP JUMPDEST SWAP1 PUSH1 0x0 MSTORE PUSH1 0x20 PUSH1 0x0 KECCAK256 ADD DUP1 SLOAD PUSH2 0x139D SWAP1 PUSH2 0x2156 JUMP JUMPDEST DUP1 PUSH1 0x1F ADD PUSH1 0x20 DUP1 SWAP2 DIV MUL PUSH1 0x20 ADD PUSH1 0x40 MLOAD SWAP1 DUP2 ADD PUSH1 0x40 MSTORE DUP1 SWAP3 SWAP2 SWAP1 DUP2 DUP2 MSTORE PUSH1 0x20 ADD DUP3 DUP1 SLOAD PUSH2 0x13C9 SWAP1 PUSH2 0x2156 JUMP JUMPDEST DUP1 ISZERO PUSH2 0x1416 JUMPI DUP1 PUSH1 0x1F LT PUSH2 0x13EB JUMPI PUSH2 0x100 DUP1 DUP4 SLOAD DIV MUL DUP4 MSTORE SWAP2 PUSH1 0x20 ADD SWAP2 PUSH2 0x1416 JUMP JUMPDEST DUP3 ADD SWAP2 SWAP1 PUSH1 0x0 MSTORE PUSH1 0x20 PUSH1 0x0 KECCAK256 SWAP1 JUMPDEST DUP2 SLOAD DUP2 MSTORE SWAP1 PUSH1 0x1 ADD SWAP1 PUSH1 0x20 ADD DUP1 DUP4 GT PUSH2 0x13F9 JUMPI DUP3 SWAP1 SUB PUSH1 0x1F AND DUP3 ADD SWAP2 JUMPDEST POP POP POP POP POP DUP2 PUSH1 0x1 DUP2 MLOAD DUP2 LT PUSH2 0x142E JUMPI PUSH2 0x142E PUSH2 0x21EC JUMP JUMPDEST PUSH1 0x20 MUL PUSH1 0x20 ADD ADD DUP2 SWAP1 MSTORE POP PUSH1 0x6 DUP4 PUSH1 0x60 ADD MLOAD PUSH6 0xFFFFFFFFFFFF AND DUP2 SLOAD DUP2 LT PUSH2 0x1458 JUMPI PUSH2 0x1458 PUSH2 0x21EC JUMP JUMPDEST SWAP1 PUSH1 0x0 MSTORE PUSH1 0x20 PUSH1 0x0 KECCAK256 ADD DUP1 SLOAD PUSH2 0x146D SWAP1 PUSH2 0x2156 JUMP JUMPDEST DUP1 PUSH1 0x1F ADD PUSH1 0x20 DUP1 SWAP2 DIV MUL PUSH1 0x20 ADD PUSH1 0x40 MLOAD SWAP1 DUP2 ADD PUSH1 0x40 MSTORE DUP1 SWAP3 SWAP2 SWAP1 DUP2 DUP2 MSTORE PUSH1 0x20 ADD DUP3 DUP1 SLOAD PUSH2 0x1499 SWAP1 PUSH2 0x2156 JUMP JUMPDEST DUP1 ISZERO PUSH2 0x14E6 JUMPI DUP1 PUSH1 0x1F LT PUSH2 0x14BB JUMPI PUSH2 0x100 DUP1 DUP4 SLOAD DIV MUL DUP4 MSTORE SWAP2 PUSH1 0x20 ADD SWAP2 PUSH2 0x14E6 JUMP JUMPDEST DUP3 ADD SWAP2 SWAP1 PUSH1 0x0 MSTORE PUSH1 0x20 PUSH1 0x0 KECCAK256 SWAP1 JUMPDEST DUP2 SLOAD DUP2 MSTORE SWAP1 PUSH1 0x1 ADD SWAP1 PUSH1 0x20 ADD DUP1 DUP4 GT PUSH2 0x14C9 JUMPI DUP3 SWAP1 SUB PUSH1 0x1F AND DUP3 ADD SWAP2 JUMPDEST POP POP POP POP POP DUP2 PUSH1 0x2 DUP2 MLOAD DUP2 LT PUSH2 0x14FE JUMPI PUSH2 0x14FE PUSH2 0x21EC JUMP JUMPDEST PUSH1 0x20 MUL PUSH1 0x20 ADD ADD DUP2 SWAP1 MSTORE POP PUSH1 0x7 DUP4 PUSH1 0x80 ADD MLOAD PUSH6 0xFFFFFFFFFFFF AND DUP2 SLOAD DUP2 LT PUSH2 0x1528 JUMPI PUSH2 0x1528 PUSH2 0x21EC JUMP JUMPDEST SWAP1 PUSH1 0x0 MSTORE PUSH1 0x20 PUSH1 0x0 KECCAK256 ADD DUP1 SLOAD PUSH2 0x153D SWAP1 PUSH2 0x2156 JUMP JUMPDEST DUP1 PUSH1 0x1F ADD PUSH1 0x20 DUP1 SWAP2 DIV MUL PUSH1 0x20 ADD PUSH1 0x40 MLOAD SWAP1 DUP2 ADD PUSH1 0x40 MSTORE DUP1 SWAP3 SWAP2 SWAP1 DUP2 DUP2 MSTORE PUSH1 0x20 ADD DUP3 DUP1 SLOAD PUSH2 0x1569 SWAP1 PUSH2 0x2156 JUMP JUMPDEST DUP1 ISZERO PUSH2 0x15B6 JUMPI DUP1 PUSH1 0x1F LT PUSH2 0x158B JUMPI PUSH2 0x100 DUP1 DUP4 SLOAD DIV MUL DUP4 MSTORE SWAP2 PUSH1 0x20 ADD SWAP2 PUSH2 0x15B6 JUMP JUMPDEST DUP3 ADD SWAP2 SWAP1 PUSH1 0x0 MSTORE PUSH1 0x20 PUSH1 0x0 KECCAK256 SWAP1 JUMPDEST DUP2 SLOAD DUP2 MSTORE SWAP1 PUSH1 0x1 ADD SWAP1 PUSH1 0x20 ADD DUP1 DUP4 GT PUSH2 0x1599 JUMPI DUP3 SWAP1 SUB PUSH1 0x1F AND DUP3 ADD SWAP2 JUMPDEST POP POP POP POP POP DUP2 PUSH1 0x3 DUP2 MLOAD DUP2 LT PUSH2 0x15CE JUMPI PUSH2 0x15CE PUSH2 0x21EC JUMP JUMPDEST PUSH1 0x20 SWAP1 DUP2 MUL SWAP2 SWAP1 SWAP2 ADD ADD MSTORE SWAP3 SWAP2 POP POP JUMP JUMPDEST PUSH1 0x60 DUP2 PUSH2 0x1603 JUMPI POP POP PUSH1 0x40 DUP1 MLOAD DUP1 DUP3 ADD SWAP1 SWAP2 MSTORE PUSH1 0x1 DUP2 MSTORE PUSH1 0x3 PUSH1 0xFC SHL PUSH1 0x20 DUP3 ADD MSTORE SWAP1 JUMP JUMPDEST DUP2 PUSH1 0x0 JUMPDEST DUP2 ISZERO PUSH2 0x162D JUMPI DUP1 PUSH2 0x1617 DUP2 PUSH2 0x2191 JUMP JUMPDEST SWAP2 POP PUSH2 0x1626 SWAP1 POP PUSH1 0xA DUP4 PUSH2 0x20FF JUMP JUMPDEST SWAP2 POP PUSH2 0x1607 JUMP JUMPDEST PUSH1 0x0 DUP2 PUSH1 0x1 PUSH1 0x1 PUSH1 0x40 SHL SUB DUP2 GT ISZERO PUSH2 0x1647 JUMPI PUSH2 0x1647 PUSH2 0x2202 JUMP JUMPDEST PUSH1 0x40 MLOAD SWAP1 DUP1 DUP3 MSTORE DUP1 PUSH1 0x1F ADD PUSH1 0x1F NOT AND PUSH1 0x20 ADD DUP3 ADD PUSH1 0x40 MSTORE DUP1 ISZERO PUSH2 0x1671 JUMPI PUSH1 0x20 DUP3 ADD DUP2 DUP1 CALLDATASIZE DUP4 CALLDATACOPY ADD SWAP1 POP JUMPDEST POP SWAP1 POP JUMPDEST DUP5 ISZERO PUSH2 0x16DC JUMPI PUSH2 0x1686 PUSH1 0x1 DUP4 PUSH2 0x2113 JUMP JUMPDEST SWAP2 POP PUSH2 0x1693 PUSH1 0xA DUP7 PUSH2 0x21AC JUMP JUMPDEST PUSH2 0x169E SWAP1 PUSH1 0x30 PUSH2 0x20E7 JUMP JUMPDEST PUSH1 0xF8 SHL DUP2 DUP4 DUP2 MLOAD DUP2 LT PUSH2 0x16B3 JUMPI PUSH2 0x16B3 PUSH2 0x21EC JUMP JUMPDEST PUSH1 0x20 ADD ADD SWAP1 PUSH1 0x1 PUSH1 0x1 PUSH1 0xF8 SHL SUB NOT AND SWAP1 DUP2 PUSH1 0x0 BYTE SWAP1 MSTORE8 POP PUSH2 0x16D5 PUSH1 0xA DUP7 PUSH2 0x20FF JUMP JUMPDEST SWAP5 POP PUSH2 0x1675 JUMP JUMPDEST SWAP5 SWAP4 POP POP POP POP JUMP JUMPDEST PUSH1 0x3 DUP1 SLOAD PUSH1 0x1 DUP2 ADD DUP3 SSTORE PUSH1 0x0 SWAP2 SWAP1 SWAP2 MSTORE PUSH2 0x54C SWAP1 PUSH32 0xC2575A0E9E593C00F959F8C92F12DB2869C3395A3B0502D05E2516446F71F85B ADD DUP4 DUP4 PUSH2 0x1814 JUMP JUMPDEST PUSH1 0x7 DUP1 SLOAD PUSH1 0x1 DUP2 ADD DUP3 SSTORE PUSH1 0x0 SWAP2 SWAP1 SWAP2 MSTORE PUSH2 0x54C SWAP1 PUSH32 0xA66CC928B5EDB82AF9BD49922954155AB7B0942694BEA4CE44661D9A8736C688 ADD DUP4 DUP4 PUSH2 0x1814 JUMP JUMPDEST PUSH1 0x0 DUP1 SLOAD PUSH1 0x1 PUSH1 0x1 PUSH1 0xA0 SHL SUB DUP4 DUP2 AND PUSH1 0x1 PUSH1 0x1 PUSH1 0xA0 SHL SUB NOT DUP4 AND DUP2 OR DUP5 SSTORE PUSH1 0x40 MLOAD SWAP2 SWAP1 SWAP3 AND SWAP3 DUP4 SWAP2 PUSH32 0x8BE0079C531659141344CD1FD0A4F28419497F9722A3DAAFE3B4186F6B6457E0 SWAP2 SWAP1 LOG3 POP POP JUMP JUMPDEST PUSH1 0x6 DUP1 SLOAD PUSH1 0x1 DUP2 ADD DUP3 SSTORE PUSH1 0x0 SWAP2 SWAP1 SWAP2 MSTORE PUSH2 0x54C SWAP1 PUSH32 0xF652222313E28459528D920B65115C16C04F3EFC82AAEDC97BE59F3F377C0D3F ADD DUP4 DUP4 PUSH2 0x1814 JUMP JUMPDEST PUSH1 0xFF DUP4 AND PUSH1 0x0 SWAP1 DUP2 MSTORE PUSH1 0x2 PUSH1 0x20 SWAP1 DUP2 MSTORE PUSH1 0x40 DUP3 KECCAK256 DUP1 SLOAD PUSH1 0x1 DUP2 ADD DUP3 SSTORE SWAP1 DUP4 MSTORE SWAP2 KECCAK256 PUSH2 0xCA8 SWAP2 ADD DUP4 DUP4 JUMPDEST DUP3 DUP1 SLOAD PUSH2 0x1820 SWAP1 PUSH2 0x2156 JUMP JUMPDEST SWAP1 PUSH1 0x0 MSTORE PUSH1 0x20 PUSH1 0x0 KECCAK256 SWAP1 PUSH1 0x1F ADD PUSH1 0x20 SWAP1 DIV DUP2 ADD SWAP3 DUP3 PUSH2 0x1842 JUMPI PUSH1 0x0 DUP6 SSTORE PUSH2 0x1888 JUMP JUMPDEST DUP3 PUSH1 0x1F LT PUSH2 0x185B JUMPI DUP3 DUP1 ADD PUSH1 0xFF NOT DUP3 CALLDATALOAD AND OR DUP6 SSTORE PUSH2 0x1888 JUMP JUMPDEST DUP3 DUP1 ADD PUSH1 0x1 ADD DUP6 SSTORE DUP3 ISZERO PUSH2 0x1888 JUMPI SWAP2 DUP3 ADD JUMPDEST DUP3 DUP2 GT ISZERO PUSH2 0x1888 JUMPI DUP3 CALLDATALOAD DUP3 SSTORE SWAP2 PUSH1 0x20 ADD SWAP2 SWAP1 PUSH1 0x1 ADD SWAP1 PUSH2 0x186D JUMP JUMPDEST POP PUSH2 0x1894 SWAP3 SWAP2 POP PUSH2 0x1898 JUMP JUMPDEST POP SWAP1 JUMP JUMPDEST JUMPDEST DUP1 DUP3 GT ISZERO PUSH2 0x1894 JUMPI PUSH1 0x0 DUP2 SSTORE PUSH1 0x1 ADD PUSH2 0x1899 JUMP JUMPDEST PUSH1 0x0 DUP1 DUP4 PUSH1 0x1F DUP5 ADD SLT PUSH2 0x18BF JUMPI PUSH1 0x0 DUP1 REVERT JUMPDEST POP DUP2 CALLDATALOAD PUSH1 0x1 PUSH1 0x1 PUSH1 0x40 SHL SUB DUP2 GT ISZERO PUSH2 0x18D6 JUMPI PUSH1 0x0 DUP1 REVERT JUMPDEST PUSH1 0x20 DUP4 ADD SWAP2 POP DUP4 PUSH1 0x20 DUP3 PUSH1 0x5 SHL DUP6 ADD ADD GT ISZERO PUSH2 0x18F1 JUMPI PUSH1 0x0 DUP1 REVERT JUMPDEST SWAP3 POP SWAP3 SWAP1 POP JUMP JUMPDEST PUSH1 0x0 DUP1 DUP4 PUSH1 0x1F DUP5 ADD SLT PUSH2 0x190A JUMPI PUSH1 0x0 DUP1 REVERT JUMPDEST POP DUP2 CALLDATALOAD PUSH1 0x1 PUSH1 0x1 PUSH1 0x40 SHL SUB DUP2 GT ISZERO PUSH2 0x1921 JUMPI PUSH1 0x0 DUP1 REVERT JUMPDEST PUSH1 0x20 DUP4 ADD SWAP2 POP DUP4 PUSH1 0x20 DUP3 DUP6 ADD ADD GT ISZERO PUSH2 0x18F1 JUMPI PUSH1 0x0 DUP1 REVERT JUMPDEST PUSH1 0x0 DUP3 PUSH1 0x1F DUP4 ADD SLT PUSH2 0x194A JUMPI PUSH1 0x0 DUP1 REVERT JUMPDEST DUP2 CALLDATALOAD PUSH2 0x195D PUSH2 0x1958 DUP3 PUSH2 0x20C0 JUMP JUMPDEST PUSH2 0x2090 JUMP JUMPDEST DUP2 DUP2 MSTORE DUP5 PUSH1 0x20 DUP4 DUP7 ADD ADD GT ISZERO PUSH2 0x1972 JUMPI PUSH1 0x0 DUP1 REVERT JUMPDEST DUP2 PUSH1 0x20 DUP6 ADD PUSH1 0x20 DUP4 ADD CALLDATACOPY PUSH1 0x0 SWAP2 DUP2 ADD PUSH1 0x20 ADD SWAP2 SWAP1 SWAP2 MSTORE SWAP4 SWAP3 POP POP POP JUMP JUMPDEST PUSH1 0x0 PUSH1 0xA0 DUP3 DUP5 SUB SLT ISZERO PUSH2 0x19A1 JUMPI PUSH1 0x0 DUP1 REVERT JUMPDEST PUSH1 0x40 MLOAD PUSH1 0xA0 DUP2 ADD DUP2 DUP2 LT PUSH1 0x1 PUSH1 0x1 PUSH1 0x40 SHL SUB DUP3 GT OR ISZERO PUSH2 0x19C3 JUMPI PUSH2 0x19C3 PUSH2 0x2202 JUMP JUMPDEST PUSH1 0x40 MSTORE SWAP1 POP DUP1 PUSH2 0x19D2 DUP4 PUSH2 0x1A1F JUMP JUMPDEST DUP2 MSTORE PUSH2 0x19E0 PUSH1 0x20 DUP5 ADD PUSH2 0x1A1F JUMP JUMPDEST PUSH1 0x20 DUP3 ADD MSTORE PUSH2 0x19F1 PUSH1 0x40 DUP5 ADD PUSH2 0x1A1F JUMP JUMPDEST PUSH1 0x40 DUP3 ADD MSTORE PUSH2 0x1A02 PUSH1 0x60 DUP5 ADD PUSH2 0x1A1F JUMP JUMPDEST PUSH1 0x60 DUP3 ADD MSTORE PUSH2 0x1A13 PUSH1 0x80 DUP5 ADD PUSH2 0x1A1F JUMP JUMPDEST PUSH1 0x80 DUP3 ADD MSTORE POP SWAP3 SWAP2 POP POP JUMP JUMPDEST DUP1 CALLDATALOAD PUSH6 0xFFFFFFFFFFFF DUP2 AND DUP2 EQ PUSH2 0x1A35 JUMPI PUSH1 0x0 DUP1 REVERT JUMPDEST SWAP2 SWAP1 POP JUMP JUMPDEST DUP1 CALLDATALOAD PUSH1 0xFF DUP2 AND DUP2 EQ PUSH2 0x1A35 JUMPI PUSH1 0x0 DUP1 REVERT JUMPDEST PUSH1 0x0 PUSH1 0x20 DUP3 DUP5 SUB SLT ISZERO PUSH2 0x1A5D JUMPI PUSH1 0x0 DUP1 REVERT JUMPDEST DUP2 CALLDATALOAD PUSH1 0x1 PUSH1 0x1 PUSH1 0xA0 SHL SUB DUP2 AND DUP2 EQ PUSH2 0x8AF JUMPI PUSH1 0x0 DUP1 REVERT JUMPDEST PUSH1 0x0 DUP1 PUSH1 0x20 DUP4 DUP6 SUB SLT ISZERO PUSH2 0x1A87 JUMPI PUSH1 0x0 DUP1 REVERT JUMPDEST DUP3 CALLDATALOAD PUSH1 0x1 PUSH1 0x1 PUSH1 0x40 SHL SUB DUP2 GT ISZERO PUSH2 0x1A9D JUMPI PUSH1 0x0 DUP1 REVERT JUMPDEST PUSH2 0x1AA9 DUP6 DUP3 DUP7 ADD PUSH2 0x18AD JUMP JUMPDEST SWAP1 SWAP7 SWAP1 SWAP6 POP SWAP4 POP POP POP POP JUMP JUMPDEST PUSH1 0x0 DUP1 PUSH1 0x20 DUP4 DUP6 SUB SLT ISZERO PUSH2 0x1AC8 JUMPI PUSH1 0x0 DUP1 REVERT JUMPDEST DUP3 CALLDATALOAD PUSH1 0x1 PUSH1 0x1 PUSH1 0x40 SHL SUB DUP2 GT ISZERO PUSH2 0x1ADE JUMPI PUSH1 0x0 DUP1 REVERT JUMPDEST PUSH2 0x1AA9 DUP6 DUP3 DUP7 ADD PUSH2 0x18F8 JUMP JUMPDEST PUSH1 0x0 PUSH1 0x20 DUP3 DUP5 SUB SLT ISZERO PUSH2 0x1AFC JUMPI PUSH1 0x0 DUP1 REVERT JUMPDEST DUP2 MLOAD PUSH1 0x1 PUSH1 0x1 PUSH1 0x40 SHL SUB DUP2 GT ISZERO PUSH2 0x1B12 JUMPI PUSH1 0x0 DUP1 REVERT JUMPDEST DUP3 ADD PUSH1 0x1F DUP2 ADD DUP5 SGT PUSH2 0x1B23 JUMPI PUSH1 0x0 DUP1 REVERT JUMPDEST DUP1 MLOAD PUSH2 0x1B31 PUSH2 0x1958 DUP3 PUSH2 0x20C0 JUMP JUMPDEST DUP2 DUP2 MSTORE DUP6 PUSH1 0x20 DUP4 DUP6 ADD ADD GT ISZERO PUSH2 0x1B46 JUMPI PUSH1 0x0 DUP1 REVERT JUMPDEST PUSH2 0xE1C DUP3 PUSH1 0x20 DUP4 ADD PUSH1 0x20 DUP7 ADD PUSH2 0x212A JUMP JUMPDEST PUSH1 0x0 DUP1 PUSH1 0x0 PUSH1 0xE0 DUP5 DUP7 SUB SLT ISZERO PUSH2 0x1B6C JUMPI PUSH1 0x0 DUP1 REVERT JUMPDEST DUP4 CALLDATALOAD PUSH1 0x1 PUSH1 0x1 PUSH1 0x40 SHL SUB DUP1 DUP3 GT ISZERO PUSH2 0x1B83 JUMPI PUSH1 0x0 DUP1 REVERT JUMPDEST PUSH2 0x1B8F DUP8 DUP4 DUP9 ADD PUSH2 0x1939 JUMP JUMPDEST SWAP5 POP PUSH1 0x20 DUP7 ADD CALLDATALOAD SWAP2 POP DUP1 DUP3 GT ISZERO PUSH2 0x1BA5 JUMPI PUSH1 0x0 DUP1 REVERT JUMPDEST POP PUSH2 0x1BB2 DUP7 DUP3 DUP8 ADD PUSH2 0x1939 JUMP JUMPDEST SWAP3 POP POP PUSH2 0x1BC2 DUP6 PUSH1 0x40 DUP7 ADD PUSH2 0x198F JUMP JUMPDEST SWAP1 POP SWAP3 POP SWAP3 POP SWAP3 JUMP JUMPDEST PUSH1 0x0 PUSH1 0xA0 DUP3 DUP5 SUB SLT ISZERO PUSH2 0x1BDD JUMPI PUSH1 0x0 DUP1 REVERT JUMPDEST PUSH2 0x8AF DUP4 DUP4 PUSH2 0x198F JUMP JUMPDEST PUSH1 0x0 PUSH1 0x20 DUP3 DUP5 SUB SLT ISZERO PUSH2 0x1BF9 JUMPI PUSH1 0x0 DUP1 REVERT JUMPDEST POP CALLDATALOAD SWAP2 SWAP1 POP JUMP JUMPDEST PUSH1 0x0 DUP1 PUSH1 0xC0 DUP4 DUP6 SUB SLT ISZERO PUSH2 0x1C13 JUMPI PUSH1 0x0 DUP1 REVERT JUMPDEST DUP3 CALLDATALOAD SWAP2 POP PUSH2 0x1C24 DUP5 PUSH1 0x20 DUP6 ADD PUSH2 0x198F JUMP JUMPDEST SWAP1 POP SWAP3 POP SWAP3 SWAP1 POP JUMP JUMPDEST PUSH1 0x0 DUP1 PUSH1 0x0 PUSH1 0x40 DUP5 DUP7 SUB SLT ISZERO PUSH2 0x1C42 JUMPI PUSH1 0x0 DUP1 REVERT JUMPDEST PUSH2 0x1C4B DUP5 PUSH2 0x1A3A JUMP JUMPDEST SWAP3 POP PUSH1 0x20 DUP5 ADD CALLDATALOAD PUSH1 0x1 PUSH1 0x1 PUSH1 0x40 SHL SUB DUP2 GT ISZERO PUSH2 0x1C66 JUMPI PUSH1 0x0 DUP1 REVERT JUMPDEST PUSH2 0x1C72 DUP7 DUP3 DUP8 ADD PUSH2 0x18AD JUMP JUMPDEST SWAP5 SWAP8 SWAP1 SWAP7 POP SWAP4 SWAP5 POP POP POP POP JUMP JUMPDEST PUSH1 0x0 DUP1 PUSH1 0x0 PUSH1 0x40 DUP5 DUP7 SUB SLT ISZERO PUSH2 0x1C94 JUMPI PUSH1 0x0 DUP1 REVERT JUMPDEST PUSH2 0x1C9D DUP5 PUSH2 0x1A3A JUMP JUMPDEST SWAP3 POP PUSH1 0x20 DUP5 ADD CALLDATALOAD PUSH1 0x1 PUSH1 0x1 PUSH1 0x40 SHL SUB DUP2 GT ISZERO PUSH2 0x1CB8 JUMPI PUSH1 0x0 DUP1 REVERT JUMPDEST PUSH2 0x1C72 DUP7 DUP3 DUP8 ADD PUSH2 0x18F8 JUMP JUMPDEST PUSH1 0x0 DUP1 PUSH1 0x40 DUP4 DUP6 SUB SLT ISZERO PUSH2 0x1CD7 JUMPI PUSH1 0x0 DUP1 REVERT JUMPDEST PUSH2 0x1CE0 DUP4 PUSH2 0x1A3A JUMP JUMPDEST SWAP5 PUSH1 0x20 SWAP4 SWAP1 SWAP4 ADD CALLDATALOAD SWAP4 POP POP POP JUMP JUMPDEST PUSH1 0x0 DUP2 MLOAD DUP1 DUP5 MSTORE PUSH1 0x20 DUP1 DUP6 ADD DUP1 DUP2 SWAP7 POP DUP4 PUSH1 0x5 SHL DUP2 ADD SWAP2 POP DUP3 DUP7 ADD PUSH1 0x0 JUMPDEST DUP6 DUP2 LT ISZERO PUSH2 0x1D36 JUMPI DUP3 DUP5 SUB DUP10 MSTORE PUSH2 0x1D24 DUP5 DUP4 MLOAD PUSH2 0x1D43 JUMP JUMPDEST SWAP9 DUP6 ADD SWAP9 SWAP4 POP SWAP1 DUP5 ADD SWAP1 PUSH1 0x1 ADD PUSH2 0x1D0C JUMP JUMPDEST POP SWAP2 SWAP8 SWAP7 POP POP POP POP POP POP POP JUMP JUMPDEST PUSH1 0x0 DUP2 MLOAD DUP1 DUP5 MSTORE PUSH2 0x1D5B DUP2 PUSH1 0x20 DUP7 ADD PUSH1 0x20 DUP7 ADD PUSH2 0x212A JUMP JUMPDEST PUSH1 0x1F ADD PUSH1 0x1F NOT AND SWAP3 SWAP1 SWAP3 ADD PUSH1 0x20 ADD SWAP3 SWAP2 POP POP JUMP JUMPDEST PUSH1 0x0 DUP2 MLOAD PUSH2 0x1D81 DUP2 DUP6 PUSH1 0x20 DUP7 ADD PUSH2 0x212A JUMP JUMPDEST SWAP3 SWAP1 SWAP3 ADD SWAP3 SWAP2 POP POP JUMP JUMPDEST PUSH1 0x0 DUP1 DUP5 SLOAD DUP2 PUSH1 0x1 DUP3 DUP2 SHR SWAP2 POP DUP1 DUP4 AND DUP1 PUSH2 0x1DA7 JUMPI PUSH1 0x7F DUP4 AND SWAP3 POP JUMPDEST PUSH1 0x20 DUP1 DUP5 LT DUP3 EQ ISZERO PUSH2 0x1DC7 JUMPI PUSH4 0x4E487B71 PUSH1 0xE0 SHL DUP7 MSTORE PUSH1 0x22 PUSH1 0x4 MSTORE PUSH1 0x24 DUP7 REVERT JUMPDEST DUP2 DUP1 ISZERO PUSH2 0x1DDB JUMPI PUSH1 0x1 DUP2 EQ PUSH2 0x1DEC JUMPI PUSH2 0x1E19 JUMP JUMPDEST PUSH1 0xFF NOT DUP7 AND DUP10 MSTORE DUP5 DUP10 ADD SWAP7 POP PUSH2 0x1E19 JUMP JUMPDEST PUSH1 0x0 DUP12 DUP2 MSTORE PUSH1 0x20 SWAP1 KECCAK256 PUSH1 0x0 JUMPDEST DUP7 DUP2 LT ISZERO PUSH2 0x1E11 JUMPI DUP2 SLOAD DUP12 DUP3 ADD MSTORE SWAP1 DUP6 ADD SWAP1 DUP4 ADD PUSH2 0x1DF8 JUMP JUMPDEST POP POP DUP5 DUP10 ADD SWAP7 POP JUMPDEST POP POP POP POP POP POP PUSH2 0xE1C DUP2 DUP6 PUSH2 0x1D6F JUMP JUMPDEST PUSH5 0x2BB7B9359 PUSH1 0xDD SHL DUP2 MSTORE PUSH1 0x0 DUP3 MLOAD PUSH2 0x1E49 DUP2 PUSH1 0x5 DUP6 ADD PUSH1 0x20 DUP8 ADD PUSH2 0x212A JUMP JUMPDEST SWAP2 SWAP1 SWAP2 ADD PUSH1 0x5 ADD SWAP3 SWAP2 POP POP JUMP JUMPDEST PUSH5 0x2BB7B9359 PUSH1 0xDD SHL DUP2 MSTORE PUSH1 0x0 DUP3 MLOAD PUSH2 0x1E76 DUP2 PUSH1 0x5 DUP6 ADD PUSH1 0x20 DUP8 ADD PUSH2 0x212A JUMP JUMPDEST PUSH32 0x2069732061206D656D626572206F6620746865204F78576F726B732044414F00 PUSH1 0x5 SWAP4 SWAP1 SWAP2 ADD SWAP3 DUP4 ADD MSTORE POP PUSH1 0x24 ADD SWAP2 SWAP1 POP JUMP JUMPDEST PUSH1 0x20 DUP2 MSTORE PUSH1 0x0 PUSH2 0x8AF PUSH1 0x20 DUP4 ADD DUP5 PUSH2 0x1D43 JUMP JUMPDEST PUSH1 0x20 DUP2 MSTORE DUP2 PUSH1 0x20 DUP3 ADD MSTORE DUP2 DUP4 PUSH1 0x40 DUP4 ADD CALLDATACOPY PUSH1 0x0 DUP2 DUP4 ADD PUSH1 0x40 SWAP1 DUP2 ADD SWAP2 SWAP1 SWAP2 MSTORE PUSH1 0x1F SWAP1 SWAP3 ADD PUSH1 0x1F NOT AND ADD ADD SWAP2 SWAP1 POP JUMP JUMPDEST PUSH1 0x20 DUP1 DUP3 MSTORE PUSH1 0x10 SWAP1 DUP3 ADD MSTORE PUSH16 0x14185C9D1CC8185C99481B1BD8DAD959 PUSH1 0x82 SHL PUSH1 0x40 DUP3 ADD MSTORE PUSH1 0x60 ADD SWAP1 JUMP JUMPDEST PUSH1 0x20 DUP1 DUP3 MSTORE DUP2 DUP2 ADD MSTORE PUSH32 0x4F776E61626C653A2063616C6C6572206973206E6F7420746865206F776E6572 PUSH1 0x40 DUP3 ADD MSTORE PUSH1 0x60 ADD SWAP1 JUMP JUMPDEST PUSH1 0x20 DUP1 DUP3 MSTORE PUSH1 0x21 SWAP1 DUP3 ADD MSTORE PUSH32 0x50616C65747465732063616E206F6E6C7920686F6C642032353620636F6C6F72 PUSH1 0x40 DUP3 ADD MSTORE PUSH1 0x73 PUSH1 0xF8 SHL PUSH1 0x60 DUP3 ADD MSTORE PUSH1 0x80 ADD SWAP1 JUMP JUMPDEST PUSH1 0x40 DUP2 MSTORE PUSH1 0x0 DUP4 MLOAD PUSH1 0x40 DUP1 DUP5 ADD MSTORE PUSH2 0x1FA7 PUSH1 0x80 DUP5 ADD DUP3 PUSH2 0x1CEE JUMP JUMPDEST SWAP1 POP PUSH1 0x20 DUP6 ADD MLOAD PUSH1 0x3F NOT DUP5 DUP4 SUB ADD PUSH1 0x60 DUP6 ADD MSTORE PUSH2 0x1FC4 DUP3 DUP3 PUSH2 0x1D43 JUMP JUMPDEST SWAP3 POP POP POP DUP3 PUSH1 0x20 DUP4 ADD MSTORE SWAP4 SWAP3 POP POP POP JUMP JUMPDEST PUSH1 0x40 DUP2 MSTORE PUSH1 0x0 DUP4 MLOAD PUSH1 0x80 PUSH1 0x40 DUP5 ADD MSTORE PUSH2 0x1FF1 PUSH1 0xC0 DUP5 ADD DUP3 PUSH2 0x1D43 JUMP JUMPDEST SWAP1 POP PUSH1 0x20 DUP6 ADD MLOAD PUSH1 0x3F NOT DUP1 DUP6 DUP5 SUB ADD PUSH1 0x60 DUP7 ADD MSTORE PUSH2 0x200F DUP4 DUP4 PUSH2 0x1D43 JUMP JUMPDEST SWAP3 POP PUSH1 0x40 DUP8 ADD MLOAD SWAP2 POP DUP1 DUP6 DUP5 SUB ADD PUSH1 0x80 DUP7 ADD MSTORE PUSH2 0x202C DUP4 DUP4 PUSH2 0x1CEE JUMP JUMPDEST SWAP3 POP PUSH1 0x60 DUP8 ADD MLOAD SWAP2 POP DUP1 DUP6 DUP5 SUB ADD PUSH1 0xA0 DUP7 ADD MSTORE POP PUSH2 0x1FC4 DUP3 DUP3 PUSH2 0x1D43 JUMP JUMPDEST PUSH1 0x0 DUP1 DUP4 CALLDATALOAD PUSH1 0x1E NOT DUP5 CALLDATASIZE SUB ADD DUP2 SLT PUSH2 0x2061 JUMPI PUSH1 0x0 DUP1 REVERT JUMPDEST DUP4 ADD DUP1 CALLDATALOAD SWAP2 POP PUSH1 0x1 PUSH1 0x1 PUSH1 0x40 SHL SUB DUP3 GT ISZERO PUSH2 0x207B JUMPI PUSH1 0x0 DUP1 REVERT JUMPDEST PUSH1 0x20 ADD SWAP2 POP CALLDATASIZE DUP2 SWAP1 SUB DUP3 SGT ISZERO PUSH2 0x18F1 JUMPI PUSH1 0x0 DUP1 REVERT JUMPDEST PUSH1 0x40 MLOAD PUSH1 0x1F DUP3 ADD PUSH1 0x1F NOT AND DUP2 ADD PUSH1 0x1 PUSH1 0x1 PUSH1 0x40 SHL SUB DUP2 GT DUP3 DUP3 LT OR ISZERO PUSH2 0x20B8 JUMPI PUSH2 0x20B8 PUSH2 0x2202 JUMP JUMPDEST PUSH1 0x40 MSTORE SWAP2 SWAP1 POP JUMP JUMPDEST PUSH1 0x0 PUSH1 0x1 PUSH1 0x1 PUSH1 0x40 SHL SUB DUP3 GT ISZERO PUSH2 0x20D9 JUMPI PUSH2 0x20D9 PUSH2 0x2202 JUMP JUMPDEST POP PUSH1 0x1F ADD PUSH1 0x1F NOT AND PUSH1 0x20 ADD SWAP1 JUMP JUMPDEST PUSH1 0x0 DUP3 NOT DUP3 GT ISZERO PUSH2 0x20FA JUMPI PUSH2 0x20FA PUSH2 0x21C0 JUMP JUMPDEST POP ADD SWAP1 JUMP JUMPDEST PUSH1 0x0 DUP3 PUSH2 0x210E JUMPI PUSH2 0x210E PUSH2 0x21D6 JUMP JUMPDEST POP DIV SWAP1 JUMP JUMPDEST PUSH1 0x0 DUP3 DUP3 LT ISZERO PUSH2 0x2125 JUMPI PUSH2 0x2125 PUSH2 0x21C0 JUMP JUMPDEST POP SUB SWAP1 JUMP JUMPDEST PUSH1 0x0 JUMPDEST DUP4 DUP2 LT ISZERO PUSH2 0x2145 JUMPI DUP2 DUP2 ADD MLOAD DUP4 DUP3 ADD MSTORE PUSH1 0x20 ADD PUSH2 0x212D JUMP JUMPDEST DUP4 DUP2 GT ISZERO PUSH2 0xCA8 JUMPI POP POP PUSH1 0x0 SWAP2 ADD MSTORE JUMP JUMPDEST PUSH1 0x1 DUP2 DUP2 SHR SWAP1 DUP3 AND DUP1 PUSH2 0x216A JUMPI PUSH1 0x7F DUP3 AND SWAP2 POP JUMPDEST PUSH1 0x20 DUP3 LT DUP2 EQ ISZERO PUSH2 0x218B JUMPI PUSH4 0x4E487B71 PUSH1 0xE0 SHL PUSH1 0x0 MSTORE PUSH1 0x22 PUSH1 0x4 MSTORE PUSH1 0x24 PUSH1 0x0 REVERT JUMPDEST POP SWAP2 SWAP1 POP JUMP JUMPDEST PUSH1 0x0 PUSH1 0x0 NOT DUP3 EQ ISZERO PUSH2 0x21A5 JUMPI PUSH2 0x21A5 PUSH2 0x21C0 JUMP JUMPDEST POP PUSH1 0x1 ADD SWAP1 JUMP JUMPDEST PUSH1 0x0 DUP3 PUSH2 0x21BB JUMPI PUSH2 0x21BB PUSH2 0x21D6 JUMP JUMPDEST POP MOD SWAP1 JUMP JUMPDEST PUSH4 0x4E487B71 PUSH1 0xE0 SHL PUSH1 0x0 MSTORE PUSH1 0x11 PUSH1 0x4 MSTORE PUSH1 0x24 PUSH1 0x0 REVERT JUMPDEST PUSH4 0x4E487B71 PUSH1 0xE0 SHL PUSH1 0x0 MSTORE PUSH1 0x12 PUSH1 0x4 MSTORE PUSH1 0x24 PUSH1 0x0 REVERT JUMPDEST PUSH4 0x4E487B71 PUSH1 0xE0 SHL PUSH1 0x0 MSTORE PUSH1 0x32 PUSH1 0x4 MSTORE PUSH1 0x24 PUSH1 0x0 REVERT JUMPDEST PUSH4 0x4E487B71 PUSH1 0xE0 SHL PUSH1 0x0 MSTORE PUSH1 0x41 PUSH1 0x4 MSTORE PUSH1 0x24 PUSH1 0x0 REVERT INVALID LOG2 PUSH5 0x6970667358 0x22 SLT KECCAK256 JUMPI RETURNDATASIZE 0xBF SUB 0x2F 0xE5 0xD8 CODECOPY 0x27 PUSH9 0xCEB0FD30CDD81194F6 0xD2 SWAP1 PUSH24 0xAAD2B34A5300200A434764736F6C63430008070033000000 "
		},
		"gasEstimates": {
			"creation": {
				"codeDepositCost": "1756400",
				"executionCost": "51925",
				"totalCost": "1808325"
			},
			"external": {
				"accessories(uint256)": "infinite",
				"accessoryCount()": "2360",
				"addAccessory(bytes)": "infinite",
				"addBackground(string)": "infinite",
				"addBody(bytes)": "infinite",
				"addColorToPalette(uint8,string)": "infinite",
				"addGlasses(bytes)": "infinite",
				"addHead(bytes)": "infinite",
				"addManyAccessories(bytes[])": "infinite",
				"addManyBackgrounds(string[])": "infinite",
				"addManyBodies(bytes[])": "infinite",
				"addManyColorsToPalette(uint8,string[])": "infinite",
				"addManyGlasses(bytes[])": "infinite",
				"addManyHeads(bytes[])": "infinite",
				"arePartsLocked()": "2395",
				"backgroundCount()": "2338",
				"backgrounds(uint256)": "infinite",
				"baseURI()": "infinite",
				"bodies(uint256)": "infinite",
				"bodyCount()": "2380",
				"dataURI(uint256,(uint48,uint48,uint48,uint48,uint48))": "infinite",
				"generateSVGImage((uint48,uint48,uint48,uint48,uint48))": "infinite",
				"genericDataURI(string,string,(uint48,uint48,uint48,uint48,uint48))": "infinite",
				"glasses(uint256)": "infinite",
				"glassesCount()": "2393",
				"headCount()": "2403",
				"heads(uint256)": "infinite",
				"isDataURIEnabled()": "2371",
				"lockParts()": "29474",
				"owner()": "2412",
				"palettes(uint8,uint256)": "infinite",
				"renounceOwnership()": "28160",
				"setBaseURI(string)": "infinite",
				"toggleDataURIEnabled()": "27685",
				"tokenURI(uint256,(uint48,uint48,uint48,uint48,uint48))": "infinite",
				"transferOwnership(address)": "28384"
			},
			"internal": {
				"_addAccessory(bytes calldata)": "infinite",
				"_addBackground(string calldata)": "infinite",
				"_addBody(bytes calldata)": "infinite",
				"_addColorToPalette(uint8,string calldata)": "infinite",
				"_addGlasses(bytes calldata)": "infinite",
				"_addHead(bytes calldata)": "infinite",
				"_getPartsForSeed(struct IOxWorksSeeder.Seed memory)": "infinite"
			}
		},
		"methodIdentifiers": {
			"accessories(uint256)": "7ca94210",
			"accessoryCount()": "4daebac2",
			"addAccessory(bytes)": "17b552ab",
			"addBackground(string)": "5e70664c",
			"addBody(bytes)": "2715c90e",
			"addColorToPalette(uint8,string)": "f9da8863",
			"addGlasses(bytes)": "615bda10",
			"addHead(bytes)": "9a796205",
			"addManyAccessories(bytes[])": "0475d863",
			"addManyBackgrounds(string[])": "91b7916a",
			"addManyBodies(bytes[])": "8a85a1e8",
			"addManyColorsToPalette(uint8,string[])": "839644da",
			"addManyGlasses(bytes[])": "a51e4124",
			"addManyHeads(bytes[])": "7a34aad3",
			"arePartsLocked()": "773b9771",
			"backgroundCount()": "4531c0a8",
			"backgrounds(uint256)": "04bde4dd",
			"baseURI()": "6c0360eb",
			"bodies(uint256)": "44cee73c",
			"bodyCount()": "eba81806",
			"dataURI(uint256,(uint48,uint48,uint48,uint48,uint48))": "638ac270",
			"generateSVGImage((uint48,uint48,uint48,uint48,uint48))": "2ea04300",
			"genericDataURI(string,string,(uint48,uint48,uint48,uint48,uint48))": "87db11bd",
			"glasses(uint256)": "b982d1b9",
			"glassesCount()": "4479cef2",
			"headCount()": "cc2aa091",
			"heads(uint256)": "5a503f13",
			"isDataURIEnabled()": "ce2f4f53",
			"lockParts()": "2a1d0769",
			"owner()": "8da5cb5b",
			"palettes(uint8,uint256)": "598fa9da",
			"renounceOwnership()": "715018a6",
			"setBaseURI(string)": "55f804b3",
			"toggleDataURIEnabled()": "dfe8478b",
			"tokenURI(uint256,(uint48,uint48,uint48,uint48,uint48))": "3cfdafd3",
			"transferOwnership(address)": "f2fde38b"
		}
	},
	"abi": [
		{
			"anonymous": false,
			"inputs": [
				{
					"indexed": false,
					"internalType": "string",
					"name": "baseURI",
					"type": "string"
				}
			],
			"name": "BaseURIUpdated",
			"type": "event"
		},
		{
			"anonymous": false,
			"inputs": [
				{
					"indexed": false,
					"internalType": "bool",
					"name": "enabled",
					"type": "bool"
				}
			],
			"name": "DataURIToggled",
			"type": "event"
		},
		{
			"anonymous": false,
			"inputs": [
				{
					"indexed": true,
					"internalType": "address",
					"name": "previousOwner",
					"type": "address"
				},
				{
					"indexed": true,
					"internalType": "address",
					"name": "newOwner",
					"type": "address"
				}
			],
			"name": "OwnershipTransferred",
			"type": "event"
		},
		{
			"anonymous": false,
			"inputs": [],
			"name": "PartsLocked",
			"type": "event"
		},
		{
			"inputs": [
				{
					"internalType": "uint256",
					"name": "",
					"type": "uint256"
				}
			],
			"name": "accessories",
			"outputs": [
				{
					"internalType": "bytes",
					"name": "",
					"type": "bytes"
				}
			],
			"stateMutability": "view",
			"type": "function"
		},
		{
			"inputs": [],
			"name": "accessoryCount",
			"outputs": [
				{
					"internalType": "uint256",
					"name": "",
					"type": "uint256"
				}
			],
			"stateMutability": "view",
			"type": "function"
		},
		{
			"inputs": [
				{
					"internalType": "bytes",
					"name": "_accessory",
					"type": "bytes"
				}
			],
			"name": "addAccessory",
			"outputs": [],
			"stateMutability": "nonpayable",
			"type": "function"
		},
		{
			"inputs": [
				{
					"internalType": "string",
					"name": "_background",
					"type": "string"
				}
			],
			"name": "addBackground",
			"outputs": [],
			"stateMutability": "nonpayable",
			"type": "function"
		},
		{
			"inputs": [
				{
					"internalType": "bytes",
					"name": "_body",
					"type": "bytes"
				}
			],
			"name": "addBody",
			"outputs": [],
			"stateMutability": "nonpayable",
			"type": "function"
		},
		{
			"inputs": [
				{
					"internalType": "uint8",
					"name": "_paletteIndex",
					"type": "uint8"
				},
				{
					"internalType": "string",
					"name": "_color",
					"type": "string"
				}
			],
			"name": "addColorToPalette",
			"outputs": [],
			"stateMutability": "nonpayable",
			"type": "function"
		},
		{
			"inputs": [
				{
					"internalType": "bytes",
					"name": "_glasses",
					"type": "bytes"
				}
			],
			"name": "addGlasses",
			"outputs": [],
			"stateMutability": "nonpayable",
			"type": "function"
		},
		{
			"inputs": [
				{
					"internalType": "bytes",
					"name": "_head",
					"type": "bytes"
				}
			],
			"name": "addHead",
			"outputs": [],
			"stateMutability": "nonpayable",
			"type": "function"
		},
		{
			"inputs": [
				{
					"internalType": "bytes[]",
					"name": "_accessories",
					"type": "bytes[]"
				}
			],
			"name": "addManyAccessories",
			"outputs": [],
			"stateMutability": "nonpayable",
			"type": "function"
		},
		{
			"inputs": [
				{
					"internalType": "string[]",
					"name": "_backgrounds",
					"type": "string[]"
				}
			],
			"name": "addManyBackgrounds",
			"outputs": [],
			"stateMutability": "nonpayable",
			"type": "function"
		},
		{
			"inputs": [
				{
					"internalType": "bytes[]",
					"name": "_bodies",
					"type": "bytes[]"
				}
			],
			"name": "addManyBodies",
			"outputs": [],
			"stateMutability": "nonpayable",
			"type": "function"
		},
		{
			"inputs": [
				{
					"internalType": "uint8",
					"name": "paletteIndex",
					"type": "uint8"
				},
				{
					"internalType": "string[]",
					"name": "newColors",
					"type": "string[]"
				}
			],
			"name": "addManyColorsToPalette",
			"outputs": [],
			"stateMutability": "nonpayable",
			"type": "function"
		},
		{
			"inputs": [
				{
					"internalType": "bytes[]",
					"name": "_glasses",
					"type": "bytes[]"
				}
			],
			"name": "addManyGlasses",
			"outputs": [],
			"stateMutability": "nonpayable",
			"type": "function"
		},
		{
			"inputs": [
				{
					"internalType": "bytes[]",
					"name": "_heads",
					"type": "bytes[]"
				}
			],
			"name": "addManyHeads",
			"outputs": [],
			"stateMutability": "nonpayable",
			"type": "function"
		},
		{
			"inputs": [],
			"name": "arePartsLocked",
			"outputs": [
				{
					"internalType": "bool",
					"name": "",
					"type": "bool"
				}
			],
			"stateMutability": "view",
			"type": "function"
		},
		{
			"inputs": [],
			"name": "backgroundCount",
			"outputs": [
				{
					"internalType": "uint256",
					"name": "",
					"type": "uint256"
				}
			],
			"stateMutability": "view",
			"type": "function"
		},
		{
			"inputs": [
				{
					"internalType": "uint256",
					"name": "",
					"type": "uint256"
				}
			],
			"name": "backgrounds",
			"outputs": [
				{
					"internalType": "string",
					"name": "",
					"type": "string"
				}
			],
			"stateMutability": "view",
			"type": "function"
		},
		{
			"inputs": [],
			"name": "baseURI",
			"outputs": [
				{
					"internalType": "string",
					"name": "",
					"type": "string"
				}
			],
			"stateMutability": "view",
			"type": "function"
		},
		{
			"inputs": [
				{
					"internalType": "uint256",
					"name": "",
					"type": "uint256"
				}
			],
			"name": "bodies",
			"outputs": [
				{
					"internalType": "bytes",
					"name": "",
					"type": "bytes"
				}
			],
			"stateMutability": "view",
			"type": "function"
		},
		{
			"inputs": [],
			"name": "bodyCount",
			"outputs": [
				{
					"internalType": "uint256",
					"name": "",
					"type": "uint256"
				}
			],
			"stateMutability": "view",
			"type": "function"
		},
		{
			"inputs": [
				{
					"internalType": "uint256",
					"name": "tokenId",
					"type": "uint256"
				},
				{
					"components": [
						{
							"internalType": "uint48",
							"name": "background",
							"type": "uint48"
						},
						{
							"internalType": "uint48",
							"name": "body",
							"type": "uint48"
						},
						{
							"internalType": "uint48",
							"name": "accessory",
							"type": "uint48"
						},
						{
							"internalType": "uint48",
							"name": "head",
							"type": "uint48"
						},
						{
							"internalType": "uint48",
							"name": "glasses",
							"type": "uint48"
						}
					],
					"internalType": "struct IOxWorksSeeder.Seed",
					"name": "seed",
					"type": "tuple"
				}
			],
			"name": "dataURI",
			"outputs": [
				{
					"internalType": "string",
					"name": "",
					"type": "string"
				}
			],
			"stateMutability": "view",
			"type": "function"
		},
		{
			"inputs": [
				{
					"components": [
						{
							"internalType": "uint48",
							"name": "background",
							"type": "uint48"
						},
						{
							"internalType": "uint48",
							"name": "body",
							"type": "uint48"
						},
						{
							"internalType": "uint48",
							"name": "accessory",
							"type": "uint48"
						},
						{
							"internalType": "uint48",
							"name": "head",
							"type": "uint48"
						},
						{
							"internalType": "uint48",
							"name": "glasses",
							"type": "uint48"
						}
					],
					"internalType": "struct IOxWorksSeeder.Seed",
					"name": "seed",
					"type": "tuple"
				}
			],
			"name": "generateSVGImage",
			"outputs": [
				{
					"internalType": "string",
					"name": "",
					"type": "string"
				}
			],
			"stateMutability": "view",
			"type": "function"
		},
		{
			"inputs": [
				{
					"internalType": "string",
					"name": "name",
					"type": "string"
				},
				{
					"internalType": "string",
					"name": "description",
					"type": "string"
				},
				{
					"components": [
						{
							"internalType": "uint48",
							"name": "background",
							"type": "uint48"
						},
						{
							"internalType": "uint48",
							"name": "body",
							"type": "uint48"
						},
						{
							"internalType": "uint48",
							"name": "accessory",
							"type": "uint48"
						},
						{
							"internalType": "uint48",
							"name": "head",
							"type": "uint48"
						},
						{
							"internalType": "uint48",
							"name": "glasses",
							"type": "uint48"
						}
					],
					"internalType": "struct IOxWorksSeeder.Seed",
					"name": "seed",
					"type": "tuple"
				}
			],
			"name": "genericDataURI",
			"outputs": [
				{
					"internalType": "string",
					"name": "",
					"type": "string"
				}
			],
			"stateMutability": "view",
			"type": "function"
		},
		{
			"inputs": [
				{
					"internalType": "uint256",
					"name": "",
					"type": "uint256"
				}
			],
			"name": "glasses",
			"outputs": [
				{
					"internalType": "bytes",
					"name": "",
					"type": "bytes"
				}
			],
			"stateMutability": "view",
			"type": "function"
		},
		{
			"inputs": [],
			"name": "glassesCount",
			"outputs": [
				{
					"internalType": "uint256",
					"name": "",
					"type": "uint256"
				}
			],
			"stateMutability": "view",
			"type": "function"
		},
		{
			"inputs": [],
			"name": "headCount",
			"outputs": [
				{
					"internalType": "uint256",
					"name": "",
					"type": "uint256"
				}
			],
			"stateMutability": "view",
			"type": "function"
		},
		{
			"inputs": [
				{
					"internalType": "uint256",
					"name": "",
					"type": "uint256"
				}
			],
			"name": "heads",
			"outputs": [
				{
					"internalType": "bytes",
					"name": "",
					"type": "bytes"
				}
			],
			"stateMutability": "view",
			"type": "function"
		},
		{
			"inputs": [],
			"name": "isDataURIEnabled",
			"outputs": [
				{
					"internalType": "bool",
					"name": "",
					"type": "bool"
				}
			],
			"stateMutability": "view",
			"type": "function"
		},
		{
			"inputs": [],
			"name": "lockParts",
			"outputs": [],
			"stateMutability": "nonpayable",
			"type": "function"
		},
		{
			"inputs": [],
			"name": "owner",
			"outputs": [
				{
					"internalType": "address",
					"name": "",
					"type": "address"
				}
			],
			"stateMutability": "view",
			"type": "function"
		},
		{
			"inputs": [
				{
					"internalType": "uint8",
					"name": "",
					"type": "uint8"
				},
				{
					"internalType": "uint256",
					"name": "",
					"type": "uint256"
				}
			],
			"name": "palettes",
			"outputs": [
				{
					"internalType": "string",
					"name": "",
					"type": "string"
				}
			],
			"stateMutability": "view",
			"type": "function"
		},
		{
			"inputs": [],
			"name": "renounceOwnership",
			"outputs": [],
			"stateMutability": "nonpayable",
			"type": "function"
		},
		{
			"inputs": [
				{
					"internalType": "string",
					"name": "_baseURI",
					"type": "string"
				}
			],
			"name": "setBaseURI",
			"outputs": [],
			"stateMutability": "nonpayable",
			"type": "function"
		},
		{
			"inputs": [],
			"name": "toggleDataURIEnabled",
			"outputs": [],
			"stateMutability": "nonpayable",
			"type": "function"
		},
		{
			"inputs": [
				{
					"internalType": "uint256",
					"name": "tokenId",
					"type": "uint256"
				},
				{
					"components": [
						{
							"internalType": "uint48",
							"name": "background",
							"type": "uint48"
						},
						{
							"internalType": "uint48",
							"name": "body",
							"type": "uint48"
						},
						{
							"internalType": "uint48",
							"name": "accessory",
							"type": "uint48"
						},
						{
							"internalType": "uint48",
							"name": "head",
							"type": "uint48"
						},
						{
							"internalType": "uint48",
							"name": "glasses",
							"type": "uint48"
						}
					],
					"internalType": "struct IOxWorksSeeder.Seed",
					"name": "seed",
					"type": "tuple"
				}
			],
			"name": "tokenURI",
			"outputs": [
				{
					"internalType": "string",
					"name": "",
					"type": "string"
				}
			],
			"stateMutability": "view",
			"type": "function"
		},
		{
			"inputs": [
				{
					"internalType": "address",
					"name": "newOwner",
					"type": "address"
				}
			],
			"name": "transferOwnership",
			"outputs": [],
			"stateMutability": "nonpayable",
			"type": "function"
		}
	]
}